:100000006F0000546F00C0080000000000000000F6
:10001000F9A0000000000000000000000000000047
:1000200011A200000000000000000000000000001D
:100030002DAA0000000000000000000000000000E9
:1000400000000000B5A200007DA20000000000003A
:1000500000000000000000000000000099A900005E
:1000600041A60000E1AA000029AC0000B1AC0000EC
:1000700079AC0000C5A400000DA600006DA600002C
:10008000F5A600001300000013000000130000009C
:10009000197106C00AC20EC412C616C81ACA1ECCEE
:1000A00022CE26D02AD22ED432D636D83ADA3EDC28
:1000B00042DEC6C0CAC2CEC4D2C6D6C8DACADECCF8
:1000C000E2CEE6D0EAD2EED4F2D6F6D8FADAFEDC08
:1000D00073252034F3251034EF00206C31A91971F9
:1000E00006C00AC20EC412C616C81ACA1ECC22CE38
:1000F00026D02AD22ED432D636D83ADA3EDC42DEA8
:10010000C6C0CAC2CEC4D2C6D6C8DACADECCE2CE17
:10011000E6D0EAD2EED4F2D6F6D8FADAFEDCEF0078
:10012000C064D9AE197106C00AC20EC412C616C880
:100130001ACA1ECC22CE26D02AD22ED432D636D8F7
:100140003ADA3EDC42DEC6C0CAC2CEC4D2C6D6C887
:10015000DACADECCE2CEE6D0EAD2EED4F2D6F6D8D7
:10016000FADAFEDCEF00205941AE197106C00AC26E
:100170000EC412C616C81ACA1ECC22CE26D02AD247
:100180002ED432D636D83ADA3EDC42DEC6C0CAC2F7
:10019000CEC4D2C6D6C8DACADECCE2CEE6D0EAD227
:1001A000EED4F2D6F6D8FADAFEDCEF000064A9A6A7
:1001B000197106C00AC20EC412C616C81ACA1ECCCD
:1001C00022CE26D02AD22ED432D636D83ADA3EDC07
:1001D00042DEC6C0CAC2CEC4D2C6D6C8DACADECCD7
:1001E000E2CEE6D0EAD2EED4F2D6F6D8FADAFEDCE7
:1001F000EF00E05F11A6197106C00AC20EC412C654
:1002000016C81ACA1ECC22CE26D02AD22ED432D656
:1002100036D83ADA3EDC42DEC6C0CAC2CEC4D2C646
:10022000D6C8DACADECCE2CEE6D0EAD2EED4F2D636
:10023000F6D8FADAFEDCEF00605B7DAC197106C01F
:100240000AC20EC412C616C81ACA1ECC22CE26D0A6
:100250002AD22ED432D636D83ADA3EDC42DEC6C0B6
:10026000CAC2CEC4D2C6D6C8DACADECCE2CEE6D086
:10027000EAD2EED4F2D6F6D8FADAFEDCEF00605716
:10028000A5AC197106C00AC20EC412C616C81ACA95
:100290001ECC22CE26D02AD22ED432D636D83ADA66
:1002A0003EDC42DEC6C0CAC2CEC4D2C6D6C8DACA96
:1002B000DECCE2CEE6D0EAD2EED4F2D6F6D8FADA46
:1002C000FEDCEF0020530DAC197106C00AC20EC44B
:1002D00012C616C81ACA1ECC22CE26D02AD22ED4B6
:1002E00032D636D83ADA3EDC42DEC6C0CAC2CEC406
:1002F000D2C6D6C8DACADECCE2CEE6D0EAD2EED496
:10030000F2D6F6D8FADAFEDCEF00E04EF5A219716B
:1003100006C00AC20EC412C616C81ACA1ECC22CE05
:1003200026D02AD22ED432D636D83ADA3EDC42DE75
:10033000C6C0CAC2CEC4D2C6D6C8DACADECCE2CEE5
:10034000E6D0EAD2EED4F2D6F6D8FADAFEDCEF0046
:10035000A04A5DA2197106C00AC20EC412C616C810
:100360001ACA1ECC22CE26D02AD22ED432D636D8C5
:100370003ADA3EDC42DEC6C0CAC2CEC4D2C6D6C855
:10038000DACADECCE2CEE6D0EAD2EED4F2D6F6D8A5
:10039000FADAFEDCEF00604685A2197106C00AC2D7
:1003A0000EC412C616C81ACA1ECC22CE26D02AD215
:1003B0002ED432D636D83ADA3EDC42DEC6C0CAC2C5
:1003C000CEC4D2C6D6C8DACADECCE2CEE6D0EAD2F5
:1003D000EED4F2D6F6D8FADAFEDCEF00204229AAF3
:1003E000197106C00AC20EC412C616C81ACA1ECC9B
:1003F00022CE26D02AD22ED432D636D83ADA3EDCD5
:1004000042DEC6C0CAC2CEC4D2C6D6C8DACADECCA4
:10041000E2CEE6D0EAD2EED4F2D6F6D8FADAFEDCB4
:10042000EF00003DD1A8197106C00AC20EC412C661
:1004300016C81ACA1ECC22CE26D02AD22ED432D624
:1004400036D83ADA3EDC42DEC6C0CAC2CEC4D2C614
:10045000D6C8DACADECCE2CEE6D0EAD2EED4F2D604
:10046000F6D8FADAFEDCEF00A03979A0197106C0DF
:100470000AC20EC412C616C81ACA1ECC22CE26D074
:100480002AD22ED432D636D83ADA3EDC42DEC6C084
:10049000CAC2CEC4D2C6D6C8DACADECCE2CEE6D054
:1004A000EAD2EED4F2D6F6D8FADAFEDCEF00603506
:1004B000A1A0197106C00AC20EC412C616C81ACA73
:1004C0001ECC22CE26D02AD22ED432D636D83ADA34
:1004D0003EDC42DEC6C0CAC2CEC4D2C6D6C8DACA64
:1004E000DECCE2CEE6D0EAD2EED4F2D6F6D8FADA14
:1004F000FEDCEF00203109A082401241A2413242CD
:10050000C2425243E243724482541255A2553256BB
:10051000C2565257E257725886481649A649364A7B
:10052000C64A564BE64B764C865C165DA65D365E3B
:10053000C65E565FE65F0961730020300000000070
:10054000735000307350403097000000938080ABB0
:10055000B7C200029382C2FF23A00200F322103030
:1005600093F2120063940202F322503093F23200AD
:100570000543639D6200F322503093F2C2FF1703DC
:100580000000130363A86396620439A09702000079
:10059000938282A773905230171700001307879930
:1005A00097470000938707A617480000130888A6FE
:1005B0006308F7006386070197000000E7802008C2
:1005C00097410000938101243120138101D06F00F5
:1005D0000021029086829387018A138801906383A9
:1005E00007013528938701871388018A638A0701E9
:1005F0003D209387019013880190638307010520B4
:100600001717000013070794938701811388018748
:100610006305F700638307010D2096808280636F76
:10062000F802B368F80093F838006349100323A078
:1006300007009107E3CD07FF82806361F802B3688A
:10064000F80093F83800634B10018328070023A0BB
:10065000170191071107E3CA07FF11A001A08280CB
:10066000814693870187138781870146D4C354C38A
:1006700090C310C3814781460148B75800021383D5
:10068000170003AE08003336F3003696A9E9637805
:10069000C5056306080023ACF18623AED186B7C733
:1006A000000283A787FF1443584305453386D700CC
:1006B000B337F600BA9723A8C18623AAF186D98E4C
:1006C00091CE37470002FD5654C310C35CC3930755
:1006D0000008F3A74730F36704300145828083A701
:1006E00008000548B307F540B336F500958D3E8503
:1006F000B2869A8769B7411106C693070008F3B717
:100700004730B7C7000283A687FF938701879843C6
:10071000DC431386818793855600084203284600F0
:10072000B3B6D500014663E9D7026394F60063656A
:10073000B70209C623A8E18623AAF186B7460002BC
:100740007D56D0C298C2DCC2F52993070008F3A7F2
:100750004730B240410182803306A700B338E6003B
:10076000C2973287C69705467DBF411106C6F12163
:1007700019671C53B240F59B1CD341018280F327BB
:1007800040F141151375F50F0A059707000093878F
:10079000675A3E95032305000283635D0502B70790
:1007A000008013C707FF698F01CB93C707FEE98F4E
:1007B00081E71375F50FE1B706050581AD476313B2
:1007C000F50025A08D476313F50045B79D476317D6
:1007D000F50015B74111050506C6C128828041A95B
:1007E00082804111294506C6C9208280828082808C
:1007F0008280828082808280828082808280D5B75F
:10080000828082808280938781889C43011106CEFA
:100810002AC699EB85466946B7050071138501889C
:100820004122854723A4F1886C0013850188054681
:10083000E92AF24032450561828079714ECE09463F
:10084000AE89970500009385E55422D426D24AD07C
:1008500052CC56CA06D62A89714461293D4AA54A16
:10086000F154B3178A00B3F73701B3D7870093F772
:10087000F70F63E9FA0293878704E207E1870546E9
:100880009305F1004A857114A307F1009D21E31A35
:1008900094FCB250225492540259F249624AD24A0C
:1008A000456182809387B705C9BF411122C497056E
:1008B00000009385254C2A847546094506C61529EE
:1008C000A28509459D3F01A0011122CC06CE3384AB
:1008D000C50063978500F2406244328505618280DD
:1008E0000385050032C62EC4393FA2453246850530
:1008F000CDB7F367043082800CC1828008418280CA
:10090000368E331EBE00337ECE0003230500B28335
:1009100093C3F3FF337373003363C3012320650074
:1009200082800841718D3355B50082802310B50057
:100930008280031505008280368E331EBE00337E12
:10094000CE0003130500B28393C3F3FF3373730028
:100950003363C30123106500828003150500718D88
:100960003355B50082802300B50082800305050061
:100970008280368E331EBE00337ECE000303050018
:10098000B28393C3F3FF337373003363C301230054
:100990006500828003050500718D3355B5008280A6
:1009A00025C59D4763E2D7068967637FF604011179
:1009B00022CC4AC832842E8926CA9375F60FAA849F
:1009C00015841305890006CE4EC61374847FB6893C
:1009D000593F1305C900B365340171371305090187
:1009E00023A024016137098911E923820400F24020
:1009F0006244D2444249B24905618280884011056F
:100A0000B53788404105F9BF828029C1A1C11DCEFB
:100A1000411122C426C24AC006C62A892E84B38444
:100A2000C50063189400B240224492440249410137
:100A30008280032509004105153F05897DD983453D
:100A40000400032509000504393FE1BF828001113C
:100A500006CE22CC26CA4AC84EC629CDAE89B9C90F
:100A6000B28419CE2A8408410149410501378347E0
:100A70004400C98F2302F40009891DCD631A99002F
:100A8000F240624426854249D244B24905618280DF
:100A900008401105E13DB38729012380A7000840E4
:100AA00005094105E13583474400C98F2302F4005D
:100AB0000989E1B78144E9B7CA84D9B71DC995C985
:100AC000411122C426C206C6AA842E84834704008C
:100AD00091E7B2402244924441018280884041051E
:100AE0007135058965DD8345040088400504A53D11
:100AF000F1BF8280411122C42A8426C24AC006C6A0
:100B00000CC0AE8450C11389050826858145910427
:100B1000993DE39C24FF5C4005476380E702A1C345
:100B20000947639BE70608402244B24092440249C9
:100B3000FD55130505084101C1B30840C164938503
:100B4000F4FF13050508DD3308402244B240024992
:100B50009385F4FF9244130545084101C1BB084049
:100B60009305F00F13050508FD3B08409305F00FB2
:100B700013054508CD3B08409305F00F1305850884
:100B8000DD3308402244B240924402499305F00FFD
:100B90001305C5084101C1BBB24022449244024939
:100BA000410182805C41411122C426C206C605472C
:100BB0002A84AE84638EE70085CF0947639AE706EF
:100BC00008412244B24092441305050A41012DB365
:100BD0000841C205C1811305050A893B084022442A
:100BE000B24093D5040192441305450A41013DBB2F
:100BF000084193F5F50F1305050AB533084093D561
:100C0000840093F5F50F1305450AB13B084093D5D1
:100C1000040193F5F50F1305850AB133084022440A
:100C2000B24093D5840192441305C50A410125BB06
:100C3000B240224492444101828019671C53F59BC3
:100C40001CD38280938701899843411106C61347BC
:100C5000F70098C38C431385018EA937B2409705DE
:100C60000000938565131385818E410181BD41117B
:100C700085466946B70500711385818E06C622C474
:100C800026C24AC0313B973700009387A7378C4371
:100C90001385818E25350946B70500751385018EAC
:100CA000913D81451385018EF53DA131B7070007C0
:100CB000F3A7473037F5FA021305050881454D3291
:100CC0009384018A1384818E1389C18813060004DA
:100CD0009385018A2285A53B2386A1888347090045
:100CE00093F7F70FE5D7A6852285C93B23860188B0
:100CF000F1BF9737000093872731B2862E86AA85E9
:100D0000884309A0411122C42A842E85B2853686E3
:100D100023A8018E06C64D3EFD576317F500938745
:100D2000018F9C4391C31CC0B24022444101828088
:100D3000EE070080EC070080F0070080FE070080CF
:100D4000FE070080FE070080FE070080F20700809B
:100D5000F4070080F6070080F8070080FA0700809B
:100D6000FC07008004080080000800800208008062
:100D70000A50726F67616D206861732065786974CD
:100D80006564207769746820636F64653A000000C9
:100D9000307800000D0A496E7465726E616C2053E4
:100DA000797374656D2054696D657220496E746540
:100DB00072727570740000000D0A2A2A2A2A2A2AE3
:100DC0002A2A2A2A2A2A2A2A2A2A2A2A2A2A2A2A83
:100DD0002A2A2A2A2A2A2A2A2A2A2A2A2A2A2A2A73
:100DE0002A2A2A2A2A2A2A2A2A2A2A2A2A2A2A2A63
:100DF0002A2A2A2A2A2A2A2A2A2A2A2A2A2A2A2A53
:100E00002A2A2A2A2A2A2A2A0D0A0A2A2A2A2A2A9F
:100E10002A2A2A2A2A2A2A2A2A2A2A2A2A2A2A203C
:100E20002020204D692D562053797374656D205410
:100E3000696D657220426C696E6B79204578616DD1
:100E4000706C65202020202A2A2A2A2A2A2A2A2A67
:100E50002A2A2A2A2A2A2A2A2A2A2A2A2A2A0D0A2F
:100E60000A2A2A2A2A2A2A2A2A2A2A2A2A2A2A2A02
:100E70002A2A2A2A2A2A2A2A2A2A2A2A2A2A2A2AD2
:100E80002A2A2A2A2A2A2A2A2A2A2A2A2A2A2A2AC2
:100E90002A2A2A2A2A2A2A2A2A2A2A2A2A2A2A2AB2
:100EA0002A2A2A2A2A2A2A2A2A2A2A2A2A2A2A0DBF
:100EB0000A0D0A4F62736572766520746865204C6E
:100EC00045447320626C696E6B696E67206F6E209B
:100ED00074686520626F6172642E20546865204CCE
:100EE0004544207061747465726E206368616E673A
:100EF00065732065766572792074696D652061205F
:100F000073797374656D2074696D657220696E7490
:100F1000657272757074206F63637572732E0D0A3B
:100F200000000000000000000000000000000000C1
:100F3000B80D00801040008000000000000000009C
:100F400000000000000000000000000000000000A1
:100F50000000000000000000000000000000000091
:100F60000000000000000000000000000000000081
:100F70000000000000000000000000000000000071
:100F80000000000000000000000000000000000061
:100F90000000000000000000000000000000000051
:040000058000000077
:00000001FF
