:100000006F00C0006F0000006F00C0029702000088
:10001000938282027390523073500030735040309C
:1000200097610000938101FE17A10000130181B8C0
:100030006F00001E130101F823201100232221006C
:10004000232431002326410023285100232A610064
:10005000232C7100232E8100232091022322A10250
:100060002324B1022326C1022328D102232AE1023C
:10007000232CF102232E0103232011052322210525
:10008000232431052326410523285105232A610510
:10009000232C7105232E8105232091072322A107FC
:1000A0002324B1072326C1072328D107232AE107E8
:1000B000232CF107F3221034232E5106732520340C
:1000C000F325103413060100EF00404C7310153473
:1000D000B72200009382028073A0023083200100C7
:1000E00003214100832181000322C10083220101F9
:1000F00003234101832381010324C10183240102DD
:1001000003254102832581020326C10283260103C0
:1001100003274103832781030328C10383280104A4
:100120000329410483298104032AC104832A010588
:10013000032B4105832B8105032CC105832C01066C
:10014000032D4106832D8106032EC106832E010750
:10015000032F4107832F810713010108730020300B
:10016000130101FE232E8100130401022326A4FEA5
:100170002324B4FE2322C4FE6F00C0028327C4FEE2
:1001800003A70700832784FE23A0E7008327C4FE7C
:10019000938747002326F4FE832784FE9387470036
:1001A0002324F4FE032784FE832744FEE3F8E7FCC0
:1001B000130000000324C101130101026780000045
:1001C000130101FD2326810213040103232EA4FC45
:1001D000232CB4FC8327C4FD2326F4FE6F0080018A
:1001E0008327C4FE23A007008327C4FE938747000C
:1001F0002326F4FE0327C4FE832784FDE3F2E7FEF3
:10020000130000000324C1021301010367800000F2
:10021000130101FE232E1100232C8100130401027F
:10022000B7570080938707532326F4FE8327C4FE25
:100230002320F4FE232204FE232404FEB76700805B
:1002400013860780B767008093850780B7670080B3
:1002500013850780EFF0DFF013860198B767008001
:1002600093850780B767008013850780EFF05FEF05
:100270009385019C13850198EFF09FF4B787008068
:10028000938507BB1385019CEFF09FF3930704FE52
:100290009385070013051000EF40907813000000CD
:1002A0008320C10103248101130101026780000042
:1002B000130101FF23268100130401011300000034
:1002C0000324C1001301010167800000130101FD37
:1002D0002326810213040103232EA4FCF32740F1FB
:1002E0002326F4FE8327C4FE2324F4FE37070040B0
:1002F0008327C4FD93D75700832684FE9396560028
:10030000B386F600B717000093870780B387F6001F
:1003100093972700B307F70083A707002322F4FE73
:100320008327C4FD93F7F70113071000B317F700F5
:1003300093C7F7FF032744FEB377F7002322F4FEA9
:10034000370700408327C4FD93D75700832684FED8
:1003500093965600B386F600B71700009387078080
:10036000B387F60093972700B307F700032744FEEF
:1003700023A0E700130000000324C10213010103BE
:1003800067800000130101FE232E81001304010287
:10039000F32740F12326F4FE8327C4FE2324F4FE32
:1003A00037070040832784FE938707209397C70071
:1003B000B307F70083A74700138507000324C10193
:1003C0001301010267800000130101FD2326810251
:1003D00013040103232EA4FCF32740F12326F4FE8B
:1003E0008327C4FE2324F4FE37070040832784FEBE
:1003F000938707209397C700B307F7000327C4FD2F
:1004000023A2E700130000000324C102130101032B
:1004100067800000130101FE232E810013040102F6
:1004200093070008F3B707302326F4FEF377043070
:100430002324F4FE130000000324C1011301010270
:1004400067800000130101FE232E1100232C810080
:100450001304010293070008F3B747302326F4FE84
:10046000EF00002437070044B7C70000B307F700C8
:1004700003A8C7FF83A787FF83A5019803A6419818
:1004800037050044732740F12324E4FE832884FECB
:10049000B386B700138306003333F3003307C80075
:1004A000B307E300138707009387060013080700CC
:1004B00037170000130707803387E800131737004A
:1004C0003307E5002320F7002322070193070008E4
:1004D000F3A747302322F4FE130000008320C1015C
:1004E000032481011301010267800000130101FE52
:1004F000232E1100232C810013040102EFF09FE84A
:100500002326A4FEA30504FEB76700800327C4FECC
:100510001317270093870780B307F70083A7070007
:10052000E780070093070500A305F4FE0325C4FE3A
:10053000EFF09FE90347B4FE930710006316F7003E
:100540000325C4FEEFF09FD8130000008320C101F3
:10055000032481011301010267800000130101FFE0
:10056000232611002324810013040101EF00C01190
:10057000B707004423A00700130000008320C10038
:10058000032481001301010167800000130101FBB6
:10059000232611042324810413040105232EA4FA25
:1005A000232CB4FA8327C4FB63D207020327C4FBBE
:1005B000B707008093C7F7FF3377F7009307B000C2
:1005C0006316F700EFF09FF26F00800A8327C4FBE9
:1005D00063D207020327C4FBB707008093C7F7FF66
:1005E0003377F700930770006316F700EFF09FE58D
:1005F0006F0000088327C4FB63D207020327C4FBF4
:10060000B707008093C7F7FF3377F70093073000F1
:100610006316F700EFF09FF46F008005F327403476
:100620002326F4FE8327C4FE2324F4FEF32730346C
:100630002322F4FE832744FE2320F4FEF3275030C8
:10064000232EF4FC8327C4FD232CF4FCF327003471
:10065000232AF4FC832744FD2328F4FCF3270030ED
:100660002326F4FC8327C4FC2324F4FC730010002D
:10067000832784FB138507008320C104032481049E
:100680001301010567800000130101FF23261100FB
:1006900023248100130401011305A000EF00004290
:1006A000130101FF23268100130401011300000040
:1006B0000324C1001301010167800000130101FF41
:1006C000232681001304010193070000138507000E
:1006D0000324C1001301010167800000130101FF21
:1006E00023268100130401019307000013850700EE
:1006F0000324C1001301010167800000130101FF01
:1007000023268100130401019307000013850700CD
:100710000324C1001301010167800000130101FFE0
:1007200023268100130401019307000013850700AD
:100730000324C1001301010167800000130101FFC0
:10074000232681001304010193070000138507008D
:100750000324C1001301010167800000130101FFA0
:10076000232681001304010193070000138507006D
:100770000324C1001301010167800000130101FF80
:10078000232681001304010193070000138507004D
:100790000324C1001301010167800000130101FF60
:1007A000232681001304010193070000138507002D
:1007B0000324C1001301010167800000130101FF40
:1007C000232681001304010193070000138507000D
:1007D0000324C1001301010167800000130101FF20
:1007E00023268100130401019307000013850700ED
:1007F0000324C1001301010167800000130101FF00
:1008000023268100130401019307000013850700CC
:100810000324C1001301010167800000130101FFDF
:1008200023268100130401019307000013850700AC
:100830000324C1001301010167800000130101FFBF
:10084000232681001304010193070000138507008C
:100850000324C1001301010167800000130101FF9F
:10086000232681001304010193070000138507006C
:100870000324C1001301010167800000130101FF7F
:10088000232681001304010193070000138507004C
:100890000324C1001301010167800000130101FF5F
:1008A000232681001304010193070000138507002C
:1008B0000324C1001301010167800000130101FF3F
:1008C000232681001304010193070000138507000C
:1008D0000324C1001301010167800000130101FF1F
:1008E00023268100130401019307000013850700EC
:1008F0000324C1001301010167800000130101FFFF
:1009000023268100130401019307000013850700CB
:100910000324C1001301010167800000130101FFDE
:1009200023268100130401019307000013850700AB
:100930000324C1001301010167800000130101FFBE
:10094000232681001304010193070000138507008B
:100950000324C1001301010167800000130101FF9E
:10096000232681001304010193070000138507006B
:100970000324C1001301010167800000130101FF7E
:10098000232681001304010193070000138507004B
:100990000324C1001301010167800000130101FF5E
:1009A000232681001304010193070000138507002B
:1009B0000324C1001301010167800000130101FF3E
:1009C000232681001304010193070000138507000B
:1009D0000324C1001301010167800000130101FF1E
:1009E00023268100130401019307000013850700EB
:1009F0000324C1001301010167800000130101FFFE
:100A000023268100130401019307000013850700CA
:100A10000324C1001301010167800000130101FFDD
:100A200023268100130401019307000013850700AA
:100A30000324C1001301010167800000130101FFBD
:100A4000232681001304010193070000138507008A
:100A50000324C1001301010167800000130101FF9D
:100A6000232681001304010193070000138507006A
:100A70000324C1001301010167800000130101FF7D
:100A8000232681001304010193070000138507004A
:100A90000324C1001301010167800000130101FF5D
:100AA000232681001304010193070000138507002A
:100AB0000324C1001301010167800000130101FE3E
:100AC000232E8100130401022326A4FE6F000000E0
:100AD000130101FF232611002324810013040101C7
:100AE00013060002B72500601385019CEF10C003B8
:100AF0001385019CEF10401A130000008320C100F1
:100B0000032481001301010167800000130101FD2E
:100B1000232611022324810213040103232EA4FCA3
:100B2000232CB4FC9307F0F9A307F4FE930500000F
:100B30001385019CEF1040219306C4FE9307F4FE39
:100B40001307300013061000938507001385019CDE
:100B5000EF10C03B930500001385019CEF10C02CE3
:100B60000347C4FE8327C4FD2380E7000347D4FE68
:100B7000832784FD2380E700130000008320C10247
:100B8000032481021301010367800000130101FDAA
:100B9000232611022324810213040103232EA4FC23
:100BA000232CB4FC232AC4FCEF000036EF00C03B2A
:100BB000930730002304F4FE8327C4FD93D78701F5
:100BC00093F7F70FA304F4FE8327C4FD93D707011F
:100BD00093F7F70F2305F4FE8327C4FD93D787000F
:100BE00093F7F70FA305F4FE8327C4FD93F7F70FE0
:100BF0002306F4FE930500001385019CEF10C0143A
:100C0000832744FD1397070113570701930784FEB9
:100C1000832684FD13065000938507001385019CED
:100C2000EF10C02E930500001385019CEF10C01F2C
:100C3000130000008320C102032481021301010379
:100C400067800000130101FE232E1100232C810078
:100C500013040102EF00402B930710002306F4FE5B
:100C6000A30604FE930500001385019CEF10C00D40
:100C70009307C4FE1307000093060000130620002C
:100C8000938507001385019CEF104028EF00404C2E
:100C9000930500001385019CEF100019130000005C
:100CA0008320C10103248101130101026780000038
:100CB000130101FD232611022324810213040103E1
:100CC000232EA4FCEF004024EF00002AEF00C023F5
:100CD000930500001385019CEF100007930780FD2A
:100CE0002304F4FE8327C4FD93D7870193F7F70FFE
:100CF000A304F4FE8327C4FD93D7070193F7F70FEE
:100D00002305F4FE8327C4FD93D7870093F7F70FDD
:100D1000A305F4FE8327C4FD93F7F70F2306F4FE23
:100D2000930784FE1307000093060000130650008B
:100D3000938507001385019CEF10401DEF00404193
:100D4000930500001385019CEF10000E13000000B6
:100D50008320C10203248102130101036780000084
:100D6000130101FD23261102232481021304010330
:100D7000232EA4FCEF004019EF00001FEF00C01865
:100D8000930500001385019CEF00107C930700027F
:100D90002304F4FE8327C4FD93D7870193F7F70F4D
:100DA000A304F4FE8327C4FD93D7070193F7F70F3D
:100DB0002305F4FE8327C4FD93D7870093F7F70F2D
:100DC000A305F4FE8327C4FD93F7F70F2306F4FE73
:100DD000930784FE130700009306000013065000DB
:100DE000938507001385019CEF104012EF004036F9
:100DF000930500001385019CEF1000031300000011
:100E00008320C102032481021301010367800000D3
:100E1000130101DD2326112223248122130401233F
:100E2000232EA4DC232CB4DC930706002328D4DC77
:100E3000231BF4DC93070700231AF4DC231704FEBA
:100E4000035764DD835744DDB307F7002316F4FE30
:100E5000231704FE6F0000038357E4FE032784DD9D
:100E60003307F7008357E4FE03470700930604FFA8
:100E7000B387F600238AE7DE8357E4FE93871700E3
:100E80002317F4FE0357E4FE835764DDE366F7FCA3
:100E9000231704FE6F0080038357E4FE032704DD5D
:100EA0003307F700835664DD8357E4FEB387F6000B
:100EB00003470700930604FFB387F600238AE7DEA3
:100EC0008357E4FE938717002317F4FE0357E4FECD
:100ED000835744DDE362F7FC0356C4FE930744DE08
:100EE0001307000093060000938507001385019CFB
:100EF000EF10C001130000008320C12203248122CF
:100F00001301012367800000130101FE232E11004D
:100F1000232C810013040102930500001385019C1A
:100F2000EF00906293076000A307F4FE9307F4FEBE
:100F300013070000930600001306100093850700B6
:100F40001385019CEF00907C930500001385019CA4
:100F5000EF00906D130000008320C1010324810184
:100F60001301010267800000130101FE232E11000E
:100F7000232C810013040102930500001385019CBA
:100F8000EF00905C930770FBA307F4FE9307F4FE59
:100F90001307000093060000130610009385070056
:100FA0001385019CEF009076930500001385019C4A
:100FB000EF009067130000008320C101032481012A
:100FC0001301010267800000130101FC232E1102AE
:100FD000232C8102130401042326A4FC2324B4FC43
:100FE0002322C4FCEFF05FF2EFF01FF8232604FE8B
:100FF000832744FC2324F4FE8327C4FC2322F4FE2D
:101000006F00400F832744FE93F7F70F130700107C
:10101000B307F7402324F4FE032744FC8327C4FED0
:10102000B307F7402320F4FE032704FE832784FE42
:101030006376F700832704FE2324F4FEEFF0DFEC51
:10104000EFF09FF2EFF05FEC93072000230CF4FC2D
:10105000832744FE93D7870193F7F70FA30CF4FC83
:10106000832744FE93D7070193F7F70F230DF4FC72
:10107000832744FE93D7870093F7F70FA30DF4FC63
:10108000832744FE93F7F70F230EF4FC930500002B
:101090001385019CEF00504B032784FC8327C4FE7B
:1010A000B306F700832784FE139707011357070140
:1010B000930784FD13065000938507001385019C58
:1010C000EFF01FD5EF00C008930500001385019CC9
:1010D000EF009055032744FE832784FEB307F700F3
:1010E0002322F4FE0327C4FE832784FEB307F70000
:1010F0002326F4FE0327C4FE832744FCE364F7F0B1
:10110000930500001385019CEF00104493074000F5
:10111000230CF4FC930784FD1307000093060000E2
:1011200013061000938507001385019CEF00105EE5
:10113000930500001385019CEF00104F1300000081
:101140008320C1030324810313010104678000008D
:10115000130101FE232E1100232C81001304010230
:10116000930700072307F4FE9306F4FE9307E4FEBB
:101170001307100013061000938507001385019CC8
:10118000EF00D0588347F4FE93F707F893F7F70F73
:10119000A307F4FE8347F4FEE38807FC1300000076
:1011A0008320C10103248101130101026780000033
:1011B0002320B5006780000003250500678000003C
:1011C000138E0600331EBE00337ECE0003230500BF
:1011D0009303060093C3F3FF337373003363C301B8
:1011E0002320650067800000032505003375C500D6
:1011F0003355B500678000002310B50067800000FC
:101200000315050067800000138E0600331EBE0024
:10121000337ECE00031305009303060093C3F3FF50
:10122000337373003363C3012310650067800000CC
:10123000031505003375C5003355B5006780000000
:101240002300B500678000000305050067800000EB
:10125000138E0600331EBE00337ECE00030305004E
:101260009303060093C3F3FF337373003363C30127
:101270002300650067800000030505003375C50085
:101280003355B50067800000130101FD23261102CC
:101290002324810213040103232EA4FC232CB4FC79
:1012A0009307060013870600231BF4FC930707002F
:1012B000A30AF4FC8327C4FD638E070C034754FD87
:1012C0009307700063E8E70C035764FDB72700003D
:1012D0006372F70C832784FD13878700835764FDAF
:1012E00093F7F70F9385070013050700EFF05FF5FD
:1012F000832784FD9386C700034754FD835764FD0D
:1013000093D7574093F7877FB367F700938507001C
:1013100013850600EFF0DFF28327C4FD032784FD69
:1013200023A0E7008327C4FD83A707009387070155
:1013300013850700EFF05FF19307050093F727008F
:10134000A307F4FE6F0000048327C4FD83A70700F2
:101350009387470013850700EFF01FEF9307050001
:101360002307F4FE8327C4FD83A7070093870701A3
:1013700013850700EFF05FED9307050093F7270053
:10138000A307F4FE8347F4FEE39007FC8327C4FD24
:1013900023820700130000008320C102032481027E
:1013A0001301010367800000130101FD23261102D0
:1013B0002324810213040103232EA4FC232CB4FC58
:1013C000232AC4FC8327C4FD63800708832784FD88
:1013D000638C0706832744FD63880706232604FEE3
:1013E0006F00C0058327C4FD83A70700938707010B
:1013F00013850700EFF05FE59307050093F71700EB
:10140000A305F4FE8347B4FEE38E07FC8327C4FDE7
:1014100083A60700032784FD8327C4FEB307F700D4
:1014200083C707009385070013850600EFF05FE18F
:101430008327C4FE938717002326F4FE0327C4FEE8
:10144000832744FDE360F7FA130000008320C10204
:10145000032481021301010367800000130101FDD1
:101460002326110223248102232291021304010363
:10147000232EA4FC232CB4FC232AC4FC232404FE26
:101480008327C4FD6386070E832784FD6382070ECE
:10149000832744FD638E070C232404FE8327C4FDA9
:1014A00083A707009387070113850700EFF0DFD9B3
:1014B00093070500A303F4FE8327C4FD03C7470079
:1014C000834774FEB367F70013F7F70F8327C4FD54
:1014D0002382E700834774FE93F72700A307F4FEF7
:1014E0006F00C0078327C4FD83A7070093864700CA
:1014F000032784FD832784FEB304F70013850600C9
:10150000EFF09FD4930705002380F400832784FE27
:10151000938717002324F4FE8327C4FD83A70700C5
:101520009387070113850700EFF01FD2930705008B
:10153000A303F4FE8327C4FD03C74700834774FE5B
:10154000B367F70013F7F70F8327C4FD2382E70083
:10155000834774FE93F72700A307F4FE8347F4FE46
:1015600063880700032784FE832744FDE36CF7F6B6
:10157000832784FE138507008320C1020324810290
:10158000832441021301010367800000130101FD60
:10159000232611022324810213040103232EA4FC19
:1015A000232CB4FC8327C4FD63800708832784FDB4
:1015B000638C0706232604FE6F00C0058327C4FD45
:1015C00083A707009387070113850700EFF0DFC7A4
:1015D0009307050093F71700A305F4FE8347B4FEB5
:1015E000E38E07FC8327C4FD83A60700032784FD41
:1015F0008327C4FEB307F70083C70700938507005E
:1016000013850600EFF0DFC38327C4FE938717001E
:101610002326F4FE032784FD8327C4FEB307F700C7
:1016200083C70700E39C07F8130000008320C10272
:10163000032481021301010367800000130101FEEE
:10164000232E8100130401022326A4FE0327C4FED7
:1016500023A4E198130000000324C1011301010237
:1016600067800000130101EB232611142324811449
:10167000130401152324B4EC2322C4EC2320D4EC5E
:10168000930607001387070093070500A307F4ECF0
:10169000938706002316F4EC93070700231FF4EA50
:1016A000232C04FC232E04FC232004FE232204FE0E
:1016B000930784FD2326F4FE231504FEA30404FEF1
:1016C000930784ED1307001013060700930500002D
:1016D00013850700EF3050578327C4FE0347F4EC0F
:1016E0002380E7008327C4FE938747002326F4FE68
:1016F0000357C4EC9307C00E6316F704231504FECA
:101700006F0040038357A4FE032784ECB307F70060
:1017100003C707008327C4FE2380E7008327C4FE96
:10172000938717002326F4FE8357A4FE93871700A0
:101730002315F4FE0357A4FE9307B000E3F4E7FC7F
:101740006F0000018327C4FE9387C7002326F4FEA1
:101750008357C4EC9387470013970701135707017A
:101760008357E4EB930684ED930584FD1308400052
:101770001306000113058001EF00800B930705009D
:10178000A304F4FE834794FE63980708231504FE20
:101790006F0000030357A4FE8357A4FE832644EC86
:1017A000B387F600930604FF3387E600034787EE0E
:1017B0002380E7008357A4FE938717002315F4FEC8
:1017C0000357A4FE93073000E3F6E7FC93074000BD
:1017D0002315F4FE6F0040030357A4FE8357A4FEB5
:1017E0009387C7FF832604ECB387F600930604FFB4
:1017F0003387E600034787EE2380E7008357A4FE84
:10180000938717002315F4FE8357C4EC1387370022
:101810008357A4FEE352F7FC834794FE1385070029
:101820008320C11403248114130101156780000073
:10183000130101FC232E1102232C8102232A910281
:1018400013040104232CB4FC93050600232AD4FCC2
:101850001306070093860700130708009307050087
:10186000A30FF4FC93870500231EF4FC93070600E6
:101870002319F4FC938706002318F4FC9307070050
:101880002317F4FCA30504FE231404FE83A7819808
:101890009387C700130640009305200013850700B7
:1018A000EFF09F94930705006386070093072000DD
:1018B0006F00002683A781989387C7001306200036
:1018C0009305100013850700EFF01F9293070500A2
:1018D00063860700930710006F008023835704FD81
:1018E0009397770013970701135707418347F4FD38
:1018F0009397070193D7074193F7F707939707014A
:1019000093D70741B367F7009397070193D7074130
:101910002314F4FE83A7819893874700035784FE1E
:101920009305070013850700EFF09F888357C4FDD8
:101930006380070483A78198138747018357C4FDF9
:1019400093D727009397070193D707019385070043
:1019500013050700EFF0DF8583A781989387C70100
:10196000035704FD9305070013850700EFF05F841C
:10197000835724FD6384070483A781981387870115
:10198000835724FD93D727009397070193D7070127
:101990009385070013050700EFF09F8183A78198C7
:1019A000938607020357E4FC835704FDB307F7004F
:1019B0009385070013850600EFF08FFF83A78198BA
:1019C0009387C700930610001306100093050000CC
:1019D00013850700EFF0CFFE8357C4FD638207062F
:1019E000832784FD2322F4FE232604FE6F00800358
:1019F00083A78198938687028327C4FE9397270045
:101A0000032744FEB307F70083A707009385070069
:101A100013850600EFF0CFF98327C4FE93871700E4
:101A20002326F4FE8357C4FD93D72700939707011D
:101A300093D70701138707008327C4FEE3EAE7FA79
:101A4000835724FD63840708832744FD2322F4FE83
:101A5000232604FE6F00C0051300000083A78198B1
:101A600093870703130620009305100013850700D2
:101A7000EFF08FF793070500E38207FE83A78198B5
:101A80009386C7028327C4FE93972700032744FE4B
:101A9000B304F70013850600EFF00FF2930705007B
:101AA00023A0F4008327C4FE938717002326F4FEA7
:101AB000835724FD93D727009397070193D70701F6
:101AC000138707008327C4FEE3E8E7F8130000004C
:101AD00083A78198938707031306100093050000DE
:101AE00013850700EFF04FF0130705009307100070
:101AF000E300F7FE83A7819893878700138507008B
:101B0000EFF08FEB93070500A305F4FE8347B4FEC7
:101B1000138507008320C103032481038324410329
:101B20001301010467800000130101FD2326110247
:101B30002324810213040103232EA4FC232CB4FCD0
:101B400093070600231BF4FC8327C4FD6384070E60
:101B5000832784FD6380070E1306C00493050000ED
:101B60000325C4FDEF30500E8327C4FD032784FDF9
:101B700023A0E700035764FD9307000263EEE7002C
:101B8000835764FD638A07008327C4FD035764FD00
:101B90002392E7046F0000018327C4FD13071000A0
:101BA0002392E7048327C4FD83A707009306000060
:101BB000130610009305000013850700EFF04FE9AE
:101BC0008327C4FD83A7070093874702930500007E
:101BD00013850700EFF0CFE68327C4FD83A7070036
:101BE0009387C7019305300013850700EFF04FE599
:101BF0008327C4FD83A70700938747009305F00F51
:101C000013850700EFF0CFE38327C4FD83A7070008
:101C1000938787019305000013850700EFF04FE2DB
:101C20008327C4FD83A707009305300013850700B1
:101C3000EFF00FE18327C4FD83A7070093874702D6
:101C40009305100013850700EFF08FDF8327C4FD95
:101C500083A707009387470213850700EFF0CFDEC5
:101C600093070500A307F4FE8327C4FD83A707009D
:101C70009387070213850700EFF00FDD9307050038
:101C8000A307F4FE130000008320C1020324810295
:101C90001301010367800000130101FE232E1100D0
:101CA000232C8100130401022326A4FE8327C4FEF3
:101CB000638207088327C4FE83A7070093060000FA
:101CC000130610009305000013850700EFF04FD8AE
:101CD0008327C4FE23A407048327C4FE83A7070029
:101CE0009387C7019305300013850700EFF04FD5A8
:101CF0008327C4FE83A70700938747009305F00F4F
:101D000013850700EFF0CFD38327C4FE83A7070016
:101D1000938787019305000013850700EFF04FD2EA
:101D20008327C4FE83A707009305300013850700AF
:101D3000EFF00FD1130000008320C10103248101C3
:101D40001301010267800000130101FD2326110227
:101D50002324810213040103232EA4FC232CB4FCAE
:101D6000232604FE8327C4FD6386070A032784FD18
:101D70009307700063E0E70A8327C4FD83A7070089
:101D8000130620009305100013850700EFF0CFCE57
:101D900093070500638007088327C4FD83A7070016
:101DA000938707021306000193054000138507007F
:101DB000EFF08FCC930705001387070093071000FF
:101DC0006316F7000325C4FDEF0080708327C4FD70
:101DD00083A707009387470213850700EFF0CFC65C
:101DE0009307050093860700832784FD13071000DF
:101DF000B317F700B3E7F6002326F4FE8327C4FDEC
:101E000083A70700938747028325C4FE1385070035
:101E1000EFF00FC3130000008320C10203248102EE
:101E20001301010367800000130101FD2326110245
:101E30002324810213040103232EA4FC232CB4FCCD
:101E4000232604FE8327C4FD6388070A032784FD35
:101E50009307700063E2E70A8327C4FD83A70700A6
:101E6000130620009305100013850700EFF0CFC084
:101E700093070500638207088327C4FD83A7070033
:101E8000938707021306000193054000138507009E
:101E9000EFF08FBE9307050013870700930710002C
:101EA0006316F7000325C4FDEF0080628327C4FD9D
:101EB00083A707009387470213850700EFF0CFB889
:101EC0009307050093860700832784FD13071000FE
:101ED000B317F70093C7F7FFB3F7F6002326F4FE16
:101EE0008327C4FD83A70700938747028325C4FE89
:101EF00013850700EFF0CFB4130000008320C10268
:101F0000032481021301010367800000130101FD16
:101F1000232611022324810213040103232EA4FC8F
:101F2000232CB4FC930706002328D4FC231BF4FCC9
:101F300093070700231AF4FC232204FE231704FE50
:101F4000231604FE231504FE231404FE8327C4FD78
:101F5000638607568327C4FD83A707001306200066
:101F60009305100013850700EFF00FB193070500EC
:101F700063860754035764FD835744FDB307F70096
:101F8000638E0752035764FD835744FDB307F70080
:101F90009387F7FF2322F4FE8327C4FD83A707005E
:101FA0009387C7019305300013850700EFF04FA911
:101FB0008327C4FD83A70700938707021306000148
:101FC0009305400013850700EFF00FAB9307050062
:101FD00013870700930710006316F7000325C4FD5D
:101FE000EF00004F8327C4FD83A70700930600007E
:101FF000130610009305000013850700EFF04FA5AE
:102000006F00C0060357C4FE835764FD6378F70270
:102010008327C4FD83A707009386C7008357C4FEA8
:10202000032784FDB307F70083C7070093850700E4
:1020300013850600EFF0CF976F00C0018327C4FD22
:1020400083A707009387C700930500001385070047
:10205000EFF00F96835784FE938717002314F4FE46
:102060008357C4FE938717002316F4FE8357C4FEDC
:10207000032744FE63FAE7008327C4FD83D74704A0
:102080000357C4FEE360F7F88357C4FE032744FEFA
:10209000631EF7068327C4FD83D747040357C4FE96
:1020A0006376F7060357C4FE835764FD6378F7022F
:1020B0008327C4FD83A70700938687028357C4FE46
:1020C000032784FDB307F70083C707009385070044
:1020D00013850600EFF0CF8D6F00C0018327C4FD8C
:1020E00083A70700938787029305000013850700E5
:1020F000EFF00F8C835784FE938717002314F4FEB0
:102100008357C4FE938717002316F4FE8327C4FD6C
:1021100083A7070093061000130610009305000024
:1021200013850700EFF0CF926F00C00D8327C4FD29
:1021300083D74704035784FE637EF7068357C4FEA4
:10214000032744FE6318F7028327C4FD83A7070013
:10215000938687028357C4FE032784FDB307F700E5
:1021600083C707009385070013850600EFF04F84AF
:102170006F00C0028327C4FD83A707009386C700B2
:102180008357C4FE032784FDB307F70083C7070006
:102190009385070013850600EFF08F818357C4FEF7
:1021A000938717002316F4FE835784FE9387170046
:1021B0002314F4FE8327C4FD83A707009387070237
:1021C000130640009305200013850700EFF0CF8A27
:1021D00093070500639807028327C4FD83A70700C0
:1021E0009387870013850700EFE01FFD8357E4FE08
:1021F000938717002317F4FE835784FE9387F7FF16
:102200002314F4FE0357C4FE835764FDE360F7F222
:102210006F00000A8327C4FD83D74704035784FE59
:102220006370F7048357C4FE032744FE63FAE70292
:102230008327C4FD83A707009387C7009305000089
:1022400013850700EFE0DFF68357C4FE938717007E
:102250002316F4FE835784FE938717002314F4FE9D
:102260008327C4FD83A70700938707021306400056
:102270009305200013850700EFF00F8093070500FA
:10228000639807028327C4FD83A70700938787000D
:1022900013850700EFE05FF28357E4FE9387170092
:1022A0002317F4FE835784FE9387F7FF2314F4FE6D
:1022B0000357E4FE835764FDE36EF7F46F00800B71
:1022C0008327C4FD83D74704035784FE637AF7024C
:1022D0008327C4FD83A707009387C70093050000E9
:1022E00013850700EFE0DFEC8357C4FE93871700E8
:1022F0002316F4FE835784FE938717002314F4FEFD
:102300008327C4FD83A707009387070213064000B5
:102310009305200013850700EFE01FF693070500E3
:10232000639A07048327C4FD83A707009387870068
:1023300013850700EFE05FE8930605008357A4FECE
:10234000032704FDB307F70013F7F60F2380E70018
:102350008357A4FE938717002315F4FE8357E4FEEA
:10236000938717002317F4FE835784FE9387F7FFA4
:102370002314F4FE8357C4FE032744FEE3E2E7F48C
:102380006F00800B8327C4FD83D74704035784FE67
:10239000637AF7028327C4FD83A707009387870228
:1023A0009305000013850700EFE09FE08357C4FE0C
:1023B000938717002316F4FE835784FE9387170034
:1023C0002314F4FE8327C4FD83A707009387070225
:1023D000130640009305200013850700EFE0DFE9B6
:1023E00093070500639A07048327C4FD83A70700AA
:1023F0009387870013850700EFE01FDC9306050035
:102400008357A4FE032704FDB307F70013F7F60F65
:102410002380E7008357A4FE938717002315F4FE5B
:102420008357E4FE938717002317F4FE835784FE37
:102430009387F7FF2314F4FE8357C4FE032744FE5B
:10244000E302F7F46F00C0068327C4FD83A70700EB
:1024500093870702130640009305200013850700A9
:10246000EFE09FE193070500639407048327C4FD11
:1024700083A707009387870013850700EFE0DFD36A
:10248000930605008357A4FE032704FDB307F70056
:1024900013F7F60F2380E7008357A4FE93871700F6
:1024A0002315F4FE8357E4FE938717002317F4FEE9
:1024B0008357E4FE032744FEE378F7F81300000097
:1024C0008320C102032481021301010367800000FD
:1024D000130101FE232E1100232C8100130401029D
:1024E0002326A4FE8327C4FE83A7070093060000CB
:1024F000130610009305000013850700EFE05FD579
:102500008327C4FE83A707009387C7019305300084
:1025100013850700EFE0DFD28327C4FE83A70700FF
:10252000938747009305F00F13850700EFE05FD115
:102530008327C4FE83A7070093061000130610002C
:102540009305000013850700EFE09FD01300000003
:102550008320C1010324810113010102678000006F
:10256000130101FD23261102232481021304010318
:10257000232EA4FC232CB4FC93070600A30BF4FC2D
:102580008327C4FD83A74700130710006386E7086D
:10259000638E0712130720006394E71E8327C4FD90
:1025A00083A707009387070A13850700EFE0DFC0C2
:1025B0002326A4FE834774FD63940702832784FDCA
:1025C00013071000B317F70093C7F7FF138707002F
:1025D0008327C4FEB3F7E7002326F4FE6F00000252
:1025E000832784FD13071000B317F7001387070034
:1025F0008327C4FEB3E7E7002326F4FE8327C4FD48
:1026000083A707009387070A8325C4FE1385070065
:10261000EFE01FBA6F0000178327C4FD03A7070070
:10262000832784FD93D7470093972700B307F700CC
:102630009387070A2322F4FE032544FEEFE05FBCE4
:10264000930705002315F4FE834774FD6390070488
:10265000832784FD93F7F70013071000B317F700E3
:102660009397070193D7074193C7F7FF1397070184
:10267000135707418317A4FEB377F7009397070119
:1026800093D707412315F4FE6F000003832784FDD1
:1026900093F7F70013071000B317F700139707011C
:1026A000135707418317A4FEB367F70093970701F9
:1026B00093D707412315F4FE8357A4FE93850700A3
:1026C000032544FEEFE05FB36F00C00B8327C4FD1A
:1026D00003A70700832784FD93D73700939727002C
:1026E000B307F7009387070A2320F4FE032504FEAF
:1026F000EFE09FB593070500A304F4FE834774FD44
:1027000063900704832784FD93F777001307100075
:10271000B317F7009397870193D7874193C7F7FFC4
:102720001397870113578741830794FEB377F70008
:102730009397870193D78741A304F4FE6F000003AA
:10274000832784FD93F7770013071000B317F70072
:102750001397870113578741830794FEB367F700E8
:102760009397870193D78741A304F4FE834794FE90
:1027700093850700032504FEEFE09FAC6F00800007
:1027800013000000130000008320C1020324810213
:102790001301010367800000130101FA232E1104C5
:1027A000232C810413040106232CC4FA232AE4FAFF
:1027B0002328F4FA232604FB138708009307050057
:1027C000A30FF4FA93870500230FF4FA938706000A
:1027D000A30EF4FA93070700230EF4FA231A04FC5D
:1027E0000325C4FAEF00405093070500231AF4FCB8
:1027F000835744FD6390070A8347F4FB1307600087
:102800006364F70813972700B757008093878753AF
:10281000B307F70083A70700678007009307A000AE
:102820002326F4FEA30B04FC6F0000079307C000EF
:102830002326F4FEA30B04FC6F0000069307E000C0
:102840002326F4FEA30B04FC6F0000059307A000F1
:102850002326F4FE93071000A30BF4FC6F00C003C3
:102860009307C0002326F4FE93071000A30BF4FC8B
:102870006F0080029307E0002326F4FE9307100008
:10288000A30BF4FC6F0040019307B001231AF4FC82
:102890006F00800013000000835744FD6396070615
:1028A0008347E4FB13075000636AF704139727007C
:1028B000B757008093874755B307F70083A70700F2
:1028C00067800700232404FE6F0040049307100074
:1028D0002324F4FE6F008003930720002324F4FEDA
:1028E0006F00C002930730002324F4FE6F00000243
:1028F000930740002324F4FE6F0040019307C001BA
:10290000231AF4FC6F00800013000000835744FD7D
:10291000639A07288327C4FA93D727002328F4FC57
:10292000B70700629387C7000327C4FE23A0E70010
:102930009307803E2322F4FEB707006293870701C6
:102940001307600123A0E700B707006293874701E0
:102950001307200123A0E700B707006293878701D0
:1029600023A00700B70700629387C7011307800001
:1029700023A0E700B7070062938707022326F4FC31
:10298000834774FD9397870013870700832784FE8E
:10299000939717003367F7008347C4FBB367F700CB
:1029A0002324F4FC8327C4FC032784FC23A0E70032
:1029B000B7870062938747022322F4FC0347D4FBC6
:1029C00093071000631AF70013064000832584FB69
:1029D000032544FCEF10C039832744FB232EF4FC6D
:1029E000832704FB232CF4FC232004FE6F00C0107B
:1029F000032704FD832704FEB307F740032744FEA3
:102A000063FAE700032704FD832704FEB307F740BA
:102A10002322F4FEB707006293878700032744FE52
:102A20001357270023A0E700B78700629387870525
:102A30002320F4FC032644FE8325C4FD032504FC67
:102A4000EF100033B7870062938707F83727080035
:102A50001307070123A0E7003717000013070782B9
:102A600023A6E1A0832704FB638E07029387C1A0FE
:102A70001307100023A2E7009387C1A0032744FE99
:102A800023A4E7009387C1A0378700621307870458
:102A900023A6E7009387C1A0032784FD23A8E700AE
:102AA0006F00C0009387C1A023A20700032704FE84
:102AB000832744FEB307F7002320F4FE032704FD19
:102AC000832704FE63FAE70213051000EF00006B92
:102AD000832744FE939727000327C4FDB307F7001D
:102AE000232EF4FC832744FE93972700032784FDBD
:102AF000B307F700232CF4FC032704FD832704FE0F
:102B0000E3E8E7EE832784FE638E07089387C1A07E
:102B100083A74700138717009387C1A023A2E7006C
:102B20009387C1A083A747001387F7FF9386C1A0AF
:102B30009307070093971700B387E7009397270041
:102B4000B387F6001307400023A4E7009387C1A0D2
:102B500083A747001387F7FF9386C1A09307070059
:102B600093971700B387E70093972700B387F60082
:102B7000032744FC23A6E7009387C1A083A747004F
:102B80001387F7FF9386C1A0930707009397170059
:102B9000B387E70093972700B387F600032784FBEA
:102BA00023A8E700835744FD138507008320C10550
:102BB000032481051301010667800000130101FD54
:102BC0002326110223248102130401039307050025
:102BD000232CB4FCA30FF4FC231304FE8347F4FD61
:102BE00013076000636AF70813972700B757008040
:102BF0009387C756B307F70083A7070067800700CE
:102C00009307A0002326F4FE930740002324F4FE3C
:102C10006F0040079307C0002326F4FE930760006F
:102C20002324F4FE6F0000069307E0002326F4FE41
:102C3000930780002324F4FE6F00C0049307A000D4
:102C40002326F4FE930780002324F4FE6F00800304
:102C50009307C0002326F4FE9307C0002324F4FE4C
:102C60006F0040029307E0002326F4FE9307000163
:102C70002324F4FE6F0000019307B0012313F4FE38
:102C800013000000835764FE63940704B7070062D3
:102C900093878700032784FE23A0E700B70700621D
:102CA0009387C7000327C4FE23A0E700B70700628D
:102CB0009387070123A00700B79700622320F4FE43
:102CC000032684FE832584FD032504FEEF10400ABD
:102CD000835764FE138507008320C1020324810209
:102CE0001301010367800000130101FE232E810000
:102CF000130401022326A4FE8327C4FE93F7F700E2
:102D0000639607008327C4FE63960700930790012C
:102D10006F00800093070000138507000324C101A2
:102D20001301010267800000130101FE232E8100C0
:102D300013040102232604FE6F0040028327C4FE11
:102D40001387C19893973700B307F70023A20700B2
:102D50008327C4FE938717002326F4FE8327C4FE2F
:102D6000E38E07FC130000000324C10113010102DC
:102D700067800000130101FE232E1100232C810027
:102D800013040102B7870062938707F81307100046
:102D900023A0E70013000000B7870062938707F8BD
:102DA00083A7070013F7170093071000E316F7FE39
:102DB000B7870062938707F823A00700130000007D
:102DC000B7870062938707F883A7070093F7870008
:102DD000E39807FEB7870062938707F81307200080
:102DE00023A0E700B757008083A7077F138607005B
:102DF000B75700809385877F37450062EF00507793
:102E0000232604FE232404FE6F000003832784FE90
:102E100013972700B7470062B307F70083A707009F
:102E20000327C4FEB307F7002326F4FE832784FE9E
:102E3000938717002324F4FEB757008083A7077FEA
:102E4000032784FEE364F7FCB757008083A7477F1E
:102E50000327C4FE6306F700930710006F004005C8
:102E6000EF004006B7870062938707F837670800CE
:102E7000130707A123A0E7003717000013074782B5
:102E800023A6E1A013051000EF00402F93070500D3
:102E900013870700930720026318F7001307100039
:102EA0002382E1A46F008000238201A49307000025
:102EB000138507008320C10103248101130101024E
:102EC00067800000130101FF2326110023248100E5
:102ED00013040101EFF05FE5EF000002EF00400F87
:102EE000EF00401F130000008320C1000324810075
:102EF0001301010167800000130101FF23268100F7
:102F000013040101238A0198130000000324C10067
:102F10001301010167800000130101FE232E11003F
:102F2000232C810013040102930705002324B4FE1F
:102F3000A307F4FE8347F4FE832584FE1385070070
:102F4000EF00D00793070500138507008320C10118
:102F5000032481011301010267800000130101FEB7
:102F6000232E1100232C8100130401022326A4FE2A
:102F70002324B4FE832584FE0325C4FEEF00900EB7
:102F800093070500138507008320C10103248101F5
:102F90001301010267800000130101FE232E1100BE
:102FA000232C8100130401022326A4FE93050000B4
:102FB0000325C4FEEF005039930705001385070071
:102FC0008320C101032481011301010267800000F5
:102FD000130101FF232611002324810013040101A2
:102FE000EF00504C93070500138507008320C100B4
:102FF000032481001301010167800000130101FE19
:10300000232E1100232C81001304010293070500D5
:10301000A307F4FE8347F4FE13850700EF000016B4
:1030200093070500138507008320C1010324810154
:103030001301010267800000130101FB2326110424
:1030400023248104130401052326A4FE2324B4FEB3
:103050002322C4FE2320D4FE232EE4FC232CF4FCE4
:10306000232A04FD232814FD83274401232AF10089
:10307000832704012328F1008327C4002326F100BD
:10308000832784002324F100832744002322F100B6
:10309000832704002320F100832804FD032844FD36
:1030A000832784FD0327C4FD832604FE032644FEF4
:1030B000832584FE0325C4FEEF00803993070500B5
:1030C000138507008320C104032481041301010533
:1030D00067800000130101FF232681001304010112
:1030E000370701001307F77F23A6E1A09387C1A04C
:1030F00023A20700130000000324C10013010101F3
:1031000067800000130101FD2326810213040103DF
:10311000232EA4FC232CB4FC232AC4FC832784FD87
:1031200063860704232604FE6F008003832784FD43
:1031300003A707008327C4FD23A0E7008327C4FD5E
:1031400093874700232EF4FC832784FD9387470051
:10315000232CF4FC8327C4FE938717002326F4FE58
:103160000327C4FE832744FDE362F7FC130000003D
:103170000324C1021301010367800000130101FD54
:10318000232611022324810213040103930705005F
:10319000A30FF4FC8347F4FD6382070213000000D1
:1031A000B7870062938707F883A7070013F74700E4
:1031B00093074000E316F7FE6F000002B787006236
:1031C000938707F883A7070093F7470063960700E4
:1031D000930750006F008026B7870062938707F837
:1031E00083A7070093F70708638E0710B78700626D
:1031F0009387C7F803A70700B7070002B377F70064
:1032000063820708B78700629387C7F883A7070020
:103210002324F4FE032784FEB72700009387F7FFDB
:10322000B377F7002324F4FE832784FE1397270047
:10323000B7070062B307F70083A707002322F4FE55
:10324000832784FE13972700B7070062B307F700B0
:10325000032744FE23A0E700B7870062938707F89F
:103260001307200023A0E700B7870062938707F8C1
:1032700083A7070093F70708638E070893073002B8
:103280006F00C01B9387C1A023A20700B78700620D
:10329000938707F823A00700B7870062938707F892
:1032A00083A7070093F71700638607009307300290
:1032B0006F00C018B7870062938707F813072000D4
:1032C00023A0E700B7870062938707F883A707006A
:1032D00093F7070863860700930730026F00001614
:1032E000EFF05FA9930705002311F4FE835724FE36
:1032F00063860700835724FE6F0040149307700015
:103300006F00C013B7870062938707F81307200088
:1033100023A0E70003A7C1A0B70701009387F77FA9
:103320006316F700930740026F004011B707006271
:1033300083A707002311F4FE835724FE638607004A
:10334000835724FE6F00800F232604FE6F00C00BFE
:103350000327C4FE9386C1A0930707009397170025
:10336000B387E70093972700B387F60083A787000A
:10337000638607060327C4FE9386C1A09307070050
:1033800093971700B387E70093972700B387F6005A
:1033900003A507010327C4FE9386C1A09307070076
:1033A00093971700B387E70093972700B387F6003A
:1033B00083A5C7000327C4FE9386C1A09307070017
:1033C00093971700B387E70093972700B387F6001A
:1033D00083A7870013860700EF00102C0327C4FE85
:1033E0009386C1A09307070093971700B387E70060
:1033F00093972700B387F60023A407008327C4FE12
:10340000938717002326F4FE9387C1A083A7470064
:103410000327C4FE6378F7000327C4FE9307300038
:10342000E3F8E7F2370701001307F77F23A6E1A0CF
:103430009387C1A023A2070093070000138507000C
:103440008320C1020324810213010103678000006D
:10345000130101F923261106232481061304010711
:103460002326A4FA2324B4FA2322C4FA2320D4FA6C
:10347000232EE4F8232CF4F8232A04F9232814F942
:10348000032704019307070093971700B387E7000A
:10349000938797012326F4FE8325C4FE03250401A8
:1034A000EF00C02B930705002315F4FE0357A4FE7D
:1034B000930790016308F70003270401930710099D
:1034C00063F6E700930790016F000028832704014B
:1034D000939727003307F040B7870162938747FA35
:1034E000B307F7002322F4FE032744FEB78700004A
:1034F000B307F7002322F4FE832704011397270064
:10350000B70700629387C705B307F7002320F4FECF
:10351000832704019387170093972700032704FE4E
:10352000B307F700232EF4FC8327040193871700C9
:10353000939727000327C4FDB307F700232CF4FC5F
:10354000832704019387170093972700032784FD9F
:10355000B307F700232AF4FC83270401938717009D
:1035600093972700032744FDB307F7002328F4FCB3
:10357000832704019387170093972700032704FDEF
:10358000B307F7002326F4FC8327040113973700C1
:1035900083270401B307F7009387F70113972700E8
:1035A000B7070062B307F7002324F4FCB7170062E3
:1035B0002322F4FC8327040193972700032744FC6C
:1035C000B307F7002320F4FC832704019387C70087
:1035D00013973700B7170062B307F700232EF4FAEA
:1035E0008327040193871700939727000327C4FBC1
:1035F000B307F700232CF4FAB71700629387072666
:10360000232AF4FA832744019396E701B70700625F
:10361000938787050327040133E7E60023A0E7002B
:10362000832744FB23A007008327040083A7070008
:1036300093F71700639C07008327040003A7070084
:10364000832744FC23A0E7006F00C0020326040187
:1036500083250400032544FCEFF0DFAA832704013F
:10366000938717001386070083254400032504FC75
:10367000EFF05FA903260401832584FA032504FEE5
:10368000EFF05FA803260401832544FA0325C4FD57
:10369000EFF05FA7032604018325C4FA032544FE47
:1036A000EFF05FA603260401832504FA032584FDB9
:1036B000EFF05FA5032604018325C4F9032544FD2B
:1036C000EFF05FA403260401832504F9032584FC9D
:1036D000EFF05FA303260401832584F9032504FD8D
:1036E000EFF05FA203260401832544F90325C4FCFF
:1036F000EFF05FA103260401832584000325C4FBAA
:10370000EFF05FA08327040193871700138607005B
:103710008325C400032584FBEFF0DF9EB78700629A
:10372000938707F837170800130707A123A0E700BE
:10373000371700001307A78023A6E1A09387C1A035
:1037400023A2070093070000138507008320C1060A
:10375000032481061301010767800000130101FDA6
:103760002326810213040103232EA4FC232CB4FC82
:10377000231704FE0327C4FD9307100063F2E7023A
:10378000032784FD9307004063ECE7001307F03F35
:10379000832784FDB307F7400327C4FD63F6E700E2
:1037A000930790012317F4FE8357E4FE1385070067
:1037B0000324C1021301010367800000130101FD0E
:1037C0002326110223248102130401039307050019
:1037D000232CB4FCA30FF4FC032784FD23ACE19855
:1037E00023AE01981307100023A2E19A8347F4FD4A
:1037F00013850700EF000046930705002317F4FE2A
:103800008357E4FE638A0700A38A019823A0019AE4
:103810008357E4FE6F00C0030347F4FDA38AE198D9
:103820008347F4FD9387F7FF1387070023A0E19AEE
:10383000B70700629387070423A00700B707006259
:103840009387070103A7019A23A0E70093070000CD
:10385000138507008320C1020324810213010103A1
:1038600067800000130101FD232611022324810239
:1038700013040103232EA4FC232CB4FC8327C4FDD2
:103880002326F4FE83C7519913850700EF00803C7F
:10389000930705002313F4FE835764FE638A070031
:1038A000A38A019823A0019A835764FE6F008028A1
:1038B00003A7C199832784FD3307F70083A7819964
:1038C00063F6E7009307E0016F00C02603A7C199E4
:1038D000832784FD3307F70083A781996378F70472
:1038E00003C751999307300063ECE700832784FDF9
:1038F00093F73700638607009307E0016F0080238A
:1039000003C751999307300063F2E70203C7519947
:103910009307700063ECE700832784FD93F777003B
:10392000638607009307E0016F00C020832784FDB2
:10393000639C071E03A7419AB70700629387C700DD
:103940001367270023A0E700B7070062938787006B
:1039500023A00700B7070062938747011307A0025F
:1039600023A0E700B7870062938707F8372708008E
:10397000130707E123A0E70013000000B7870062E8
:10398000938707F883A7070013F7470093074000C2
:10399000E316F7FEB7870062938707F81307200046
:1039A00023A0E700930700006F00C01803A7C19988
:1039B00093070018B377F7022320F4FE032704FED1
:1039C000832784FD3307F7009307001863E8E700B7
:1039D000832784FD2324F4FE6F00400113070018A1
:1039E000832704FEB307F7402324F4FE03A7C199FD
:1039F000832784FE3307F70023AEE198032784FD75
:103A0000832784FEB307F740232CF4FC832704FEAE
:103A100013F7C7FFB78700629387870A3307F7005A
:103A2000832784FE9387370093D7270013860700E8
:103A30008325C4FE13050700EF00803303A7C19957
:103A400083A78199630AF70003A7C1999307001818
:103A5000B377F7026392070C032704FE832784FEE3
:103A6000B307F7002320F4FE83A7419A639E070063
:103A700083A6C199B707006293870704032704FE52
:103A80003387E64023A0E70003A7C19983A7819964
:103A90006316F700930720006F0080009307000073
:103AA00083A6419A370700621307C700B3E7D70020
:103AB0002320F70023A2019AB707006293878700AB
:103AC000032704FE23A0E700B7070062938747019E
:103AD0001307A00223A0E700B7870062938707F8C7
:103AE00037270800130707E123A0E70013000000B1
:103AF000B7870062938707F883A7070013F747008B
:103B000093074000E316F7FEB7870062938707F834
:103B10001307200023A0E7000327C4FE832784FEA9
:103B2000B307F7002326F4FE832784FDE39007E81C
:103B300093070000138507008320C102032481023C
:103B40001301010367800000130101FD2326110208
:103B50002324810213040103232EA4FC232CB4FC90
:103B60008327C4FD63960700930720006F00400D74
:103B700083C7519913850700EF00C00D9307050017
:103B80002315F4FE8357A4FE638A0700A38A0198D5
:103B900023A0019A8357A4FE6F00800A03A7C1994E
:103BA00083A781996306F7009307E0016F0040093E
:103BB00003A7019AB7570080131727009387C759A7
:103BC000B307F70083A707002322F4FE232604FE91
:103BD000832784FD93F71700638A07000327C4FE39
:103BE000B7270000B307F7002326F4FE832784FDE0
:103BF00093F72700638E0700832744FE93972700DF
:103C00003767000013071700B307F7402326F4FEB9
:103C10008327C4FE13972700B78700629387470660
:103C2000B307F7002320F4FE032644FE832504FE99
:103C30000325C4FDEF004026A38A019893070000E6
:103C4000138507008320C1020324810213010103AD
:103C500067800000130101FD232681021304010384
:103C600093070500A30FF4FC8347F4FD9387F7FF48
:103C7000138707009307600063E6E700231704FE3D
:103C80006F0000019307A0012317F4FE130000004A
:103C90008357E4FE138507000324C10213010103C7
:103CA00067800000130101FF232681001304010136
:103CB000A38A019893070000138507000324C1001D
:103CC0001301010167800000130101FC232E110282
:103CD000232C810213040104232CB4FC232AD4FCDA
:103CE0002328F4FC232604FD232414FD9307050058
:103CF000A30FF4FC93070600230FF4FC93070700BF
:103D0000A30EF4FC8347F4FD832584FD138507008F
:103D1000EFE0DFEA930705002317F4FE8357E4FE84
:103D2000638607008357E4FE6F0040038346D4FD9B
:103D30008345E4FD0345F4FD93081000032884FC4B
:103D40008327C4FC032704FD032644FDEFE0DFA422
:103D5000930705002317F4FE8357E4FE138507003D
:103D60008320C10303248103130101046780000041
:103D7000130101FC232E8102130401042326A4FC59
:103D80002324B4FC2322C4FC832784FC93F737004C
:103D90006382070A832784FC2322F4FE832744FCE2
:103DA00093972700032744FEB307F700232EF4FC64
:103DB0006F004007930744FD2324F4FEA30704FE8D
:103DC0006F000004832744FE03C70700832784FE97
:103DD0002380E700832784FE938717002324F4FEC3
:103DE000832744FE938717002322F4FE8307F4FE03
:103DF00093F7F70F9387170093F7F70FA307F4FED6
:103E00000307F4FE93073000E3DEE7FA032744FDDF
:103E10008327C4FC23A0E7008327C4FC93874700C3
:103E20002326F4FC032744FE8327C4FDE364F7F84C
:103E30006F008005832784FC2320F4FE832744FC45
:103E400093972700032704FEB307F700232CF4FC05
:103E50006F00C002832704FE03A707008327C4FC6A
:103E600023A0E700832704FE938747002320F4FE66
:103E70008327C4FC938747002326F4FC032704FE12
:103E8000832784FDE368F7FC130000000324C103CB
:103E90001301010467800000130101FC232E81023D
:103EA000130401042326A4FC2324B4FC2322C4FC11
:103EB0008327C4FC93F737006382070A8327C4FC77
:103EC0002322F4FE832744FC93972700032744FE14
:103ED000B307F700232EF4FC6F004007832784FC10
:103EE00083A70700232AF4FC930744FD2324F4FE50
:103EF000A30704FE6F000004832784FE03C70700A6
:103F0000832744FE2380E700832744FE938717001E
:103F10002322F4FE832784FE938717002324F4FED4
:103F20008307F4FE93F7F70F9387170093F7F70FC4
:103F3000A307F4FE0307F4FE93073000E3DEE7FA7D
:103F4000832784FC938747002324F4FC032744FE43
:103F50008327C4FDE364F7F86F0080058327C4FC62
:103F60002320F4FE832744FC93972700032704FEB5
:103F7000B307F700232CF4FC6F00C002832784FCF6
:103F800003A70700832704FE23A0E700832704FE7E
:103F9000938747002320F4FE832784FC9387470000
:103FA0002324F4FC032704FE832784FDE368F7FC45
:103FB000130000000324C103130101046780000003
:103FC000130101FD2326810213040103232EA4FC07
:103FD000232CB4FC232604FE6F00400A8327C4FE72
:103FE000939727000327C4FDB307F70083A70700B3
:103FF00013D787018327C4FE939727008326C4FD28
:10400000B387F60083A7070093D68700B7070100A0
:10401000938707F0B3F7F6003367F7008327C4FEF2
:10402000939727008326C4FDB387F60083A7070074
:1040300093968700B707FF00B3F7F600B366F70063
:104040008327C4FE939727000327C4FDB307F70017
:1040500083A70700139787018327C4FE9397270040
:104060000326C4FDB307F60033E7E60023A0E7000C
:104070008327C4FE938717002326F4FE0327C4FE7C
:10408000832784FDE34CF7F4130000000324C102EE
:104090001301010367800000130101FD2326810243
:1040A00013040103232EA4FC232CB4FC232604FEBA
:1040B0006F000008832784FD1387F7FF8327C4FE62
:1040C000B307F740939727000327C4FDB307F70012
:1040D00083A707002324F4FE8327C4FE93972700B9
:1040E0000327C4FD3307F700832784FD9386F7FF7A
:1040F0008327C4FEB387F640939727008326C4FD29
:10410000B387F6000327070023A0E7008327C4FE38
:10411000939727000327C4FDB307F700032784FE06
:1041200023A0E7008327C4FE938717002326F4FE0D
:10413000832784FD13D7F701B307F70093D7174000
:10414000138707008327C4FEE3C6E7F613000000C9
:104150000324C1021301010367800000130101FE63
:10416000232E810013040102F32740F12324F4FEDF
:10417000832784FE2322F4FE232604FE6F00C0035F
:1041800037070040832744FE939657008327C4FED9
:10419000B386F600B717000093870780B387F60051
:1041A00093972700B307F70023A007008327C4FED7
:1041B000938717002326F4FE8327C4FEE38207FCBF
:1041C000232604FE6F004002370700408327C4FE09
:1041D00093972700B307F70023A007008327C4FEA7
:1041E000938717002326F4FE0327C4FE9307E001FC
:1041F000E3FCE7FC37070040832744FE9387072052
:104200009397C700B307F70023A00700B717000074
:1042100093870780F3A747302320F4FE13000000A4
:104220000324C1011301010267800000130101FE94
:10423000232E8100130401022326A4FE6F00000137
:104240008327C4FE9387F7FF2326F4FE8327C4FE4B
:10425000E39807FE130000000324C10113010102CB
:1042600067800000130101FE232E81001304010268
:10427000231704FE231704FE6F0000020357E4FE19
:10428000938781A5B307F700238007008357E4FED7
:10429000938717002317F4FE0357E4FE9307F001FA
:1042A000E3FEE7FC231704FE6F0040020357E4FE21
:1042B000B7870080938787B9B307F700238007008B
:1042C0008357E4FE938717002317F4FE0357E4FE99
:1042D0009307F000E3FCE7FC231704FE6F000002E5
:1042E0000357E4FE938781A8B307F70023800700F4
:1042F0008357E4FE938717002317F4FE0357E4FE69
:104300009307F001E3FEE7FC231704FE6F000002B1
:104310000357E4FE938781A7B307F70023800700C4
:104320008357E4FE938717002317F4FE0357E4FE38
:104330009307F000E3FEE7FC130000000324C10133
:104340001301010267800000130101FC232E1102FA
:10435000232C8102130401042326A4FC2324B4FC8F
:10436000232C04FC832784FC2326F4FE232004FE54
:1043700003A7C19A832784FC3307F70083A7019B17
:1043800063FAE70003A7019B83A7C19AB307F7402D
:104390002326F4FE03A7C19A83A7019B6366F70057
:1043A000930700006F008034130000001306100014
:1043B000B75700809385C75B138501A5EFC0DFFE6B
:1043C00013000000930744FD1306100093850700B7
:1043D000138501A5EFD08F8893070500E38407FEBE
:1043E00083A7C19A93D7C700232EF4FC8327C4FD6B
:1043F00093F7F70F2308F4FC8327C4FD93D78700B6
:1044000093F7F70FA308F4FC034744FD9307100646
:10441000631EF708930704FD130610009385070039
:10442000138501A5EFC05FF8232C04FC6F00000189
:10443000832784FD93871700232CF4FC032784FD36
:104440009307301FE3F6E7FE13000000930744FDD7
:104450001306100093850700138501A5EFD00F8088
:1044600093070500E38407FE034744FD9307100606
:10447000631EF700930704FD9387170013061000CF
:1044800093850700138501A5EFC01FF2232C04FCC0
:104490006F000001832784FD93871700232CF4FC11
:1044A000032784FD9307301FE3F6E7FE13000000A7
:1044B000930744FD1306100093850700138501A59B
:1044C000EFC0DFF993070500E38407FE8327C4FEEE
:1044D00093F7F70F2308F4FC8327C4FE93D78700D4
:1044E00093F7F70FA308F4FC034744FD9307100666
:1044F000631EF708930704FD130610009385070059
:10450000138501A5EFC05FEA13000000930744FD87
:104510001306100093850700138501A5EFC01FF453
:1045200093070500E38407FE232C04FC6F000001C1
:10453000832784FD93871700232CF4FC032784FD35
:104540009307301FE3F6E7FE034744FD9307100689
:10455000631EF700930704FD9387170013061000EE
:1045600093850700138501A5EFC01FE4232C04FCED
:104570006F000001832784FD93871700232CF4FC30
:10458000032784FD9307301FE3F6E7FE13000000C6
:10459000930744FD1306100093850700138501A5BA
:1045A000EFC0DFEB93070500E38407FE034744FDFC
:1045B0009307E0066312F706232C04FC6F008004C7
:1045C000230A04FC13000000930744FD13061000A7
:1045D00093850700138501A5EFC05FE893070500E9
:1045E000E38407FE832784FD0327C4FCB307F70099
:1045F000034744FD2380E700832784FD938717004A
:10460000232CF4FC832784FD0327C4FEE3EAE7FAA6
:104610008327C4FE2320F4FE13061000B757008042
:104620009385075C138501A5EFC01FD81300000018
:10463000930744FD1306100093850700138501A519
:10464000EFC0DFE193070500E38407FE9307100046
:104650002324F4FEA30304FE6F0040030327C4FCDD
:10466000832784FEB307F70083C7070013978701EA
:1046700013578741834774FEB347F700A303F4FE43
:10468000832784FE939717002324F4FE8327C4FE18
:104690009387F7FF032784FEE3F2E7FC034744FD1B
:1046A000834774FE6318F70203A7C19A832704FEA9
:1046B0003307F70023A6E19A13061000B7570080CE
:1046C0009385075C138501A5EFC01FCE832704FEE9
:1046D0006F00C00113061000B75700809385475C38
:1046E000138501A5EFC05FCC6FF05FCC1385070089
:1046F0008320C103032481031301010467800000A8
:10470000130101FD2326810213040103232EA4FCBF
:10471000232604FE232404FE6F0080040327C4FE26
:104720009307070093972700B387E7009397170035
:10473000138707008327C4FD83C70700B307F7006B
:10474000938707FD2326F4FE8327C4FD9387170074
:10475000232EF4FC832784FE938717002324F4FE82
:104760008327C4FD83C7070063880700032784FEEF
:1047700093078000E3F4E7FA8327C4FE138507005C
:104780000324C1021301010367800000130101FD2E
:10479000232611022324810213040103232EA4FCE7
:1047A000232CB4FC232604FE232604FE6F00000401
:1047B0008327C4FE1397970083A7419BB306F70096
:1047C0008327C4FE939797000327C4FDB307F70020
:1047D000130600209385070013850600EFC0CFFE67
:1047E0008327C4FE938717002326F4FE0327C4FE05
:1047F00093077000E3FEE7FA03A7419BB717000099
:104800003307F70023AAE19A130000008320C102B6
:10481000032481021301010367800000130101FCDE
:10482000232E1102232C810213040104232404FEED
:10483000232204FE232004FE232E04FCA30704FEEF
:1048400013000000930744FD130610009385070032
:10485000138501A5EFC09FC093070500E38407FE01
:10486000034744FD93073007631CF700130610004D
:10487000B75700809385075C138501A5EFC0DFB2B1
:10488000EFC00FA5EFC00FBC130764FC930774FCC7
:104890009305070013850700EFC04FA7930700009B
:1048A0002322F4FE2324F4FE232204FE6F00C0071B
:1048B0008347F4FE1386070093050000138581A447
:1048C000EFD01FCA832784FE13850700EFC04FBEB9
:1048D0001305401FEFF09F95032784FE1306000287
:1048E000B7670080938587B313050700EFC00FAA51
:1048F000032784FEB7070100B307F7002324F4FE63
:10490000B767008003C787B39307F00F6316F702FA
:104910008347F4FE93C71700A307F4FE832744FEE2
:10492000938717002322F4FE032744FE9307000118
:10493000E3F0E7F86F00800013000000032744FE57
:1049400093075000631CF700130610009305000046
:10495000138581A4EFD0DFC06F00802A130600000A
:1049600093050000138581A4EFD09FBF6F004029FD
:1049700083C7819A1387070013172700938701883D
:10498000B307F70003A7070023AAE19A23A6019A19
:1049900013000000930744FD1306100093850700E1
:1049A000138501A5EFC09FAB93070500E38407FEC5
:1049B000034744FD93078006631CF70013061000AD
:1049C000B75700809385075C138501A5EFC0DF9D75
:1049D00013000000930744FD1306100093850700A1
:1049E000138501A5EFC09FA793070500E38407FE89
:1049F000034744FD9307E006631CF700130610000D
:104A0000B75700809385875C138501A5EFC0DF99B8
:104A100013000000930744FD130610009385070060
:104A2000138501A5EFC09FA393070500E38407FE4C
:104A3000034744FD93073007631CF700130610007B
:104A4000B75700809385C75C138501A5EFC0DF953C
:104A500013000000930744FD130610009385070020
:104A6000138501A5EFC09F9F93070500E38407FE10
:104A7000034744FD93071006631CF700130610005C
:104A8000B75700809385075D138501A5EFC0DF91BF
:104A900013000000930744FD1306100093850700E0
:104AA000138501A5EFC09F9B93070500E38407FED4
:104AB000034744FD93075006631CF70013061000DC
:104AC000B75700809385475D138501A5EFC0DF8D43
:104AD00013000000930744FD1306100093850700A0
:104AE000138501A5EFC09F9793070500E38407FE98
:104AF00013061000B75700809385075C138501A546
:104B0000EFC09F8A13061000B75700809385875D1A
:104B1000138501A5EFC05F89232004FE6F004004C8
:104B200013000000930744FD13061000938507004F
:104B3000138501A5EFC09F9293070500E38407FE4C
:104B4000832704FE034744FD930604FFB387F60062
:104B5000238CE7FC832704FE938717002320F4FEB1
:104B6000032704FE93078000E3FCE7FA930784FC25
:104B700013850700EFF0DFB81307050023A8E19ABB
:104B800013061000B75700809385075C138501A5B5
:104B9000EFC09F81B7150000B7770080138587B6F7
:104BA000EFF08FFA93070500232EF4FC8327C4FD52
:104BB000638C07008327C4FD93850700B7770080C7
:104BC000138587B6EFF09FBC8347F4FE93C71700A9
:104BD000A307F4FE8347F4FE138607009305100035
:104BE000138581A4EFD0DF978327C4FDE39407FAF0
:104BF00083C7819A9387170013F7F70F2384E19AED
:104C000083C7819AE38607D603C7819A930710006A
:104C1000631AF7001306100093051000138581A492
:104C2000EFD01F9437F57F00EFC08F931305401F1F
:104C3000EFF0CFDF130640009385019B37F57F002F
:104C4000EFC08FB8130000008320C1030324810349
:104C50001301010467800000130101EB23261114E6
:104C60002324811413040115232004FE83A7018843
:104C7000232EF4FCB75700809385C75D138501A5EB
:104C8000EFC0DF90EFB0DFE4EFB0DFFB130764FDB0
:104C9000930774FD9305070013850700EFB01FE726
:104CA000130640009385019B37F57F00EFB01FEEA0
:104CB00083A7019B938707FA2326F4FE232004FE93
:104CC0006F00C002032704FEB7070180B307F70097
:104CD00013870700B7575555938757552320F7007B
:104CE000832704FE938747002320F4FE032704FE56
:104CF00083A7019BE368F7FC8325C4FE13054000EE
:104D0000EFE08FA1930705002324F4FE232C04FC7D
:104D10006F00C0040327C4FD13060008B7670080B6
:104D2000938587B313050700EFB05FE6930500088E
:104D3000B7670080138587B3EFE04FA293070500A4
:104D40002324F4FE8327C4FD93870708232EF4FC55
:104D5000832784FD93871700232CF4FC8327C4FE4C
:104D600013D77700832784FDE3E6E7FA8327C4FEA1
:104D700093F7F707638207040327C4FD8327C4FE64
:104D800093F7F70713860700B7670080938587B30B
:104D900013050700EFB09FDF8327C4FE93F7F707E3
:104DA00093850700B7670080138587B3EFE00F9BFB
:104DB000930705002324F4FE138581AAEFE0CF9D1D
:104DC000930705002324F4FE832784FE638C0700E9
:104DD00013066001B75700809385C761138501A54D
:104DE000EFC08FDC9307C00D2313F4FE232804FCCF
:104DF000930704ED13070010130607009305000046
:104E000013850700EF004064835764FE13F5F70F26
:104E1000930604ED130604FD930700001307C00F6B
:104E200093050000EFC01F84930705002324F4FEC0
:104E3000832784FE639C071613068002B757008001
:104E400093854763138501A5EFC00FD6930704ED43
:104E5000938707021306000393850700138581B02B
:104E6000EF000051930704ED938707051306000335
:104E700093850700138581ADEF00804F9305C00037
:104E8000138581B0EFF04FA19305C000138581B069
:104E9000EFF00F939305C000138581ADEFF0CF9F26
:104EA0009305C000138581ADEFF08F9103A70188B2
:104EB0008327C4FE3307F70013060003B78700807B
:104EC000938587B613050700EFB05FCC03A7018871
:104ED0008327C4FEB307F7001387070313060003F5
:104EE000B7770080938587B313050700EFB01FCA1B
:104EF0009305C000B7870080138587B6EFF0CF9980
:104F00009305C000B7870080138587B6EFF04F8BFD
:104F10009305C000B7770080138587B3EFF0CF9774
:104F20009305C000B7770080138587B3EFF04F89F2
:104F3000232A01009307C0002328F1009387C19121
:104F40002326F1009387C18E2324F1002322010040
:104F5000B7570080938747592320F1009388019524
:104F6000B7770080138887B3B7870080938787B6A9
:104F7000138781AD938681B01386C18B9385C188D9
:104F8000138581AAEFE04F8B930705002324F4FEDD
:104F900013051000EFE08F86930705002324F4FE2D
:104FA000832784FE6398070C6F00000213067002CB
:104FB000B75700809385C765138501A5EFC0CFBEA5
:104FC000930710006F00802413069002B7570080EB
:104FD00093854768138501A5EFC00FBD231204FE1A
:104FE000EFF04FA8B7870080938787B92388070021
:104FF000938781A5130704ED93060002138606002C
:105000009305070013850700EF00803683A701880A
:10501000232EF4FC0327C4FD13060001938581A70A
:1050200013050700EFB09FB693080001138881A80D
:10503000938781A713071000B7860080938686B9EF
:1050400013062000938581A513053000EFE0DFC72C
:10505000930705002324F4FE13051000EFD01FFA78
:10506000930705002324F4FE832784FE638A070444
:105070006F00400313065002B75700809385076BFB
:10508000138501A5EFC04FB21306B003B7570080D8
:105090009385876D138501A5EFC00FB193071000AD
:1050A0006F00C01613069001B757008093854771B3
:1050B000138501A5EFC04FAF930710006F000015D7
:1050C000232C04FC6F004003032784FD832684FD0A
:1050D000B7070180B387F60093860700938781A8FE
:1050E000B307F70083C707002380F600832784FDFA
:1050F00093871700232CF4FC032784FD9307F0000B
:10510000E3F4E7FC930700012320F4FE6F00C00DD9
:105110000327C4FD832704FE3307F70013060001AD
:10512000938581A713050700EFB05FA693080001E0
:10513000138881A8938781A713071000B786008082
:10514000938686B913062000938581A51305300048
:10515000EFE09FB7930705002324F4FE130510002A
:10516000EFD0DFE9930705002324F4FE832784FEB4
:105170006380070213069001B7570080938547713B
:10518000138501A5EFC04FA2930710006F00000820
:10519000232C04FC6F00C003032784FD832604FE38
:1051A000832784FDB386F600B7070180B387F60036
:1051B00093860700938781A8B307F70083C707008A
:1051C0002380F600832784FD93871700232CF4FCAB
:1051D000032784FD9307F000E3F0E7FC832704FE38
:1051E000938707012320F4FE832704FE0327C4FED0
:1051F000E3E0E7F213065002B75700809385077388
:10520000138501A5EFC04F9A93070000138507008F
:105210008320C11403248114130101156780000049
:10522000130101EE232E1110232C811013040112FF
:10523000930610001306A003B7050060138501A5AF
:10524000EFC08F8437350060EFC04FBFEFD09FB203
:10525000EFE0DFF0130000009307C4EE1306100028
:1052600093850700138501A5EFC04F9F93070500A5
:10527000E38407FE8347C4EE13071003638AE70243
:10528000130710036348F70013070003638EE7005A
:105290006F008009130720036380E70213073003C0
:1052A000638EE7026F004008EFF04FD76F00C00732
:1052B000EFF09F9A6F004007B7570080938587757E
:1052C000138501A5EFC08FACB70701809385470018
:1052D00037050180EF0080056F000005EFF0DF97D4
:1052E00093070500A307F4FE8347F4FE63940702C7
:1052F000B757008093858775138501A5EFC00FA967
:10530000B70701809385470037050180EF00000251
:105310006F004001B757008093854779138501A539
:10532000EFC0CFA6130000006FF0DFF2130101FE03
:10533000232E1100232C8100130401022326A4FE36
:105340002324B4FEEFB00F8DEFE05FE173504030E7
:10535000B70001800F1000006780000013000000FC
:105360008320C10103248101130101026780000031
:10537000B3C7A50093F737003307C500639607004E
:105380009307300063E2C70293070500637CE50AD8
:1053900083C605009387170093851500A38FD7FE5A
:1053A000E3E8E7FE67800000937635009307050089
:1053B000638E060083C6050093871700938515004A
:1053C000A38FD7FE93F637006FF09FFE9376C7FF4B
:1053D000138606FE63F4C70683A3050083A2450077
:1053E00083AF850003AFC50083AE050103AE450161
:1053F00003A3850183A8C5019385450223A07700F7
:1054000003A8C5FF23A2570023A4F70123A6E701A1
:1054100023A8D70123AAC70123AC670023AE170135
:105420009387470223AE07FF6FF0DFFA03A605005C
:10543000938747009385450023AEC7FEE3E8D7FE78
:10544000E3E8E7F4678000001303F00013070500AA
:10545000637EC3029377F7006390070A639205089F
:10546000937606FF1376F600B386E6002320B70096
:105470002322B7002324B7002326B7001307070110
:10548000E366D7FE6314060067800000B306C340DE
:105490009396260097020000B38656006780C600E8
:1054A0002307B700A306B7002306B700A305B7007C
:1054B0002305B700A304B7002304B700A303B70074
:1054C0002303B700A302B7002302B700A301B7006C
:1054D0002301B700A300B7002300B70067800000D6
:1054E00093F5F50F93968500B3E5D50093960501E6
:1054F000B3E5D5006FF0DFF6939627009702000022
:10550000B386560093820000E78006FA938002007B
:10551000938707FF3307F7403306F600E378C3F6B7
:105520006FF0DFF30000000000000000000000004A
:1055300068656C6C6F000000882800801C28008063
:105540002C2800803C2800804C28008060280080A7
:1055500074280080FC280080C4280080CC280080AB
:10556000D8280080E4280080F0280080782C008073
:10557000002C0080142C0080282C00803C2C008003
:10558000502C0080642C0080B80C0000200D00001E
:10559000980D0000200E0000E80E0000050000003D
:1055A00007000000080000000C00000010000000D0
:1055B0000700000008000000010000006200000079
:1055C000610000006E000000640000006800000040
:1055D0006B000000720000007A0000000A0D4170AC
:1055E000706C69636174696F6E20636F7079696E46
:1055F0006720746F204444522066726F6D205350B0
:105600004920666C61736820697320696E2070722E
:105610006F67726573732E2E2E0A0D000D0A2048D7
:10562000617368696E67204661696C65642E200D40
:105630000A0000000D0A204B6579732072657472B0
:10564000696576616C2066726F6D20734E564D20D1
:105650007375636365737366756C2E000D0A204B5A
:105660006579732072657472696576616C20667203
:105670006F6D20734E564D206661696C65642E20F7
:105680000D0A00000D0A205369676E61747572651A
:1056900020766572696669636174696F6E207375DF
:1056A000636365737366756C2E200D0A000000003D
:1056B0000D0A205369676E61747572652076657294
:1056C000696669636174696F6E206661696C65649F
:1056D0002E200D0A000000000D0A20566572696632
:1056E0007920746865204B65797320616E6420723F
:1056F0006573746172742074686520736563757274
:105700006520626F6F742070726F63657373212000
:105710000D0A00000D0A2044656372797074696F88
:105720006E204661696C65642E200D0A0000000041
:105730004170706C69636174696F6E206465637237
:10574000797074696F6E20636F6D706C65746564D9
:1057500021200D0A000000004170706C69636174C3
:10576000696F6E20457865637574696F6E20636F2D
:105770006E74726F6C2077696C6C20626520747235
:10578000616E7366657272656420746F2044445262
:105790000A0D00004572726F7220696E20417070B0
:1057A0006C69636174696F6E2041757468656E74AD
:1057B00069636174696F6E206F72204465637279EA
:1057C0007074696F6E2E2052657374617274205309
:1057D000656375726520426F6F742050726F6365E8
:1057E0007373210A0D00000000000000000000009B
:0457F00000000000B5
:0457F40000000000B1
:0457F80000000000AD
:10580000BC060080DC060080FC0600801C070080CF
:105810003C0700805C0700807C0700809C070080BC
:10582000BC070080DC070080FC0700801C080080AB
:105830003C0800805C0800807C0800809C08008098
:10584000BC080080DC080080FC0800801C09008087
:105850003C0900805C0900807C0900809C09008074
:10586000BC090080DC090080FC0900801C0A008063
:105870003C0A00805C0A00807C0A00809C0A008050
:10588000001000000000A00000004001B70A76727E
:10589000385E543A6C2955BF5DF20255382A54825D
:1058A000E041F759989BA78B623B1D6E74AD20F3C6
:1058B0001EC7B18E37058BBE22CA87AA5F0EEA903B
:1058C0007C1D437A9D817E1DCEB1600AC0B8F0B5C3
:1058D0001331DAE97C149A28BD1DF4F829DC929280
:1058E000BF989E5D6F2C26964ADE17367329C5CC6D
:1058F0006A19ECEC7AA7B048B20D1A58DF2D37F4CC
:10590000814D63C7FFFFFFFFFFFFFFFFFFFFFFFFAB
:10591000FFFFFFFFFFFFFFFFFFFFFFFF8DD63A33C3
:1059200095E6131385584FB74DF2E5A720D2C80B63
:105930007EB29C3800000000000000000000000063
:105940000000000000000000000000000100000056
:10595000EF2AECD3EDC8852A9DD12E8A8D3956C603
:105960005A8713508F081403124181FE6E9C1D1834
:10597000192DF8E36B058E98E4E73EE2A72F31B3CB
:040000058000000077
:00000001FF
