:100000006F0000486F00C007000000000000000003
:10001000F1A000000000000000000000000000004F
:1000200009A2000000000000000000000000000025
:1000300025AA0000000000000000000000000000F1
:1000400000000000ADA2000075A20000000000004A
:1000500000000000000000000000000000000000A0
:1000600000000000D9AA000021AC0000A9AC0000EB
:1000700071AC0000F9AC000005A60000000085A6E8
:1000800019710100130000001300000013000000AC
:1000900006C00AC20EC412C616C81ACA1ECC22CE88
:1000A00026D02AD22ED432D636D83ADA3EDC42DEF8
:1000B000C6C0CAC2CEC4D2C6D6C8DACADECCE2CE68
:1000C000E6D0EAD2EED4F2D6F6D8FADAFEDC732520
:1000D0002034F3251034EF00A05BA9A6197106C0E7
:1000E0000AC20EC412C616C81ACA1ECC22CE26D008
:1000F0002AD22ED432D636D83ADA3EDC42DEC6C018
:10010000CAC2CEC4D2C6D6C8DACADECCE2CEE6D0E7
:10011000EAD2EED4F2D6F6D8FADAFEDCEF000056D8
:1001200011A6197106C00AC20EC412C616C81ACA90
:100130001ECC22CE26D02AD22ED432D636D83ADAC7
:100140003EDC42DEC6C0CAC2CEC4D2C6D6C8DACAF7
:10015000DECCE2CEE6D0EAD2EED4F2D6F6D8FADAA7
:10016000FEDCEF00E04D7DAC197106C00AC20EC482
:1001700012C616C81ACA1ECC22CE26D02AD22ED417
:1001800032D636D83ADA3EDC42DEC6C0CAC2CEC467
:10019000D2C6D6C8DACADECCE2CEE6D0EAD2EED4F7
:1001A000F2D6F6D8FADAFEDCEF00E055A5AC19710C
:1001B00006C00AC20EC412C616C81ACA1ECC22CE67
:1001C00026D02AD22ED432D636D83ADA3EDC42DED7
:1001D000C6C0CAC2CEC4D2C6D6C8DACADECCE2CE47
:1001E000E6D0EAD2EED4F2D6F6D8FADAFEDCEF00A8
:1001F000C0510DAC197106C00AC20EC412C616C891
:100200001ACA1ECC22CE26D02AD22ED432D636D826
:100210003ADA3EDC42DEC6C0CAC2CEC4D2C6D6C8B6
:10022000DACADECCE2CEE6D0EAD2EED4F2D6F6D806
:10023000FADAFEDCEF00404DF5A2197106C00AC2E1
:100240000EC412C616C81ACA1ECC22CE26D02AD276
:100250002ED432D636D83ADA3EDC42DEC6C0CAC226
:10026000CEC4D2C6D6C8DACADECCE2CEE6D0EAD256
:10027000EED4F2D6F6D8FADAFEDCEF00E0495DA261
:10028000197106C00AC20EC412C616C81ACA1ECCFC
:1002900022CE26D02AD22ED432D636D83ADA3EDC36
:1002A00042DEC6C0CAC2CEC4D2C6D6C8DACADECC06
:1002B000E2CEE6D0EAD2EED4F2D6F6D8FADAFEDC16
:1002C000EF00604585A2197106C00AC20EC412C6AD
:1002D00016C81ACA1ECC22CE26D02AD22ED432D686
:1002E00036D83ADA3EDC42DEC6C0CAC2CEC4D2C676
:1002F000D6C8DACADECCE2CEE6D0EAD2EED4F2D666
:10030000F6D8FADAFEDCEF00E04029AA197106C03F
:100310000AC20EC412C616C81ACA1ECC22CE26D0D5
:100320002AD22ED432D636D83ADA3EDC42DEC6C0E5
:10033000CAC2CEC4D2C6D6C8DACADECCE2CEE6D0B5
:10034000EAD2EED4F2D6F6D8FADAFEDCEF00603C60
:10035000D1A8197106C00AC20EC412C616C81ACA9C
:100360001ECC22CE26D02AD22ED432D636D83ADA95
:100370003EDC42DEC6C0CAC2CEC4D2C6D6C8DACAC5
:10038000DECCE2CEE6D0EAD2EED4F2D6F6D8FADA75
:10039000FEDCEF00E03779A0197106C00AC20EC476
:1003A00012C616C81ACA1ECC22CE26D02AD22ED4E5
:1003B00032D636D83ADA3EDC42DEC6C0CAC2CEC435
:1003C000D2C6D6C8DACADECCE2CEE6D0EAD2EED4C5
:1003D000F2D6F6D8FADAFEDCEF006033A1A019718C
:1003E00006C00AC20EC412C616C81ACA1ECC22CE35
:1003F00026D02AD22ED432D636D83ADA3EDC42DEA5
:10040000C6C0CAC2CEC4D2C6D6C8DACADECCE2CE14
:10041000E6D0EAD2EED4F2D6F6D8FADAFEDCEF0075
:10042000E02E09A082401241A2413242C242524310
:10043000E243724482541255A2553256C256525764
:10044000E257725886481649A649364AC64A564B5C
:10045000E64B764C865C165DA65D365EC65E565FE4
:10046000E65F09617300203000000000000000001A
:10047000000000000000000000000000000000007C
:10048000735000307350403097000000938080B765
:10049000B7C200029382C2FF23A00200F3221030F1
:1004A00093F2120063940202F322503093F232006E
:1004B0000543639D6200F322503093F2C2FF17039D
:1004C0000000130363B46396620439A0970200002E
:1004D000938282B37390523017170000130787C2BC
:1004E00097470000938707B217480000130888B2A7
:1004F0006308F7006386070197000000E780200883
:1005000097410000938101303120138101C76F00B2
:10051000401F02908682938701821388018763833C
:10052000070135289387018113880182638A0701B7
:100530003D20938701871388018763830701052086
:1005400017170000130707BD9387018113880181E6
:100550006305F700638307010D2096808280636F37
:10056000F802B368F80093F838006349100323A039
:1005700007009107E3CD07FF82806361F802B3684B
:10058000F80093F83800634B10018328070023A07C
:10059000170191071107E3CA07FF11A001A082808C
:1005A000411102C402C6B7C7000283A6C7FF36C402
:1005B00083A687FF36C603A6C7FFA246E317D6FE6B
:1005C00083A5C7FF3245410182800111B757000260
:1005D0004AC803A90700814622CC4A8626CA4EC6CD
:1005E00052C406CEAA892E8AC52923A8A18023AA8F
:1005F000B180AA842E8463150A00054563EA2903A5
:1006000037490002FD572322F900593F2695232040
:10061000A9007937269533359500A2952E9523228A
:10062000A90093070008F3A74730F367043001459A
:10063000F2406244D2444249B249224A0561828072
:10064000411106C622C426C24AC037440002FD57E3
:100650005CC0B9379387018103A90700C4434A9559
:1006600008C03D3F4A9533352501A6952E9548C0D3
:100670002244B24092440249410145AE411106C6AE
:10068000452619671C53B240F59B1CD3410182805B
:10069000635505069317150085830D476393E7009F
:1006A000F1BF1D476393E70061BF2D476393E700E8
:1006B00099A861476393E70085A065476393E700C6
:1006C00099A869476393E700B1A06D476393E7007A
:1006D00089A071476393E70025A875476393E700F6
:1006E0003DA079476393E70015A041476393E70076
:1006F00029A845476393E70001A84111050506C6EF
:10070000292889AE82808280828082808280828055
:100710008280828082808280828001A0F3670430A0
:1007200082800CC1828008418280368E331EBE00DA
:10073000337ECE0003230500B28393C3F3FF3373EC
:1007400073003363C3012320650082800841718DEB
:100750003355B50082802310B50082800315050053
:100760008280368E331EBE00337ECE00031305001A
:10077000B28393C3F3FF337373003363C301231056
:100780006500828003150500718D3355B5008280A8
:100790002300B5008280030505008280368E331E5B
:1007A000BE00337ECE0003030500B28393C3F3FF84
:1007B000337373003363C301230065008280030534
:1007C0000500718D3355B500828025C59D4763E2D4
:1007D000D7068967637FF604011122CC4AC83284A8
:1007E0002E8926CA9375F60FAA84158413058900ED
:1007F00006CE4EC61374847FB689593F1305C900CF
:10080000B365340171371305090123A02401613751
:10081000098911E923820400F2406244D24442492A
:10082000B2490561828088401105B537884041058D
:10083000F9BF8280011106CE22CC26CA4AC84EC614
:1008400029CDAE89B9C9B28419CE2A84084101499B
:100850004105913783474400C98F2302F400098979
:100860001DCD631A9900F240624426854249D24464
:10087000B2490561828008401105313FB3872901E3
:100880002380A7000840050941053137834744000C
:10089000C98F2302F4000989E1B78144E9B7CA840A
:1008A000D9B71DC995C9411122C426C206C6AA845A
:1008B0002E848347040091E7B240224492444101D0
:1008C000828088404105C13D058965DD834504007E
:1008D00088400504753DF1BF8280411122C42A84FD
:1008E00026C24AC006C60CC0AE8450C11389050892
:1008F000268581459104693DE39C24FF5C400547C2
:100900006380E702A1C30947639BE70608402244CE
:10091000B24092440249FD5513050508410111B545
:100920000840C1649385F4FF130505082D35084080
:100930002244B24002499385F4FF924413054508CE
:10094000410111BD08409305F00F130505088935D5
:1009500008409305F00F130545081D3D0840930519
:10096000F00F130585082D3508402244B24092440B
:1009700002499305F00F1305C508410111BDB240AE
:10098000224492440249410182805C41411122C4C7
:1009900026C206C605472A84AE84638EE70085CF4B
:1009A0000947639AE70608412244B240924413057E
:1009B000050A4101BDB30841C205C1811305050AFD
:1009C000593B08402244B24093D504019244130598
:1009D000450A410149B3084193F5F50F1305050A8E
:1009E000453B084093D5840093F5F50F1305450A60
:1009F0004533084093D5040193F5F50F1305850A97
:100A0000413B08402244B24093D5840192441305EF
:100A1000C50A4101B5BBB2402244924441018280E3
:100A200019671C53F59B1CD382809387C18198431F
:100A3000411106C61347F70098C38C4313850186FE
:100A4000A937B240970500009385C542138581867A
:100A5000410181BD411185466946B7050071138585
:100A6000818606C622C426C24AC085339737000055
:100A7000938747598C431385818625350946B705E9
:100A8000007513850186913D814513850186F53DED
:100A90007131B7070007F3A7473037F5FA0213059E
:100AA000050881451D36938401821384818613894C
:100AB000818113060004938501822285A53B238C46
:100AC000A1808347090093F7F70FE5D7A685228514
:100AD000C93B238C0180F1BFB687B2882A832E8858
:100AE000639D061463F9C50A4167636EE61AB7078A
:100AF00000016363F63493568601E147170700004F
:100B000013074750369703470700BA9713070002A9
:100B10001D8F19CB3398E500B357F500B318E600E5
:100B200033E807013313E50013D608013355C80233
:100B300093960801C182935703013377C802B385A6
:100B4000A60242073368F700637AB8004698930715
:100B5000F5FF636418016367B8303E853308B84019
:100B60003357C8024203135303013378C802B386D4
:100B7000E602420833686800637BD8004698930712
:100B8000F7FF6365180179176363D8003E87420554
:100B9000598D8145828001E60547B358C7024167F8
:100BA00063EAE80EB707000163ECF82893D68801E2
:100BB000E147170700001307E7443697834607000D
:100BC000BE9693070002958FE5EB939E080133874D
:100BD000154113DF080193DE0E018545935703018C
:100BE0003355E7033377E703B306D5034207D98FBD
:100BF00063FAD700C6971307F5FF63E4170163E6AE
:100C0000D7263A85958F33D7E70342031353030161
:100C1000B3F7E703B30ED703C207B3E7670063FB7D
:100C2000D701C6979306F7FF63E51701791763E3CA
:100C3000D70136874205598D828063E2D504C167AA
:100C400063E2F604B707000163E4F61E13D78601DA
:100C50006148970700009387E73ABA9703C70700F0
:100C6000130E00024297330EEE40631A0E0C63ED32
:100C7000B61C3335C500134515008145828081457A
:100C8000014582809307F00F63F3D71C13D78600CA
:100C90002148C1B71307F00FC686E37C17F193D63E
:100CA0008800A14739B71307F00FB286E378C7E48D
:100CB00093568600A14799B5B398F80033D6D5006E
:100CC00013DF0801335EE6033397F500B356D50012
:100CD000558F939E080193DE0E013313F500935553
:100CE0000701B376E603B387CE03C206CD8E63FB5E
:100CF000F600C6961306FEFF63E4161763F2F616B7
:100D0000791EC6969D8E33D6E60393170701C183DD
:100D1000B3F6E6033385CE02139706015D8F637B3E
:100D2000A70046979307F6FF636817136376A71229
:100D30007916469793150E01098FD18D45B5B35796
:100D4000E600B396C601DD8E33D3E50013DF06015E
:100D5000B357E303939E060193DE0E013398C5015A
:100D60003357E50033680701935808013316C6016D
:100D70003373E303B385FE024203B368130163FBDD
:100D8000B800B6981387F7FF63EAD80C63F8B80C7D
:100D9000F917B698B388B84033D7E8034208135818
:100DA0000801B3F8E8033383EE02C208B3E5080193
:100DB00063FB6500B6951308F7FF63EDD50863FB89
:100DC00065087917B695C207416FD98F1307FFFFE2
:100DD000B3F6E70093D80701718F4182B38EE60224
:100DE000B3856540B386C60213D80E013387E80287
:100DF000BA96C2963386C80263F3E6007A9693D811
:100E00000601469663E2C5026385C5003E858145BD
:100E1000828041677D17F98EC206B3FEEE0033155E
:100E2000C501F696E374D5FE1385F7FF81458280F0
:100E300013D70601414831BD93560601C1477DB91C
:100E400093D60801C147B5B38145054582803687F1
:100E5000014801B5428785BF3E86E9BDBA871DBFFF
:100E6000328E4DB579154698D5B97915C69759BBC7
:100E70000D0A496E7465726E616C205379737465E6
:100E80006D2054696D657220496E7465727275705B
:100E9000740000000D0A2A2A2A2A2A2A2A2A2A2A23
:100EA0002A2A2A2A2A2A2A2A2A2A2A2A2A2A2A2AA2
:100EB0002A2A2A2A2A2A2A2A2A2A2A2A2A2A2A2A92
:100EC0002A2A2A2A2A2A2A2A2A2A2A2A2A2A2A2A82
:100ED0002A2A2A2A2A2A2A2A2A2A2A2A2A2A2A2A72
:100EE0002A2A2A2A0D0A0A2A2A2A2A2A2A2A2A2ABF
:100EF0002A2A2A2A2A2A2A2A2A2A2A202020204D57
:100F0000692D562053797374656D2054696D65722F
:100F100020426C696E6B79204578616D706C65203C
:100F20002020202A2A2A2A2A2A2A2A2A2A2A2A2A3F
:100F30002A2A2A2A2A2A2A2A2A2A0D0A0A2A2A2A6E
:100F40002A2A2A2A2A2A2A2A2A2A2A2A2A2A2A2A01
:100F50002A2A2A2A2A2A2A2A2A2A2A2A2A2A2A2AF1
:100F60002A2A2A2A2A2A2A2A2A2A2A2A2A2A2A2AE1
:100F70002A2A2A2A2A2A2A2A2A2A2A2A2A2A2A2AD1
:100F80002A2A2A2A2A2A2A2A2A2A2A0D0A0D0A4F16
:100F900062736572766520746865204C45447320E1
:100FA000626C696E6B696E67206F6E207468652075
:100FB000626F6172642E20546865204C4544207035
:100FC00061747465726E206368616E676573206515
:100FD000766572792074696D652061207379737408
:100FE000656D2074696D657220696E7465727275C5
:100FF0007074206F63637572732E0D0A0000000019
:1010000000010202030303030404040404040404AF
:101010000505050505050505050505050505050580
:101020000606060606060606060606060606060660
:101030000606060606060606060606060606060650
:101040000707070707070707070707070707070730
:101050000707070707070707070707070707070720
:101060000707070707070707070707070707070710
:101070000707070707070707070707070707070700
:1010800008080808080808080808080808080808E0
:1010900008080808080808080808080808080808D0
:1010A00008080808080808080808080808080808C0
:1010B00008080808080808080808080808080808B0
:1010C00008080808080808080808080808080808A0
:1010D0000808080808080808080808080808080890
:1010E0000808080808080808080808080808080880
:1010F0000808080808080808080808080808080870
:10110000940E0080000000000000000000000000BD
:040000058000000077
:00000001FF
