:100000006F00101A6F00C008000000000000000020
:100010006F00001100000000000000000000000060
:100020006F008018000000000000000000000000C9
:100030006F00002000000000000000000000000031
:10004000000000006F0040276F00802F00000000BC
:100050000000000000000000000000006F005003DE
:100060006F0080696F0040366F00803E6F00C046B1
:100070006F00004F6F0040576F00805F6F0040704F
:100080006F008078130000001300000013000000D0
:10009000130101F823201100232221002324310021
:1000A0002326410023285100232A6100232C7100BC
:1000B000232E8100232091022322A1022324B102B6
:1000C0002326C1022328D102232AE102232CF10294
:1000D000232E01032320110523222105232431058A
:1000E0002326410523285105232A6105232C710568
:1000F000232E8105232091072322A1072324B10762
:100100002326C1072328D107232AE107232CF1073F
:1001100073252034F3251034EF0010386F00C07FB2
:10012000130101F823201100232221002324310090
:100130002326410023285100232A6100232C71002B
:10014000232E8100232091022322A1022324B10225
:100150002326C1022328D102232AE102232CF10203
:10016000232E0103232011052322210523243105F9
:100170002326410523285105232A6105232C7105D7
:10018000232E8105232091072322A1072324B107D1
:100190002326C1072328D107232AE107232CF107AF
:1001A000EF00D02A6F004077130101F823201100DF
:1001B000232221002324310023264100232851003B
:1001C000232A6100232C7100232E81002320910219
:1001D0002322A1022324B1022326C1022328D10213
:1001E000232AE102232CF102232E010323201105EF
:1001F00023222105232431052326410523285105E7
:10020000232A6105232C7105232E810523209107C4
:100210002322A1072324B1072326C1072328D107BE
:10022000232AE107232CF107EF0090186F00C06E1E
:10023000130101F82320110023222100232431007F
:100240002326410023285100232A6100232C71001A
:10025000232E8100232091022322A1022324B10214
:100260002326C1022328D102232AE102232CF102F2
:10027000232E0103232011052322210523243105E8
:100280002326410523285105232A6105232C7105C6
:10029000232E8105232091072322A1072324B107C0
:1002A0002326C1072328D107232AE107232CF1079E
:1002B000EF0090266F004066130101F82320110023
:1002C000232221002324310023264100232851002A
:1002D000232A6100232C7100232E81002320910208
:1002E0002322A1022324B1022326C1022328D10202
:1002F000232AE102232CF102232E010323201105DE
:1003000023222105232431052326410523285105D5
:10031000232A6105232C7105232E810523209107B3
:100320002322A1072324B1072326C1072328D107AD
:10033000232AE107232CF107EF00901E6F00C05D18
:10034000130101F82320110023222100232431006E
:100350002326410023285100232A6100232C710009
:10036000232E8100232091022322A1022324B10203
:100370002326C1022328D102232AE102232CF102E1
:10038000232E0103232011052322210523243105D7
:100390002326410523285105232A6105232C7105B5
:1003A000232E8105232091072322A1072324B107AF
:1003B0002326C1072328D107232AE107232CF1078D
:1003C000EF00D0156F004055130101F823201100F4
:1003D0002322210023243100232641002328510019
:1003E000232A6100232C7100232E810023209102F7
:1003F0002322A1022324B1022326C1022328D102F1
:10040000232AE102232CF102232E010323201105CC
:1004100023222105232431052326410523285105C4
:10042000232A6105232C7105232E810523209107A2
:100430002322A1072324B1072326C1072328D1079C
:10044000232AE107232CF107EF00100E6F00C04CA8
:10045000130101F82320110023222100232431005D
:100460002326410023285100232A6100232C7100F8
:10047000232E8100232091022322A1022324B102F2
:100480002326C1022328D102232AE102232CF102D0
:10049000232E0103232011052322210523243105C6
:1004A0002326410523285105232A6105232C7105A4
:1004B000232E8105232091072322A1072324B1079E
:1004C0002326C1072328D107232AE107232CF1077C
:1004D000EF00D0056F004044130101F82320110004
:1004E0002322210023243100232641002328510008
:1004F000232A6100232C7100232E810023209102E6
:100500002322A1022324B1022326C1022328D102DF
:10051000232AE102232CF102232E010323201105BB
:1005200023222105232431052326410523285105B3
:10053000232A6105232C7105232E81052320910791
:100540002322A1072324B1072326C1072328D1078B
:10055000232AE107232CF107EF00807D6F00C03BC9
:10056000130101F82320110023222100232431004C
:100570002326410023285100232A6100232C7100E7
:10058000232E8100232091022322A1022324B102E1
:100590002326C1022328D102232AE102232CF102BF
:1005A000232E0103232011052322210523243105B5
:1005B0002326410523285105232A6105232C710593
:1005C000232E8105232091072322A1072324B1078D
:1005D0002326C1072328D107232AE107232CF1076B
:1005E000EF0040756F004033130101F82320110024
:1005F00023222100232431002326410023285100F7
:10060000232A6100232C7100232E810023209102D4
:100610002322A1022324B1022326C1022328D102CE
:10062000232AE102232CF102232E010323201105AA
:1006300023222105232431052326410523285105A2
:10064000232A6105232C7105232E81052320910780
:100650002322A1072324B1072326C1072328D1077A
:10066000232AE107232CF107EF00006D6F00C02A59
:10067000130101F82320110023222100232431003B
:100680002326410023285100232A6100232C7100D6
:10069000232E8100232091022322A1022324B102D0
:1006A0002326C1022328D102232AE102232CF102AE
:1006B000232E0103232011052322210523243105A4
:1006C0002326410523285105232A6105232C710582
:1006D000232E8105232091072322A1072324B1077C
:1006E0002326C1072328D107232AE107232CF1075A
:1006F000EF00C0646F004022130101F823201100B5
:1007000023222100232431002326410023285100E5
:10071000232A6100232C7100232E810023209102C3
:100720002322A1022324B1022326C1022328D102BD
:10073000232AE102232CF102232E01032320110599
:100740002322210523243105232641052328510591
:10075000232A6105232C7105232E8105232091076F
:100760002322A1072324B1072326C1072328D10769
:10077000232AE107232CF107EF00C05A6F00C019AC
:10078000130101F82320110023222100232431002A
:100790002326410023285100232A6100232C7100C5
:1007A000232E8100232091022322A1022324B102BF
:1007B0002326C1022328D102232AE102232CF1029D
:1007C000232E010323201105232221052324310593
:1007D0002326410523285105232A6105232C710571
:1007E000232E8105232091072322A1072324B1076B
:1007F0002326C1072328D107232AE107232CF10749
:10080000EF0040546F004011130101F82320110044
:1008100023222100232431002326410023285100D4
:10082000232A6100232C7100232E810023209102B2
:100830002322A1022324B1022326C1022328D102AC
:10084000232AE102232CF102232E01032320110588
:100850002322210523243105232641052328510580
:10086000232A6105232C7105232E8105232091075E
:100870002322A1072324B1072326C1072328D10758
:10088000232AE107232CF107EF00004C6F00C0087A
:10089000130101F823201100232221002324310019
:1008A0002326410023285100232A6100232C7100B4
:1008B000232E8100232091022322A1022324B102AE
:1008C0002326C1022328D102232AE102232CF1028C
:1008D000232E010323201105232221052324310582
:1008E0002326410523285105232A6105232C710560
:1008F000232E8105232091072322A1072324B1075A
:100900002326C1072328D107232AE107232CF10737
:10091000EF00C0436F00400083200100032141002D
:10092000832181000322C1008322010103234101AD
:10093000832381010324C101832401020325410291
:10094000832581020326C102832601030327410375
:10095000832781030328C103832801040329410459
:1009600083298104032AC104832A0105032B41053D
:10097000832B8105032CC105832C0106032D410621
:10098000832D8106032EC106832E0107032F410705
:10099000832F81071301010873002030000000003D
:1009A000735000307350403097F0FFFF93808065A4
:1009B000B7C200029382C2FF23A00200F3221030CC
:1009C00093F2120063960202F322503093F2320047
:1009D00013031000639E6200F322503093F2C2FFB3
:1009E00017F3FFFF13034362639862046F00000173
:1009F00097F2FFFF938242617390523017270000F5
:100A000013074776972700009387C77517280000BC
:100A1000130848766308F700638607019700000013
:100A2000E7804009973100009381C1F3EF00000196
:100A30001381010F6F00C02C73001000938200001F
:100A4000938701891388018F63840701EF004004B5
:100A50009387018713880189638C0701EF004003A6
:100A60009387018F1388018F63840701EF00400291
:100A70001387018193870181138801876306F7003B
:100A800063840701EF00C0029380020067800000CA
:100A90006364F804B368F80093F83800634E1003F9
:100AA00023A0070093874700E3CC07FF678000007F
:100AB0006364F802B368F80093F83800634E1001DD
:100AC0008328070023A017019387470013074700D7
:100AD000E3C807FF6F0080006F0000006780000020
:100AE0009306000093870187138781871306000010
:100AF00023A2D7002322D70023A0C7002320C700AA
:100B0000930700009306000013080000B758000286
:100B10001383170003AE08003336F3003306D60004
:100B2000639605066374C5076306080023ACF18667
:100B300023AED186B7C7000283A787FF83260700AD
:100B400003274700130510003386D700B337F6009C
:100B5000B387E70023A8C18623AAF186B3E6E6009F
:100B600063840602374700029306F0FF2322D70072
:100B70002320C7002322F70093070008F3A747307C
:100B8000F3670430130500006780000083A70800A6
:100B900013081000B307F540B336F500B385D54010
:100BA0001385070093060600930703006FF05FF6B6
:100BB000130101FF2326110093070008F3B7473004
:100BC000B7C7000283A687FF9387018703A70700A3
:100BD00083A7470013868187938556000325060067
:100BE00003284600B3B6D5001306000063E2D7041D
:100BF0006394F600636EB7026306060023A8E186DD
:100C000023AAF186B74600021306F0FF23A2C6000E
:100C100023A0E60023A2F600EF00806A93070008F5
:100C2000F3A747308320C100130101016780000052
:100C30003306A700B338E600B387070113070600A1
:100C4000B387F800130610006FF05FFA130101FF7D
:100C500023261100EF008065376700008327070215
:100C60008320C10093F7D7FF2320F702130101016E
:100C700067800000F32740F1130505FF1375F50F9A
:100C800013152500972700009387C7253385A700F4
:100C90000323050067000300635A0504B7070080BB
:100CA00013C707FF3377E500630C070093C707FE00
:100CB000B377F500639607001375F50F6FF09FFB90
:100CC00013151500135515009307B0006314F500B4
:100CD0006F008004930730006314F5006FF01FF776
:100CE00093077000631CF5006FF09FEC130101FF88
:100CF0001305150023261100EF0080056780000012
:100D00006F00805F67800000130101FF1305A000E2
:100D100023261100EF00C0036780000067800000F9
:100D20006780000067800000678000006780000027
:100D30006780000067800000678000006780000017
:100D40006FF09FFC678000006780000067800000F4
:100D50006F000000972700009387C74083A7070014
:100D60001387018F3385A700636EE5001387018F1A
:100D7000636AA700172700002326A73E13850700F4
:100D8000678000009307F0FF6FF05FFF13253500C9
:100D9000678000001305F0FF67800000130101FE6B
:100DA000232E11002326B100EF00806963000502A5
:100DB0008325C100B72700001305000023A2F5001A
:100DC0008320C10113010102678000001305F0FFB9
:100DD0006FF01FFF132535001305F5FF6780000036
:100DE0001305F0FF678000001305F0FF6780000027
:100DF000F3670430678000002320B500678000009F
:100E00000325050067800000138E0600331EBE0018
:100E1000337ECE00032305009303060093C3F3FF44
:100E2000337373003363C3012320650067800000C0
:100E3000032505003375C5003355B50067800000F4
:100E40002310B500678000000315050067800000CF
:100E5000138E0600331EBE00337ECE000313050042
:100E60009303060093C3F3FF337373003363C3012B
:100E70002310650067800000031505003375C50069
:100E80003355B500678000002300B500678000007F
:100E90000305050067800000138E0600331EBE00A8
:100EA000337ECE00030305009303060093C3F3FFD4
:100EB000337373003363C301230065006780000050
:100EC000030505003375C5003355B5006780000084
:100ED0006304050A9307700063E0D70AB727000090
:100EE000637CF608130101FE232C810023282101D5
:100EF0001304060013890500232A91009375F60F49
:100F0000930405001354544013058900232E110047
:100F1000232631011374847F93890600EFF0DFF6F6
:100F20001305C900B3653401EFF01FF6130509017D
:100F300023A02401EFF0DFF51375250063120502ED
:100F4000238204008320C101032481018324410101
:100F5000032901018329C1001301010267800000F8
:100F600003A5040013054500EFF09FF203A504005C
:100F7000130505016FF01FFC67800000130101FEDF
:100F8000232E1100232C8100232A910023282101E4
:100F900023263101630C0508938905006388050841
:100FA00093040600630806021304050003250500E8
:100FB0001309000013050501EFF09FED834744007E
:100FC000B367F5002302F4001375250063040506DA
:100FD000631299028320C101032481011385040057
:100FE00003290101832441018329C1001301010266
:100FF000678000000325040013054500EFF05FE95A
:10100000B38729012380A7000325040013091900D1
:1010100013050501EFF0DFE783474400B367F500F0
:101020002302F400137525006FF05FFA93040000AB
:101030006FF05FFA930409006FF0DFF963020506B1
:1010400063800506130101FF232481002322910000
:101050002326110093040500138405008347040030
:10106000639C07008320C100032481008324410086
:10107000130101016780000003A5040013050501A9
:10108000EFF01FE113751500E30805FE834504002A
:1010900003A5040013041400EFF01FDF6FF01FFC22
:1010A00067800000130101FF232481001304050061
:1010B0002322910023202101232611002320B400A4
:1010C000938405002322C5001389050813850400B5
:1010D0009305000093844400EFF01FDBE39824FFA6
:1010E0008327440013071000638AE702638407061E
:1010F00013072000639AE70A0325040003248100F4
:101100008320C10083244100032901009305F0FFDF
:1011100013050508130101016FF01FCE032504001C
:10112000B70401009385F4FF13050508EFF05FD1C4
:1011300003250400032481008320C100032901004A
:101140009385F4FF83244100130545081301010131
:101150006FF01FCF032504009305F00F130505085A
:10116000EFF09FD2032504009305F00F1305450807
:10117000EFF09FD1032504009305F00F13058508B8
:10118000EFF09FD003250400032481008320C100D9
:1011900083244100032901009305F00F1305C508BE
:1011A000130101016FF05FCE8320C1000324810091
:1011B000832441000329010013010101678000001D
:1011C00083274500130101FF23248100232291007E
:1011D0002326110013071000130405009384050053
:1011E0006386E702638E0704130720006396E70A0D
:1011F00003250500032481008320C10083244100CE
:101200001305050A130101016FF01FBF0325050037
:101210009395050193D505011305050AEFF05FC20B
:1012200003250400032481008320C10093D5040119
:10123000832441001305450A130101016FF05FC0CB
:101240000325050093F5F50F1305050AEFF0DFC33D
:101250000325040093D5840093F5F50F1305450A83
:10126000EFF09FC20325040093D5040193F5F50F19
:101270001305850AEFF05FC10325040003248100F4
:101280008320C10093D58401832441001305C50A3E
:10129000130101016FF05FBF8320C10003248100AF
:1012A00083244100130101016780000037670000BB
:1012B0008327070293F7D7FF2320F70267800000F8
:1012C0009387418803A70700130101FF232611001C
:1012D0001347F70023A0E70083A507001385018DBE
:1012E000EFF01FEE8320C10017250000130585C312
:1012F000130101016F00000D130101FF930610009F
:101300001306A001B70500711385818D23261100F6
:10131000232481002322910023202101EFF05FBBD1
:1013200097270000938747E403A50700EF00800993
:1013300013062000B70500751385018DEFF09FD6C9
:10134000930500001385018DEFF09FE7EFF05FAA92
:10135000B7070007F3A7473037F5FA02130505086A
:1013600093050000EFF0CFF7938401891384818DFA
:10137000138901881306000493850189130504006D
:10138000EFF0DFBF2380A1888347090093F7F70FB1
:10139000E38207FE9385040013050400EFF01FCAE3
:1013A000238001886FF01FFD13030500630A060008
:1013B0002300B3001306F6FF13031300E31A06FE1F
:1013C00067800000130101FC232AF1022322B102ED
:1013D0002324C1022326D1022328E102232C010366
:1013E000232E110397270000938747D8232C8100D1
:1013F00003A40700232A9100232E11009304050063
:10140000630A040083278401639607001305040020
:10141000EF00C01883258400930641021386040060
:10142000130504002326D100EF00805C8320C10156
:10143000032481018324410113010104678000001A
:101440006FF0DF94130101FF2324810013040500D2
:1014500013850500930506001386060023A0018E60
:1014600023261100EFF05F989307F0FF631AF50051
:101470009387018E83A70700638407002320F4006D
:101480008320C10003248100130101016780000053
:10149000130101FF232481002326110013040500FA
:1014A0002316B5002317C5002320050023220500BD
:1014B000232405002322050623280500232A0500EE
:1014C000232C050013068000930500001305C505B5
:1014D000EFF09FED97170000938707EC2322F402AB
:1014E00097170000938747F02324F4029717000012
:1014F0009387C7F72326F40297170000938787FC8A
:10150000232084022328F4028320C10003248100C5
:10151000130101016780000097150000938585493C
:101520006F000022130101FF1386F5FF23248100C1
:10153000131416003304C400131424003304C4002D
:101540001314340023202101138905009305440757
:101550002322910023261100EF00C02993040500E7
:101560006300050223200500232225011305C50081
:1015700023A4A4001306840693050000EFF0DFE225
:101580008320C10003248100138504000329010086
:101590008324410013010101678000008327850136
:1015A0006396070A130101FF2326110023248100FB
:1015B00097070000938787F62324F50297270000FA
:1015C000938747B983A7070023240504232605042E
:1015D000232805046316F50093071000232CF5005B
:1015E00013040500EF00C0062322A4001305040025
:1015F000EF0000062324A40013050400EF004005BB
:101600002326A40003254400130600009305400090
:10161000EFF01FE8032584001306100093059000E7
:10162000EFF01FE70325C4001306200093052001F7
:10163000EFF01FE693071000232CF4008320C10075
:10164000032481001301010167800000678000000E
:10165000130101FF972700009387C7AF2322910052
:1016600083A40700232021012326110083A78401DE
:1016700023248100130905006396070013850400E5
:10168000EFF0DFF19384840403A4840083A7440073
:101690009387F7FF63DA070083A7040063800708D6
:1016A00083A404006FF05FFE0317C40063140706F1
:1016B000B707FFFF938717002322040623200400A7
:1016C00023220400232404002326F40023280400FA
:1016D000232A0400232C0400130680009305000035
:1016E0001305C405EFF05FCC232A0402232C040267
:1016F0002324040423260404130504008320C100CA
:101700000324810083244100032901001301010106
:1017100067800000130484066FF09FF79305400074
:1017200013050900EFF01FE023A0A4001304050037
:10173000E31805F69307C0002320F9006FF0DFFBE4
:10174000130101FD2324810223202103232C4101C5
:10175000232A510123286101232671012326110226
:1017600023229102232E3101130A0500938A0500DA
:101770001304850413090000130B1000930BF0FFF2
:10178000631A04028320C1020324810213050900A5
:1017900083244102032901028329C101032A810113
:1017A000832A4101032B0101832BC1001301010393
:1017B0006780000083248400832944009389F9FF13
:1017C00063D60900032404006FF09FFB83D7C40095
:1017D000637EFB008397E400638A770193850400AE
:1017E00013050A00E7800A003369A9009384840680
:1017F0006FF0DFFC130101FE232A91009384350072
:1018000093F4C4FF232E1100232C810023282101EF
:1018100023263101938484009307C00063F4F40607
:101820009304C00063E2B40613090500EF10004101
:101830009387818803A7070013040700631A04062F
:101840009387C18883A70700639A07009305000068
:1018500013050900EF00D02F23A6A188938504006B
:1018600013050900EF00D02E9309F0FF631A350B22
:101870009307C0002320F90013050900EF10403C36
:101880006F000001E3D004FA9307C0002320F500A5
:10189000130500008320C101032481018324410139
:1018A000032901018329C10013010102678000009F
:1018B00083270400B387974063CE07049306B000E4
:1018C00063FAF6002320F4003304F400232094008C
:1018D0006F00000183274400631A870223A4F18864
:1018E00013050900EF10C0351305B4009307440039
:1018F000137585FF3307F540E30E07F83304E40062
:10190000B387A7402320F4006FF0DFF82322F7000D
:101910006FF01FFD13070400032444006FF01FF253
:10192000130435001374C4FFE30285FAB305A44021
:1019300013050900EF00D021E31A35F96FF05FF3CA
:10194000832786009387F7FF2324F60063DC0700D4
:101950000327860163C6E7009307A0006394F500A0
:101960006F00903683270600138505001387170044
:101970002320E6002380B70067800000130101FEEA
:10198000232C8100232A91002328210123263101C1
:1019900023244101232E110013090500938905001A
:1019A00013040600B304D600130AF0FF6316940074
:1019B000130500006F00C001834504001386090071
:1019C00013050900EFF0DFF713041400E31045FFDF
:1019D0008320C101032481018324410103290101E2
:1019E0008329C100032A81001301010267800000DE
:1019F000130101F6232C8108232A910823282109A9
:101A000023263109232E11082324410923225109B9
:101A100023206109232E7107232C8107232A910794
:101A2000930905009384050013090600138406003A
:101A3000630805008327850163940700EFF01FB654
:101A400097170000938707696392F41283A44900F3
:101A500083D7C40093F78700638E071283A704011E
:101A6000638A071293070002A304F102930700039D
:101A7000232201022305F10223268100130B5002C9
:101A8000971A0000938A0A69930B100017ECFF7FE6
:101A9000130C4C57130409008347040063840700A8
:101AA000639E6713B30C244163860C0293860C007B
:101AB000130609009385040013850900EFF01FEC5D
:101AC0009307F0FF6306F52C83264102B386960147
:101AD0002322D10283470400638C072A9307F0FF77
:101AE0001309140023280100232E0100232AF100EA
:101AF000232C0100A30901042324010683450900C6
:101B00001306500013850A00EF100011130419008A
:101B1000832701016318050C13F70701630607000B
:101B200013070002A309E10413F787006306070007
:101B30001307B002A309E104834609001307A002BA
:101B4000638EE60A0327C10113040900930700000E
:101B5000130690008346040093051400938606FD47
:101B60006372D6186396070A6F00000C971700007F
:101B7000938747586396F40083A489006FF05FED64
:101B80009717000093870753E394F4EC83A4C900EC
:101B90006FF01FEC9385040013850900EF005026B9
:101BA000E30205EC1305F0FF8320C109032481093A
:101BB00083244109032901098329C108032A8108D3
:101BC000832A4108032B0108832BC107032C8107BB
:101BD000832C41071301010A6780000013041400DD
:101BE0006FF09FEB330555413395AB00B3E7A7008A
:101BF0002328F100130904006FF05FF00327C100F0
:101C000093064700032707002326D10063460700F9
:101C1000232EE1006F0040013307E04093E72700E7
:101C2000232EE1002328F100034704009307E0027C
:101C30006316F702034714009307A0026316F70C1C
:101C40008327C100130424001387470083A70700DC
:101C50002326E10063C6070A232AF1008345040016
:101C600013063000171500001305454BEF00D07A1E
:101C700063040502971700009387474A3305F54030
:101C800093070004B397A700032501011304140070
:101C90003365F5002328A100834504001306600086
:101CA000171500001305C547130914002304B102DA
:101CB000EF0090766308050E63160C0A03270101F6
:101CC0008327C1001377071063060708938747002F
:101CD0002326F10083274102B38747012322F10223
:101CE0006FF05FDB93172700B387E7009397170028
:101CF0003387D70013840500930710006FF09FE52A
:101D00009307F0FF6FF05FF513041400232A01001E
:101D10009307000013070000130690008346040099
:101D200093051400938606FD6378D600E38807F2D6
:101D3000232AE1006FF09FF293172700B387E70093
:101D4000939717003387D70013840500930710007B
:101D50006FF0DFFC9387770093F787FF9387870007
:101D60006FF01FF71307C10097060000938646C166
:101D700013860400930501011385090097000000F4
:101D8000E70000009307F0FF130A0500E314F5F4E1
:101D900083D7C40093F70704E39607E003254102C5
:101DA0006FF09FE01307C10097060000938646BDC1
:101DB000138604009305010113850900EF00801BC1
:101DC0006FF05FFC130101FD232A510183A7050178
:101DD000930A070003A7850023248102232291028E
:101DE000232E3101232C410123261102232021031C
:101DF000232861012326710193090500138405003E
:101E000093040600138A060063D4E70093070700D3
:101E100023A0F400034734046306070093871700E8
:101E200023A0F4008327040093F7070263880700C8
:101E300083A704009387270023A0F400032904004C
:101E400013796900631E0900130B9401930BF0FFD3
:101E50008327C40003A70400B387E7406342F9085F
:101E6000832704008346340493F70702B336D00077
:101E70006390070C1306340493050A0013850900C8
:101E8000E7800A009307F0FF6308F5068327040044
:101E90001306400003A7040093F767008326C400DD
:101EA000930400006398C700B384E64063D4040041
:101EB0009304000083278400032704016356F7007E
:101EC000B387E740B384F400130900001304A401AE
:101ED000130BF0FF63902409130500006F0000024C
:101EE0009306100013060B0093050A0013850900E2
:101EF000E7800A00631A75031305F0FF8320C1020F
:101F00000324810283244102032901028329C101A0
:101F1000032A8101832A4101032B0101832BC10084
:101F20001301010367800000130919006FF05FF2CD
:101F30003307D40013060003A301C7040347540466
:101F400093871600B307F40093862600A381E70465
:101F50006FF05FF2930610001306040093050A0069
:101F600013850900E7800A00E30865F913091900E1
:101F70006FF05FF6130101FC232C8102232631034D
:101F80002322510323206103232E7101232E1102EA
:101F9000232A91022328210323244103232C810196
:101FA00083C78501938B06009306E006930A05001C
:101FB00013840500130B060093893504638CD7281E
:101FC00063E8F60693063006638CD70A63ECF600E6
:101FD0006380072C930680056388D712130C2404B2
:101FE0006F00400B930640066386D7009306900669
:101FF000E396D7FE832704000326070093F507081E
:1020000093064600638E0508832406002320D7002C
:1020100063D804009307D002B3049040A301F404F2
:10202000171A0000130A4A101309A0006F00C0120B
:10203000930630076384D72663E2F6029306F00620
:10204000638ED70693060007E39AD7F883A70500A7
:1020500093E7070223A0F5006F00400193065007A5
:10206000638ED70493068007E39AD7F69307800719
:10207000A302F404171A0000130A4A0C6F00800927
:1020800083270700138C25049386470083A7070046
:102090002320D7002301F404930710006F000023CE
:1020A0008324060093F707042320D700E38207F672
:1020B0009394040193D404416FF09FF50326040028
:1020C00083260700137506089385460063080500FC
:1020D0002320B70083A406006F0040011376060496
:1020E0002320B700E30806FE83D406001307F0069A
:1020F000171A0000130A4A031309A000639CE7049F
:10210000130980006F000005A382F504171A000070
:10211000130A8A01832704008326070013F60708A1
:1021200083A4060093864600630606102320D7008A
:1021300013F717006306070093E707022320F40054
:1021400013090001639804008327040093F7F7FD47
:102150002320F400A3010404832744002324F40073
:1021600063C80700032704001377B7FF2320E400A8
:1021700063960400138C0900638A0702138C09001C
:102180009305090013850400EF00904E3305AA0063
:1021900083470500130CFCFF930509002300FC0096
:1021A00013850400EF00504863F2240B930780006E
:1021B0006314F9028327040093F71700638E070066
:1021C000032744008327040163C8E7009307000343
:1021D000A30FFCFE130CFCFFB389894123283401B3
:1021E00013870B0093060B001306C1009305040030
:1021F00013850A00EFF01FBD9304F0FF631E950CDA
:102200001305F0FF8320C1030324810383244103CA
:10221000032901038329C102032A8102832A41027F
:10222000032B0102832BC101032C81011301010443
:102230006780000013F607042320D700E30A06EEA8
:102240009394040193D404016FF09FEE930405006E
:102250006FF01FF383A605008327070003A645013F
:1022600013F5060893854700630A05002320B7008D
:1022700083A7070023A0C7006F0080012320B700B9
:1022800093F6060483A70700E38606FE2390C700A3
:1022900023280400138C09006FF09FF483270700A4
:1022A00003A6450093050000938647002320D7002E
:1022B00003AC070013050C00EF00101663060500C1
:1022C000330585412322A400832744002328F400FA
:1022D000A30104046FF0DFF08326040113060C0051
:1022E00093050B0013850A00E7800B00E30A95F0C5
:1022F0008327040093F72700639407048327C10012
:102300000325C400E350F5F0138507006FF09FEF3D
:10231000930610001306090093050B0013850A00AD
:10232000E7800B00E30E35ED938414008327C4008F
:102330000327C100B387E740E3CCF4FC6FF01FFC38
:1023400093040000130994019309F0FF6FF01FFE3E
:10235000130101FF232481001304050013850500E8
:1023600023A0018E23261100EFE0DF9E9307F0FFEC
:10237000631AF5009387018E83A707006384070023
:102380002320F4008320C1000324810013010101F4
:1023900067800000130101FF2324810013840500DE
:1023A0008395E50023261100EF00101A6340050213
:1023B00083274405B387A700232AF4048320C100A0
:1023C0000324810013010101678000008357C400CA
:1023D00037F7FFFF1307F7FFB3F7E7002316F40003
:1023E0006FF0DFFD83D7C500130101FE232C8100B0
:1023F000232A91002328210123263101232E1100B5
:1024000093F70710930405001384050013090600D1
:1024100093890600638A07008395E50093062000F0
:1024200013060000EF00C0628357C40037F7FFFFB8
:102430001307F7FFB3F7E7002316F4008315E40052
:10244000032481018320C10193860900130609003A
:102450008329C1000329010113850400832441015C
:10246000130101026FE01FFE130101FF232481000D
:10247000138405008395E50023261100EF00405DDD
:102480009307F0FF0357C4006312F502B7F7FFFF8D
:102490009387F7FFB3F7E7002316F4008320C1000A
:1024A000032481001301010167800000B7170000B9
:1024B000B367F7002316F400232AA4046FF01FFE6D
:1024C0008395E5006F00C02B130101FE232C8100D2
:1024D000232A910023282101232E110023263101D4
:1024E0009304050013890500130406006308050022
:1024F0008327850163940700EFF04F8A9717000048
:10250000938747BD631EF40A03A444008327840114
:102510002324F4008357C40093F787006386070CD5
:10252000832704016382070C832704010325040029
:102530009379F90F1379F90F3305F5408327440197
:10254000634AF5009305040013850400EF0040463C
:102550006314050A83278400130515009387F7FF8A
:102560002324F40083270400138717002320E400AA
:102570002380370183274401638CA7008357C4005D
:1025800093F71700638E07009307A000631AF90002
:102590009305040013850400EF008041631E0504C9
:1025A0008320C10103248101130509008324410113
:1025B000032901018329C100130101026780000082
:1025C00097170000938707B36316F40003A48400F1
:1025D0006FF0DFF3971700009387C7ADE318F4F2AD
:1025E00003A4C4006FF09FF2930504001385040058
:1025F000EF000001E30A05F21309F0FF6FF05FFA44
:10260000130101FF97170000938747B6232291001B
:1026100083A4070023248100232021012326110005
:102620001309050013840500638A040083A784014D
:102630006396070013850400EFE05FF6971700002C
:10264000938747A96318F40403A444000317C40044
:102650009317070193D7070193F687006394060A3F
:1026600093F60701639C0604930790002320F9006A
:10267000136707042316E4001305F0FF8320C1004D
:102680000324810083244100032901001301010177
:1026900067800000971700009387C7A56316F400B2
:1026A00003A484006FF09FFA97170000938787A018
:1026B000E31EF4F803A4C4006FF05FF993F747003A
:1026C000638C070283254403638C0500930744044D
:1026D0006386F50013050900EF00C056232A0402A3
:1026E0008357C4002322040093F7B7FD2316F40098
:1026F000832704012320F4008357C40093E7870055
:102700002316F40083270401639007028357C40053
:102710001307002093F707286388E7009305040058
:1027200013050900EF0040408357C40013F717005A
:10273000630C07028327440123240400B307F040FD
:10274000232CF4008327040113050000E39807F20B
:102750008317C40013F70708E30207F293E707049F
:102760002316F4006FF05FF193F7270013070000C2
:1027700063940700032744012324E4006FF09FFCC7
:10278000130101FF232481001304050013850500B4
:1027900023A0018E23261100EFE0CFDF9307F0FF87
:1027A000631AF5009387018E83A7070063840700EF
:1027B0002320F4008320C1000324810013010101C0
:1027C0006780000083D7C500130101FE232C810020
:1027D000232A9100232E11002328210123263101D1
:1027E00013F787009304050013840500631E071484
:1027F00003A74500634AE00003A705046346E00021
:10280000130500006F00C0110327C402E30A07FE8E
:1028100003A904009396370123A0040063DE060A8F
:10282000032544058357C40093F74700638E0700D0
:10283000832744003305F54083274403638607005C
:10284000832704043305F5408327C402832504024B
:10285000130605009306000013850400E7800700B7
:102860009307F0FF0357C4006312F50283A6040028
:102870009307D00163E4D70CB70740209387170074
:10288000B3D7D70093F71700638A070A8327040199
:10289000232204002320F4009317370163DC070090
:1028A0009307F0FF6316F50083A704006394070005
:1028B000232AA4048325440323A02401E38205F4EE
:1028C000930744046386F50013850400EF00803706
:1028D000232A04026FF0DFF283250402930610001E
:1028E0001306000013850400E70007009307F0FFBC
:1028F000E31AF5F283A70400E38607F21307D00179
:102900006386E700130760016396E70023A02401B4
:102910006FF01FEF8357C40093E707042316F400FA
:102920008320C10103248101832441010329010182
:102930008329C100130101026780000013670704A7
:102940002316E4006FF0DFFD83A90501E38A09EA9D
:1029500003A9050093F7370023A035013309394156
:10296000130700006394070003A745012324E40034
:10297000E35820E983278402832504029306090093
:102980001386090013850400E7800700634CA0004C
:102990008357C4001305F0FF93E707042316F400E0
:1029A0006FF01FF8B389A9003309A9406FF05FFCED
:1029B00083A70501638A0708130101FE232C810008
:1029C000232E110013040500630C050083278501E5
:1029D000639807002326B100EFE05FBC8325C100A8
:1029E000970700009387076F6392F50283254400E1
:1029F0008397C50063800704130504000324810145
:102A00008320C101130101026FF0DFDB9707000093
:102A10009387476E6396F500832584006FF05FFD12
:102A20009707000093870769E394F5FC8325C400AA
:102A30006FF01FFC8320C1010324810113050000F6
:102A40001301010267800000130500006780000089
:102A5000130101FF232481001304050013850500E1
:102A6000930506001386060023A0018E232611007D
:102A7000EFE04FB69307F0FF631AF5009387018EDE
:102A800083A70700638407002320F4008320C1008C
:102A9000032481001301010167800000130101F884
:102AA000232A9106938405008395E500232C810653
:102AB000232E11061304060063DE050083D7C4002D
:102AC00023A0060093F707086390070493070040CC
:102AD0006F00C003130681012326D100EF00802B75
:102AE0008326C100E34C05FC0327C101B7F70000B2
:102AF000B3F7E70037E7FFFFB387E70093B71700A7
:102B000023A0F6006FF09FFC930700042320F4003D
:102B10008320C10703248107832441071305000094
:102B2000130101086780000083D7C500130101FE6F
:102B3000232C8100232E1100232A91002328210118
:102B400093F7270013840500638807029307740432
:102B50002320F4002328F40093071000232AF40014
:102B60008320C10103248101832441010329010140
:102B700013010102678000009306C1001306810063
:102B800093040500EFF09FF18325810013090500F0
:102B900013850400EFE01FC6631005028317C4000D
:102BA00013F70720E31E07FA93F7C7FF93E7270001
:102BB0002316F4006FF09FF997F7FFFF93870796AE
:102BC00023A4F4028357C4002320A4002328A400D4
:102BD00093E707082316F40083278100232AF400D3
:102BE0008327C100638207028315E4001385040074
:102BF000EF00C01E630A05008357C40093F7C7FFA8
:102C000093E717002316F4008357C4003369F900D3
:102C1000231624016FF0DFF493F5F50F3306C5009A
:102C20006316C50013050000678000008347050098
:102C3000E38CB7FE130515006FF09FFE6780000060
:102C4000678000006380051083A7C5FF130101FFA3
:102C50002324810023261100232291001384C5FF21
:102C600063D407003304F40093040500EFF01FFD64
:102C70009387818883A707006392070223220400B9
:102C800023A48188032481008320C10013850400CC
:102C900083244100130101016FF09FFA6376F4026F
:102CA000832604003307D400639AE70003A70700D4
:102CB00083A747003307D7002320E4002322F40032
:102CC0006FF01FFC9307070003A74700630407008A
:102CD000E37AE4FE83A607003386D70063188602F2
:102CE00003260400B386C60023A0D7003386D7008E
:102CF000E31AC7F80326070003274700B306D600E8
:102D000023A0D70023A2E7006FF0DFF76378C400A9
:102D10009307C00023A0F4006FF0DFF60326040041
:102D2000B306C400631AD7008326070003274700B1
:102D3000B386C6002320D4002322E40023A2870008
:102D40006FF05FF467800000130101FF232481000E
:102D5000130405001385050093050600138606007D
:102D600023A0018E23261100EFE08F879307F0FF49
:102D7000631AF5009387018E83A707006384070019
:102D80002320F4008320C1000324810013010101EA
:102D900067800000130101FF232481001304050054
:102DA000138505009305060023A0018E232611003C
:102DB000EFD0DFFE9307F0FF631AF5009387018ED3
:102DC00083A70700638407002320F4008320C10049
:102DD000032481001301010167800000130101FF3A
:102DE00023248100130405001385050023A0018E10
:102DF00023261100EFD09FF99307F0FF631AF50027
:102E00009387018E83A70700638407002320F400C3
:102E10008320C100032481001301010167800000A9
:102E20006340050663C60506138605009305050085
:102E30001305F0FF630C060293061000637AB600D8
:102E40006358C0001316160093961600E36AB6FE88
:102E50001305000063E6C500B385C5403365D500A2
:102E600093D6160013561600E39606FE6780000000
:102E700093820000EFF05FFB13850500678002007E
:102E80003305A04063D80500B305B0406FF0DFF90B
:102E9000B305B04093820000EFF01FF93305A04066
:102EA000678002009382000063CA0500634C05003E
:102EB000EFF09FF71385050067800200B305B0406F
:102EC000E35805FE3305A040EFF01FF63305B04090
:102ED0006780020000000000000000000000000009
:102EE000200D00801C0D0080240D0080400D00800E
:102EF000400D0080400D0080400D0080280D0080B6
:102F00002C0D0080300D0080340D0080380D0080C5
:102F10003C0D00804C0D0080440D0080480D008069
:102F20000D0A496E7465726E616C20537973746515
:102F30006D2054696D657220496E7465727275708A
:102F4000740000000D0A2A2A2A2A2A2A2A2A2A2A52
:102F50002A2A2A2A2A2A2A2A2A2A2A2A2A2A2A2AD1
:102F60002A2A2A2A2A2A2A2A2A2A2A2A2A2A2A2AC1
:102F70002A2A2A2A2A2A2A2A2A2A2A2A2A2A2A2AB1
:102F80002A2A2A2A2A2A2A2A2A2A2A2A2A2A2A2AA1
:102F90002A2A2A2A0D0A0A2A2A2A2A2A2A2A2A2AEE
:102FA0002A2A2A2A2A2A2A2A2A2A2A202020204D86
:102FB000692D562053797374656D2054696D65725F
:102FC00020426C696E6B79204578616D706C65206C
:102FD0002020202A2A2A2A2A2A2A2A2A2A2A2A2A6F
:102FE0002A2A2A2A2A2A2A2A2A2A0D0A0A2A2A2A9E
:102FF0002A2A2A2A2A2A2A2A2A2A2A2A2A2A2A2A31
:103000002A2A2A2A2A2A2A2A2A2A2A2A2A2A2A2A20
:103010002A2A2A2A2A2A2A2A2A2A2A2A2A2A2A2A10
:103020002A2A2A2A2A2A2A2A2A2A2A2A2A2A2A2A00
:103030002A2A2A2A2A2A2A2A2A2A2A0D0A0D0A4F45
:1030400062736572766520746865204C4544732010
:10305000626C696E6B696E67206F6E2074686520A4
:10306000626F6172642E20546865204C4544207064
:1030700061747465726E206368616E676573206544
:10308000766572792074696D652061207379737437
:10309000656D2074696D657220696E7465727275F4
:1030A0007074206F63637572732E0D0A0000000048
:1030B0000000000000000000000000000000000010
:1030C0000000000000000000000000000000000000
:1030D00000000000000000000000000000000000F0
:1030E00000000000000000000000000000000000E0
:1030F00000000000000000000000000000000000D0
:1031000000000000000000000000000000000000BF
:10311000232D302B20000000686C4C00656667454D
:103120004647000030313233343536373839414282
:1031300043444546000000003031323334353637E1
:1031400038396162636465660000000000000000B9
:04315000703100805A
:1031600050320080442F0080703100800000000049
:1031700000000000D0300080F0300080B0300080CF
:10318000000000000000000000000000000000003F
:10319000000000000000000000000000000000002F
:1031A000000000000000000000000000000000001F
:1031B000000000000000000000000000000000000F
:1031C00000000000000000000000000000000000FF
:040000058000000077
:00000001FF
