:100000006F0000306F00C00400000000000000001E
:100010006F00000D00000000000000000000000064
:100020006F008014000000000000000000000000CD
:100030006F00001C00000000000000000000000035
:100040000000000013000000130000001300000077
:10005000130101F823201100232221002324310061
:100060002326410023285100232A6100232C7100FC
:10007000232E8100232091022322A1022324B102F6
:100080002326C1022328D102232AE102232CF102D4
:10009000232E0103232011052322210523243105CA
:1000A0002326410523285105232A6105232C7105A8
:1000B000232E8105232091072322A1072324B107A2
:1000C0002326C1072328D107232AE107232CF10780
:1000D00073252034F3251034EF0080566F00C019CB
:1000E000130101F8232011002322210023243100D1
:1000F0002326410023285100232A6100232C71006C
:10010000232E8100232091022322A1022324B10265
:100110002326C1022328D102232AE102232CF10243
:10012000232E010323201105232221052324310539
:100130002326410523285105232A6105232C710517
:10014000232E8105232091072322A1072324B10711
:100150002326C1072328D107232AE107232CF107EF
:10016000EF00C0416F004011130101F8232011007E
:10017000232221002324310023264100232851007B
:10018000232A6100232C7100232E81002320910259
:100190002322A1022324B1022326C1022328D10253
:1001A000232AE102232CF102232E0103232011052F
:1001B0002322210523243105232641052328510527
:1001C000232A6105232C7105232E81052320910705
:1001D0002322A1072324B1072326C1072328D107FF
:1001E000232AE107232CF107EF0000306F00C0083D
:1001F000130101F8232011002322210023243100C0
:100200002326410023285100232A6100232C71005A
:10021000232E8100232091022322A1022324B10254
:100220002326C1022328D102232AE102232CF10232
:10023000232E010323201105232221052324310528
:100240002326410523285105232A6105232C710506
:10025000232E8105232091072322A1072324B10700
:100260002326C1072328D107232AE107232CF107DE
:10027000EF00C0326F0040008320010003214100E5
:10028000832181000322C100832201010323410154
:10029000832381010324C101832401020325410238
:1002A000832581020326C10283260103032741031C
:1002B000832781030328C103832801040329410400
:1002C00083298104032AC104832A0105032B4105E4
:1002D000832B8105032CC105832C0106032D4106C8
:1002E000832D8106032EC106832E0107032F4107AC
:1002F000832F8107130101087300203000000000E4
:10030000735000307350403097000000938080CFCE
:10031000F322103093F2120063960202F32250305F
:1003200093F2320013031000639E6200F3225030F8
:1003300093F2C2FF17030000130303CD6398620416
:100340006F00000197020000938202CC739052303C
:1003500017170000130707E997170000938787E82E
:1003600017180000130808E96308F70063860701FF
:1003700097000000E7804009971100009381816693
:10038000EF000001138101506F00C02F73001000B7
:10039000938200009387018A138801906384070188
:1003A000EF004004938701871388018A638C07015B
:1003B000EF00400393870190138801D06384070105
:1003C000EF00400213870181938701811388018721
:1003D0006306F70063840701EF00C0029380020008
:1003E000678000006364F804B368F80093F838008D
:1003F000634E100323A0070093874700E3CC07FF59
:10040000678000006364F802B368F80093F838006E
:10041000634E10018328070023A01701938747002C
:1004200013074700E3C807FF6F0080006F0000005C
:100430006780000093878187130700009306000000
:1004400023A2E70023A0D700130700001308000031
:10045000130330069308170033B6E8003306D600BE
:10046000639205066360A3066306080023ACE18679
:1004700023AED18603A7070003A64700B7C70044F1
:1004800083A787FF13051000B386E700B3B7F60014
:10049000B387C70023A8D18623AAF1863367C70094
:1004A00063000702374700442322F7002320D700C8
:1004B00093070008F3A74730F367043013050000E3
:1004C000678000001307C5F9B336A7009385F5FFD1
:1004D00013050700B385B600130810001387080042
:1004E000930606006FF01FF7130101FF232611008A
:1004F00093070008F3B74730B7C7004483A687FFC8
:100500009387018703A7070083A747001386818786
:10051000938556000325060003284600B3B6D50090
:100520001306000063EED7026394F600636AB70215
:100530006306060023A8E18623AAF186B746004495
:1005400023A2F60023A0E600EF0010109307000896
:10055000F3A747308320C100130101016780000029
:100560003306A700B338E600B38707011307060078
:10057000B387F800130610006FF0DFFA130101FFD4
:1005800023261100EF00900B8320C100B707004421
:1005900023A007001301010167800000130101FF80
:1005A00023261100232481002322910023202101EE
:1005B000732440F1B70400401314C4003384840052
:1005C000B70720003304F40003294400630E090434
:1005D00013172900971700009387C79CB387E7007C
:1005E00083A70700E7800700930710002322240158
:1005F000631CF502732740F19357590013175700F6
:10060000B387E70093972700B384F400B72700006F
:10061000B384F40083A70400331525011345F5FFC7
:100620003375F50023A0A4008320C10003248100BA
:1006300083244100032901001301010167800000A8
:100640006358050213151500135515009307B000E4
:100650006314F5006FF09FF4930730006314F50006
:100660006FF0DFF193077000631CF5006FF0DFE7B8
:10067000130101FF1305150023261100EF0040218F
:10068000678000006F001000678000001305000005
:10069000678000001305000067800000130500005C
:1006A000678000001305000067800000130500004C
:1006B000678000001305000067800000130500003C
:1006C000678000001305000067800000130500002C
:1006D000678000001305000067800000130500001C
:1006E000678000001305000067800000130500000C
:1006F00067800000130500006780000013050000FC
:1007000067800000130500006780000013050000EB
:1007100067800000130500006780000013050000DB
:1007200067800000130500006780000013050000CB
:1007300067800000130500006780000013050000BB
:1007400067800000130500006780000013050000AB
:10075000678000001305000067800000130500009B
:10076000678000001305000067800000130500008B
:10077000678000001305000067800000130500007B
:100780006780000013050000678000009387818860
:1007900083A70700130101FE232E11002326A100C9
:1007A00063900702930610001306A001B7150070AE
:1007B00013850188EF0080239307100023A4F1889C
:1007C0009305C1001385018813061000EF00C02CAB
:1007D0008320C1010325C1001301010267800000CD
:1007E000130101FD232E310113062000938905001A
:1007F0009715000093850585232481022322910209
:1008000023202103232C4101232A510123261102F5
:10081000130905001304C001EF008071130AF000F2
:10082000930A90009304C0FFB3178A00B3F737010F
:10083000B3D7870093F7F70F63E8FA049387870429
:100840009397870193D78741130610009305F10012
:10085000130509001304C4FFA307F100EF00406D66
:10086000E31494FC8320C102032481028324410207
:10087000032901028329C101032A8101832A41013D
:1008800013010103678000009387B7056FF05FFBDA
:10089000130101FF232481009705000093858578CB
:1008A000130405001306D0011305200023261100B0
:1008B000EF0000689305040013052000EFF05FF2DD
:1008C0006F000000130101FE232C8100232E110074
:1008D0003384C500639C85008320C101032481010A
:1008E000130506001301010267800000038505005F
:1008F0002326C1002324B100EFF05FE983258100A6
:100900000326C100938515006FF0DFFCF367043008
:10091000678000002320B5006780000003250500E4
:1009200067800000138E0600331EBE00337ECE00AB
:10093000032305009303060093C3F3FF337373008F
:100940003363C30123206500678000000325050091
:100950003375C5003355B500678000002310B5001E
:10096000678000000315050067800000138E0600F5
:10097000331EBE00337ECE00031305009303060032
:1009800093C3F3FF337373003363C3012310650014
:1009900067800000031505003375C5003355B500A9
:1009A000678000002300B500678000000305050094
:1009B00067800000138E0600331EBE00337ECE001B
:1009C000030305009303060093C3F3FF337373001F
:1009D0003363C30123006500678000000305050041
:1009E0003375C5003355B500678000006304050A00
:1009F0009307700063E0D70AB7270000637CF6080E
:100A0000130101FE232C8100232821011304060079
:100A100013890500232A91009375F60F93040500AE
:100A20001354544013058900232E1100232631014D
:100A30001374847F93890600EFF0DFF61305C90075
:100A4000B3653401EFF01FF61305090123A024015B
:100A5000EFF0DFF513752500631205022382040011
:100A60008320C10103248101832441010329010161
:100A70008329C100130101026780000003A504005F
:100A800013054500EFF09FF203A5040013050501CF
:100A90006FF01FFC6780000063080506638605068B
:100AA00063040606130101FF232481002322910021
:100AB00023202101232611001309050013840500BA
:100AC000B384C500631E94008320C1000324810009
:100AD0008324410003290100130101016780000004
:100AE0000325090013050501EFF05FEC13751500F0
:100AF000E30805FE834504000325090013041400E0
:100B0000EFF05FEA6FF01FFC67800000130101FE49
:100B1000232E1100232C8100232A91002328210158
:100B200023263101630C05089389050063880508B5
:100B3000930406006308060213040500032505005C
:100B40001309000013050501EFF05FE68347440039
:100B5000B367F5002302F40013752500630405064E
:100B6000631299028320C1010324810113850400CB
:100B700003290101832441018329C10013010102DA
:100B8000678000000325040013054500EFF01FE215
:100B9000B38729012380A700032504001309190046
:100BA00013050501EFF09FE083474400B367F500AC
:100BB0002302F400137525006FF05FFA9304000020
:100BC0006FF05FFA930409006FF0DFF96302050626
:100BD00063800506130101FF232481002322910075
:100BE00023261100930405001384050083470400A5
:100BF000639C07008320C1000324810083244100FB
:100C0000130101016780000003A50400130505011D
:100C1000EFF0DFD913751500E30805FE83450400E6
:100C200003A5040013041400EFF0DFD76FF01FFCDE
:100C300067800000130101FF2324810013040500D5
:100C40002322910023202101232611002320B40018
:100C5000938405002322C500138905081385040029
:100C60009305000093844400EFF0DFD3E39824FF62
:100C70008327440013071000638AE7026384070692
:100C800013072000639AE70A032504000324810068
:100C90008320C10083244100032901009305F0FF54
:100CA00013050508130101016FF0DFC603250400D9
:100CB000B70401009385F4FF13050508EFF01FCA80
:100CC00003250400032481008320C10003290100BF
:100CD0009385F4FF832441001305450813010101A6
:100CE0006FF0DFC7032504009305F00F1305050817
:100CF000EFF05FCB032504009305F00F13054508C3
:100D0000EFF05FCA032504009305F00F1305850873
:100D1000EFF05FC903250400032481008320C10094
:100D200083244100032901009305F00F1305C50832
:100D3000130101016FF01FC78320C100032481004C
:100D40008324410003290100130101016780000091
:100D500083274500130101FF2324810023229100F2
:100D600023261100130710001304050093840500C7
:100D70006386E702638E0704130720006396E70A81
:100D800003250500032481008320C1008324410042
:100D90001305050A130101016FF0DFB703250500F4
:100DA0009395050193D505011305050AEFF01FBBC7
:100DB00003250400032481008320C10093D504018E
:100DC000832441001305450A130101016FF01FB987
:100DD0000325050093F5F50F1305050AEFF09FBCF9
:100DE0000325040093D5840093F5F50F1305450AF8
:100DF000EFF05FBB0325040093D5040193F5F50FD5
:100E00001305850AEFF01FBA0325040003248100AF
:100E10008320C10093D58401832441001305C50AB2
:100E2000130101016FF01FB88320C100032481006A
:100E3000832441001301010167800000B7070044CB
:100E400023A00700678000009387018903A707009C
:100E5000130101FF232611001347F70023A0E70029
:100E600083A507001385018EEFF09FEE8320C1005C
:100E7000970500009385451D1385818E130101019F
:100E80006FF0DFD4130101FF930610001306A001D9
:100E9000B71500701385818E23261100232481004D
:100EA0002322910023202101EFF05FB49707000077
:100EB0009387473383A507001385818E9384018A26
:100EC000EFF0DFD013062000B75500701385018EB8
:100ED000EFF05FD6930500001385018EEFF05FE71A
:100EE000EFF0DFA237F5FA021305050893050000BD
:100EF000EFF04FD41384818E1389C1881306000448
:100F00009385018A13050400EFF05FC02386A18852
:100F10008347090093F7F70FE38207FE93850400E8
:100F200013050400EFF09FCA238601886FF01FFDB0
:100F3000970700009387472B93060600138605004A
:100F40009305050003A507006F004000130101FF92
:100F50002324810013040500138505009305060072
:100F60001386060023A8018E23261100EFF09F951B
:100F70009307F0FF631AF5009387018F83A707009B
:100F8000638407002320F4008320C1000324810030
:100F90001301010167800000000000000000000054
:100FA0008C060080940600809C060080A4060080C9
:100FB000AC060080B4060080BC060080C406008039
:100FC000CC060080D4060080DC060080E4060080A9
:100FD000EC060080F4060080FC0600800407008018
:100FE0000C070080140700801C0700802407008085
:100FF0002C070080340700803C07008044070080F5
:101000004C070080540700805C0700806407008064
:101010006C070080740700807C07008084070080D4
:101020000A50726F67616D2068617320657869741A
:101030006564207769746820636F64653A00000016
:10104000307800000D0A496E7465726E616C205331
:10105000797374656D2054696D657220496E74658D
:1010600072727570740000000D0A2A2A2A2A2A2A30
:101070002A2A2A2A2A2A2A2A2A2A2A2A2A2A2A2AD0
:101080002A2A2A2A2A2A2A2A2A2A2A2A2A2A2A2AC0
:101090002A2A2A2A2A2A2A2A2A2A2A2A2A2A2A2AB0
:1010A0002A2A2A2A2A2A2A2A2A2A2A2A2A2A2A2AA0
:1010B0002A2A2A2A2A2A2A2A0D0A0A2A2A2A2A2AED
:1010C0002A2A2A2A2A2A2A2A2A2A2A2A2A2A2A208A
:1010D0002020204D692D562053797374656D20545E
:1010E000696D657220426C696E6B79204578616D1F
:1010F000706C65202020202A2A2A2A2A2A2A2A2AB5
:101100002A2A2A2A2A2A2A2A2A2A2A2A2A2A0D0A7C
:101110000A2A2A2A2A2A2A2A2A2A2A2A2A2A2A2A4F
:101120002A2A2A2A2A2A2A2A2A2A2A2A2A2A2A2A1F
:101130002A2A2A2A2A2A2A2A2A2A2A2A2A2A2A2A0F
:101140002A2A2A2A2A2A2A2A2A2A2A2A2A2A2A2AFF
:101150002A2A2A2A2A2A2A2A2A2A2A2A2A2A2A0D0C
:101160000A0D0A4F62736572766520746865204CBB
:1011700045447320626C696E6B696E67206F6E20E8
:1011800074686520626F6172642E20546865204C1B
:101190004544207061747465726E206368616E6787
:1011A00065732065766572792074696D65206120AC
:1011B00073797374656D2074696D657220696E74DE
:1011C000657272757074206F63637572732E0D0A89
:1011D000000000000000000000000000000000000F
:1011E00068100080F0110080000000000000000086
:1011F00000000000000000000000000000000000EF
:1012000000000000000000000000000000000000DE
:1012100000000000000000000000000000000000CE
:1012200000000000000000000000000000000000BE
:1012300000000000000000000000000000000000AE
:10124000000000000000000000000000000000009E
:040000058000000077
:00000001FF
