:100000006F0000546F00C0080000000000000000F6
:10001000F9A0000000000000000000000000000047
:1000200011A200000000000000000000000000001D
:100030002DAA0000000000000000000000000000E9
:1000400000000000B5A200007DA20000000000003A
:1000500000000000000000000000000099A900005E
:1000600041A60000E1AA000029AC0000B1AC0000EC
:1000700079AC0000C5A400000DA600006DA600002C
:10008000F5A600001300000013000000130000009C
:10009000197106C00AC20EC412C616C81ACA1ECCEE
:1000A00022CE26D02AD22ED432D636D83ADA3EDC28
:1000B00042DEC6C0CAC2CEC4D2C6D6C8DACADECCF8
:1000C000E2CEE6D0EAD2EED4F2D6F6D8FADAFEDC08
:1000D00073252034F3251034EF00206C31A91971F9
:1000E00006C00AC20EC412C616C81ACA1ECC22CE38
:1000F00026D02AD22ED432D636D83ADA3EDC42DEA8
:10010000C6C0CAC2CEC4D2C6D6C8DACADECCE2CE17
:10011000E6D0EAD2EED4F2D6F6D8FADAFEDCEF0078
:10012000C064D9AE197106C00AC20EC412C616C880
:100130001ACA1ECC22CE26D02AD22ED432D636D8F7
:100140003ADA3EDC42DEC6C0CAC2CEC4D2C6D6C887
:10015000DACADECCE2CEE6D0EAD2EED4F2D6F6D8D7
:10016000FADAFEDCEF00205941AE197106C00AC26E
:100170000EC412C616C81ACA1ECC22CE26D02AD247
:100180002ED432D636D83ADA3EDC42DEC6C0CAC2F7
:10019000CEC4D2C6D6C8DACADECCE2CEE6D0EAD227
:1001A000EED4F2D6F6D8FADAFEDCEF000064A9A6A7
:1001B000197106C00AC20EC412C616C81ACA1ECCCD
:1001C00022CE26D02AD22ED432D636D83ADA3EDC07
:1001D00042DEC6C0CAC2CEC4D2C6D6C8DACADECCD7
:1001E000E2CEE6D0EAD2EED4F2D6F6D8FADAFEDCE7
:1001F000EF00E05F11A6197106C00AC20EC412C654
:1002000016C81ACA1ECC22CE26D02AD22ED432D656
:1002100036D83ADA3EDC42DEC6C0CAC2CEC4D2C646
:10022000D6C8DACADECCE2CEE6D0EAD2EED4F2D636
:10023000F6D8FADAFEDCEF00605B7DAC197106C01F
:100240000AC20EC412C616C81ACA1ECC22CE26D0A6
:100250002AD22ED432D636D83ADA3EDC42DEC6C0B6
:10026000CAC2CEC4D2C6D6C8DACADECCE2CEE6D086
:10027000EAD2EED4F2D6F6D8FADAFEDCEF00605716
:10028000A5AC197106C00AC20EC412C616C81ACA95
:100290001ECC22CE26D02AD22ED432D636D83ADA66
:1002A0003EDC42DEC6C0CAC2CEC4D2C6D6C8DACA96
:1002B000DECCE2CEE6D0EAD2EED4F2D6F6D8FADA46
:1002C000FEDCEF0020530DAC197106C00AC20EC44B
:1002D00012C616C81ACA1ECC22CE26D02AD22ED4B6
:1002E00032D636D83ADA3EDC42DEC6C0CAC2CEC406
:1002F000D2C6D6C8DACADECCE2CEE6D0EAD2EED496
:10030000F2D6F6D8FADAFEDCEF00E04EF5A219716B
:1003100006C00AC20EC412C616C81ACA1ECC22CE05
:1003200026D02AD22ED432D636D83ADA3EDC42DE75
:10033000C6C0CAC2CEC4D2C6D6C8DACADECCE2CEE5
:10034000E6D0EAD2EED4F2D6F6D8FADAFEDCEF0046
:10035000A04A5DA2197106C00AC20EC412C616C810
:100360001ACA1ECC22CE26D02AD22ED432D636D8C5
:100370003ADA3EDC42DEC6C0CAC2CEC4D2C6D6C855
:10038000DACADECCE2CEE6D0EAD2EED4F2D6F6D8A5
:10039000FADAFEDCEF00604685A2197106C00AC2D7
:1003A0000EC412C616C81ACA1ECC22CE26D02AD215
:1003B0002ED432D636D83ADA3EDC42DEC6C0CAC2C5
:1003C000CEC4D2C6D6C8DACADECCE2CEE6D0EAD2F5
:1003D000EED4F2D6F6D8FADAFEDCEF00204229AAF3
:1003E000197106C00AC20EC412C616C81ACA1ECC9B
:1003F00022CE26D02AD22ED432D636D83ADA3EDCD5
:1004000042DEC6C0CAC2CEC4D2C6D6C8DACADECCA4
:10041000E2CEE6D0EAD2EED4F2D6F6D8FADAFEDCB4
:10042000EF00003DD1A8197106C00AC20EC412C661
:1004300016C81ACA1ECC22CE26D02AD22ED432D624
:1004400036D83ADA3EDC42DEC6C0CAC2CEC4D2C614
:10045000D6C8DACADECCE2CEE6D0EAD2EED4F2D604
:10046000F6D8FADAFEDCEF00A03979A0197106C0DF
:100470000AC20EC412C616C81ACA1ECC22CE26D074
:100480002AD22ED432D636D83ADA3EDC42DEC6C084
:10049000CAC2CEC4D2C6D6C8DACADECCE2CEE6D054
:1004A000EAD2EED4F2D6F6D8FADAFEDCEF00603506
:1004B000A1A0197106C00AC20EC412C616C81ACA73
:1004C0001ECC22CE26D02AD22ED432D636D83ADA34
:1004D0003EDC42DEC6C0CAC2CEC4D2C6D6C8DACA64
:1004E000DECCE2CEE6D0EAD2EED4F2D6F6D8FADA14
:1004F000FEDCEF00203109A082401241A2413242CD
:10050000C2425243E243724482541255A2553256BB
:10051000C2565257E257725886481649A649364A7B
:10052000C64A564BE64B764C865C165DA65D365E3B
:10053000C65E565FE65F0961730020300000000070
:10054000735000307350403097000000938080ABB0
:10055000B7C200029382C2FF23A00200F322103030
:1005600093F2120063940202F322503093F23200AD
:100570000543639D6200F322503093F2C2FF1703DC
:100580000000130363A86396620439A09702000079
:10059000938282A77390523017270000130787A316
:1005A00097470000938707A617480000130888A6FE
:1005B0006308F7006386070197000000E7802008C2
:1005C00097410000938101243120138101CF6F00F6
:1005D000002102908682938701891388018F6383AB
:1005E000070135289387018713880189638A0701EA
:1005F0003D209387018F1388018F638307010520B6
:10060000172700001307079E93870181138801872E
:100610006305F700638307010D2096808280636F76
:10062000F802B368F80093F838006349100323A078
:1006300007009107E3CD07FF82806361F802B3688A
:10064000F80093F83800634B10018328070023A0BB
:10065000170191071107E3CA07FF11A001A08280CB
:10066000814693870187138781870146D4C354C38A
:1006700090C310C3814781460148B75800021383D5
:10068000170003AE08003336F3003696A9E9637805
:10069000C5056306080023ACF18623AED186B7C733
:1006A000000283A787FF1443584305453386D700CC
:1006B000B337F600BA9723A8C18623AAF186D98E4C
:1006C00091CE37470002FD5654C310C35CC3930755
:1006D0000008F3A74730F36704300145828083A701
:1006E00008000548B307F540B336F500958D3E8503
:1006F000B2869A8769B7411106C693070008F3B717
:100700004730B7C7000283A687FF938701879843C6
:10071000DC431386818793855600084203284600F0
:10072000B3B6D500014663E9D7026394F60063656A
:10073000B70209C623A8E18623AAF186B7460002BC
:100740007D56D0C298C2DCC2052993070008F3A7E2
:100750004730B240410182803306A700B338E6003B
:10076000C2973287C69705467DBF411106C6012153
:1007700019671C53B240F59B1CD341018280F327BB
:1007800040F141151375F50F0A059717000093877F
:10079000675C3E95032305000283635D0502B7078E
:1007A000008013C707FF698F01CB93C707FEE98F4E
:1007B00081E71375F50FE1B706050581AD476313B2
:1007C000F50025A08D476313F50045B79D476317D6
:1007D000F50015B74111050506C635208280C1A672
:1007E00082804111294506C6392882808280828014
:1007F0008280828082808280828082808280D5B75F
:1008000082808280828001A0973700009387877F53
:100810009C431387018F3E95636CE5001387018F1E
:100820006368A70017370000232EA77C3E858280CF
:10083000FD57EDBF1325350082807D558280011163
:1008400006CE2EC6352101C9B24589670145DCC1F6
:10085000F240056182807D55E5BF132535007D1589
:1008600082807D5582807D558280F367043082804E
:100870000CC1828008418280368E331EBE00337EDA
:10088000CE0003230500B28393C3F3FF33737300D9
:100890003363C3012320650082800841718D335585
:1008A000B50082802310B500828003150500828088
:1008B000368E331EBE00337ECE0003130500B28396
:1008C00093C3F3FF337373003363C30123106500D5
:1008D000828003150500718D3355B5008280230099
:1008E000B5008280030505008280368E331EBE006F
:1008F000337ECE0003030500B28393C3F3FF33734B
:1009000073003363C3012300650082800305050083
:10091000718D3355B500828025C59D4763E2D706AA
:100920008967637FF604011122CC4AC832842E897C
:1009300026CA9375F60FAA8415841305890006CE7E
:100940004EC61374847FB689593F1305C900B36539
:10095000340171371305090123A024016137098986
:1009600011E923820400F2406244D2444249B24970
:100970000561828088401105B53788404105F9BF7F
:100980008280011106CE22CC26CA4AC84EC629CD85
:10099000AE89B9C9B28419CE2A84084101494105FA
:1009A000913783474400C98F2302F40009891DCD84
:1009B000631A9900F240624426854249D244B24902
:1009C0000561828008401105313FB38729012380EA
:1009D000A700084005094105313783474400C98F06
:1009E0002302F4000989E1B78144E9B7CA84D9B781
:1009F0001DC995C9411122C426C206C6AA842E84E7
:100A00008347040091E7B24022449244410182802E
:100A100088404105C13D058965DD83450400884066
:100A20000504753DF1BF8280411122C42A8426C28B
:100A30004AC006C60CC0AE8450C11389050826857D
:100A400081459104693DE39C24FF5C400547638038
:100A5000E702A1C30947639BE70608402244B2406E
:100A600092440249FD5513050508410111B508409E
:100A7000C1649385F4FF130505082D350840224411
:100A8000B24002499385F4FF9244130545084101A1
:100A900011BD08409305F00F13050508893508407E
:100AA0009305F00F130545081D3D08409305F00F11
:100AB000130585082D3508402244B240924402496E
:100AC0009305F00F1305C508410111BDB240224442
:100AD00092440249410182805C41411122C426C2F4
:100AE00006C605472A84AE84638EE70085CF094792
:100AF000639AE70608412244B24092441305050A6E
:100B00004101BDB30841C205C1811305050A593B26
:100B100008402244B24093D5040192441305450A8B
:100B2000410149B3084193F5F50F1305050A453B0B
:100B3000084093D5840093F5F50F1305450A453316
:100B4000084093D5040193F5F50F1305850A413B41
:100B500008402244B24093D5840192441305C50A4B
:100B60004101B5BBB24022449244410182801967E1
:100B70001C53F59B1CD38280938741889843411175
:100B800006C61347F70098C38C431385018DA93718
:100B9000B240171500001305E51F410149A8411196
:100BA00085466946B70500711385818D06C622C446
:100BB00026C24AC09533973700009387E74488439D
:100BC000BD200946B70500751385018DB13D8145EE
:100BD0001385018D11375139B7070007F3A7473047
:100BE00037F5FA021305050881459D3C9384018978
:100BF0001384818D1389018813060004938501896C
:100C0000228541332380A1888347090093F7F70F9A
:100C1000E5D7A6852285E93B23800188F1BF2A8399
:100C200011C62300B3007D16050365FE828039716D
:100C30003EDA2ED232D436D63AD842DC46DE973768
:100C400000009387A73C22CC804326CA06CEAA8404
:100C500009C41C4C99E32285F5280C4454102686BF
:100C6000228536C64D26F2406244D24421618280FC
:100C7000D1B6411122C42A842E85B285368623A09E
:100C8000018E06C6CD36FD576317F5009387018E9A
:100C90009C4391C31CC0B240224441018280411157
:100CA00022C406C62A842316B5002317C5002320B4
:100CB00005002322050023240500232205062328FE
:100CC0000500232A0500232C050021468145130534
:100CD000C505B137971700009387679A5CD09717BF
:100CE00000009387C79C1CD497170000938727A107
:100CF0005CD4971700009387E7A300D01CD8B240BC
:100D000022444101828097150000938585D7B9A2BE
:100D1000411126C2130680069384F5FFB384C402F2
:100D20004AC02E8922C406C693854407712A2A84A4
:100D300019C92320050023222501310508C4138683
:100D400084068145E93D2285B2402244924402490D
:100D5000410182801C4DBDE3411106C622C49707A4
:100D60000000938787FA1CD5971700009387872583
:100D70009C43232405042326050423280504631427
:100D8000F50085471CCD2A841D2848C022850528EA
:100D900008C422852D2048C44840014691450137AA
:100DA00008440546A545E53D48440946C945C53DB5
:100DB00085471CCCB240224441018280828041118F
:100DC000971700009387072026C284434AC006C6AF
:100DD0009C4C22C42A8999E32685AD3F93848404E0
:100DE0008044DC40FD1763D607009C40B1CF8440AF
:100DF000C5BF0317C40031E7C17785072322040666
:100E00002320040023220400232404005CC423289C
:100E10000400232A0400232C0400214681451305E5
:100E2000C405F53B232A0402232C040223240404D2
:100E3000232604042285B2402244924402494101FF
:100E400082801304840679BF91454A85D13588C0D4
:100E50002A8451FDB1472320F900E9BF797122D4DA
:100E60004AD052CC56CA5AC85EC606D626D24ECEF4
:100E70002A8AAE8A130485040149054BFD5B09ECFF
:100E8000B25022544A8592540259F249624AD24AD7
:100E9000424BB24B45618280044483294400FD19D2
:100EA00063D409000040E1BF83D7C400637BFB002B
:100EB0008397E40063877701A6855285829A336918
:100EC000A90093848406E1BF011126CA93843500EA
:100ED000F19806CE22CC4AC84EC6A104B14763F3AE
:100EE000F404B14463E2B4042A89EF009053938779
:100EF000818898433A8439E09387C1889C4391E77D
:100F000081454A85B12723A6A188A6854A858927D8
:100F1000FD5963193507B1472320F9004A85EF00D1
:100F2000705029A0E3D004FCB1471CC10145F24038
:100F30006244D2444249B249056182801C40858F97
:100F400063CF0702AD4663F6F6001CC03E9404C0B2
:100F500031A05C406313870223A4F1884A85EF0027
:100F6000704C1305B4009307440061993307F540B2
:100F70005DDF3A94898F1CC05DBF5CC3C5B7228713
:100F8000404095BF130435007198E30285FCB3051A
:100F9000A4404A85752DE31C35FBB5BF1C46FD17E3
:100FA0001CC663D90700184E63C5E700A9476393C1
:100FB000F50051A71C422E851387170018C2238005
:100FC000B7008280011122CC26CA4AC84EC652C43C
:100FD00006CE2A89AE893284B304D6007D5A6314C2
:100FE0009400014509A8834504004E864A857D3753
:100FF0000504E31645FFF2406244D2444249B24937
:10100000224A05618280357122CD26CB4AC94EC75E
:1010100006CF52C556C35AC1DEDEE2DCE6DAAA8943
:10102000AE843289368401C51C4D91E32533971770
:101030000000938727F1639CF40C83A4490083D7B5
:10104000C400A18BFDC79C48EDC793070002A30411
:10105000F1029307000302D22305F10222C6930B8B
:101060005002971A0000938AEAF1054C294B4A84F2
:101070008347040099C36390770FB30C2441638DB9
:101080000C00E6864A86A6854E852D3FFD576308EF
:10109000F51E9256E69636D2834704006381071EFA
:1010A000FD571309140002C802CE3ECA02CCA309A0
:1010B000010482D48345090015465685EF00D034DB
:1010C00013041900C24751E913F7070109C71307B1
:1010D0000002A309E10413F7870009C71307B00250
:1010E000A309E104834609001307A002638FE60603
:1010F000F2474A84814625460347040093051400BD
:10110000130707FD6378E60AADCA3ECEBDA0971768
:101110000000938727E56395F40083A4890005B751
:1011200097170000938707E0E39BF4F083A4C900BE
:1011300039B7A6854E85C92509D97D55FA406A4437
:10114000DA444A49BA492A4A9A4A0A4BF65B665C2B
:10115000D65C0D618280050421BF330555413315EE
:10116000AC00C98F3EC82289B1B732479306470009
:10117000184336C6634907023ACE03470400930773
:10118000E002631FF704034714009307A002631BE8
:10119000F702B2470904138747009C433AC663C16C
:1011A00007023ECA35A83307E04093E727003ACE4E
:1011B0003EC8E1B7B387670385462E84BA972DBF33
:1011C000FD57C5B7050402CA814681472546034736
:1011D000040093051400130707FD6378E606F1F297
:1011E000834504000D4617150000130525DAEF00AE
:1011F000B02111CD97170000938747D91D8D930714
:101200000004B397A700424505045D8D2AC88345B5
:101210000400194617150000130585D7130914009B
:101220002304B102EF00501E3DC197F7FF7F938763
:1012300067DD95E74247B2471377071009CF91075B
:101240003EC69257D2973ED21DB5B38767038546F7
:101250002E84BA97ADBF9D07E19BA107D5B7780053
:1012600097060000938646D626860C084E85970082
:101270000000E7000000FD572A8AE314F5FC83D73D
:10128000C40093F70704E39A07EA125545BD7800B6
:1012900097060000938646D326860C084E85012AC1
:1012A000D9BF797156CA9C49BA8A984522D426D2A8
:1012B0004ECE52CC06D64AD05AC85EC6AA892E84D3
:1012C000B284368A63D3E700BA879CC003473404EC
:1012D00019C385079CC01C4093F7070281C79C4037
:1012E00089079CC00329040013796900631A090067
:1012F000130B9401FD5B5C449840998F634CF90497
:101300001C408346340493F70702B336D000A5EBA4
:1013100013063404D2854E85829AFD576303F50483
:101320001C4011469840998B544481446397C700F0
:10133000B384E64063D3040081441C4418486354DA
:10134000F700998FBE94014969047D5B6398240579
:10135000014509A885465A86D2854E85829A631E24
:1013600075017D55B250225492540259F249624A95
:10137000D24A424BB24B456182800509ADBF33076B
:10138000D40013060003A301C70403475404938742
:101390001600A2978906A381E7049DBF8546228691
:1013A000D2854E85829AE30E65FB050945B77971B2
:1013B00022D426D24AD04ECE06D652CC56CA5AC8CD
:1013C000B68983C685019307E0063289AA842E84F4
:1013D000138635046380F61E63E2D7069307300652
:1013E0006382F60A63EDD700638A061E93078005C1
:1013F0006386F616930A24042301D40469A893078C
:1014000040066386F60093079006E395F6FE1C40BF
:10141000084393F6070893054500C1C21C410CC35D
:1014200063D807001307D002B307F040A301E40418
:1014300097160000938646B6294765A093073007A4
:101440006382F61A63EFD7009307F006638FF60402
:1014500093070007E390F6FA9C4193E707029CC1CB
:1014600009A8930750076382F60493078007E39364
:10147000F6F893078007A302F404971600009386FA
:10148000E6B2DDA01C43938A2504938647009C4363
:1014900014C32381F5048547ADA293F607041C41CC
:1014A0000CC3BDDEC207C187A5BF0C401C4313F8A7
:1014B0000508138547006305080008C39C4339A04D
:1014C00093F5050408C3FDD983D707001307F00679
:1014D000638AE60C97160000938606AC2947A301A1
:1014E00004044C400CC463C5050008406D9908C055
:1014F00099E3B28A91CDB28AB3F5E702FD1AB695A7
:1015000083C505002380BA00B3D5E70263F2E70A7A
:10151000A147631EF7001C40858B91CB58401C48A7
:1015200063C7E70093070003A38FFAFEFD1A330693
:10153000564110C84E87CA867000A285268595330D
:101540007D5A6314450D7D55B25022549254025970
:10155000F249624AD24A424B45618280A382D50455
:1015600097160000938646A30C40084313F805081D
:101570001C4111056300080208C313F7150001C7D9
:1015800093E505020CC04147B9FB0C4093F5F5FD0E
:101590000CC0B1B713F8050408C3E30008FEC20786
:1015A000C183E1BF971600009386069F214705BFC0
:1015B000AE8799B794411C43CC4913F806081385AC
:1015C00047006306080008C39C438CC301A808C3F6
:1015D00093F606049C43F5DA2390B7002328040011
:1015E000B28A89BF1C43D04181459386470014C30A
:1015F00083AA07005685092D01C53305554148C00A
:101600005C401CC8A301040435B714485686CA853B
:1016100026858299E30945F31C40898B8DE7B24703
:101620004844E353F5F23E8505B785465686CA859C
:1016300026858299E30965F1050A5C443247998F52
:10164000E345FAFEE9BF014A930A94017D5BF5B7D1
:10165000411122C42A842E8523A0018E06C6EFF0F4
:10166000AF9AFD576317F5009387018E9C4391C392
:101670001CC0B240224441018280411122C42E8408
:101680008395E50006C69125634905007C48AA9725
:101690007CC8B2402244410182808357C4007D77D8
:1016A0007D17F98F2316F400EDB783D7C50001111C
:1016B00022CC26CA4AC84EC606CE93F70710AA8483
:1016C0002E843289B68991C78395E5008946014603
:1016D00011298357C4007D777D17F98F2316F400F5
:1016E0008315E4006244F240CE864A86B2494249FC
:1016F0002685D24405616FF0CFD7411122C42E84D4
:101700008395E50006C6F92EFD570357C400631BF9
:10171000F500FD77FD17F98F2316F400B24022443F
:10172000410182808567D98F2316F40068C8FDB710
:101730008395E500D9AA011122CC26CA4AC806CE53
:101740004EC6AA842E89328409C51C4D99E3EFF058
:101750006FE0970700009387E77E6319F406C040A7
:101760001C4C1CC48357C400A18BC9C31C48BDCFEB
:101770001C4808409379F90F1379F90F1D8D5C48C7
:101780006346F500A2852685DD2C2DE51C44050564
:10179000FD171CC41C401387170018C02380370195
:1017A0005C486389A7008357C400858B81CBA94718
:1017B0006316F900A2852685D9240DEDF240624416
:1017C0004A85D2444249B2490561828097070000A8
:1017D000938747796314F400804459B79707000052
:1017E00093874774E31EF4F6C0449DBFA285268507
:1017F00021203DDD7D59D9B74111973700009387EE
:10180000E78026C2844322C44AC006C62A892E84A1
:1018100091C49C4C81E72685EFF0CFD39707000059
:1018200093874772631CF402C0400317C4009317E8
:101830000701C18393F68700B5EE93F607019DEE8D
:10184000A5472320F900136707042316E4007D55FC
:10185000B24022449244024941018280970700002D
:10186000938747706314F4008044C1B79707000062
:101870009387476BE31BF4FAC04445BF918B8DC738
:101880004C5889C9930744046384F5004A85612E46
:10189000232A04028357C4002322040093F7B7FDD0
:1018A0002316F4001C481CC08357C40093E787002C
:1018B0002316F4001C4881EF8357C400130700204F
:1018C00093F707286385E700A2854A85792C83571B
:1018D000C40013F7170005C75C4823240400B307AE
:1018E000F0401CCC1C480145A5F78317C40013F732
:1018F000070839DF93E707042316F40089BF898BB3
:10190000014791E3584818C4F1BF411122C42A8409
:101910002E8523A0018E06C6EFE03FF2FD57631728
:10192000F5009387018E9C4391C31CC0B2402244B2
:101930004101828083D7C500011122CC26CA06CE80
:101940004AC84EC613F78700AA842E8465E7D8419B
:101950006347E000B8416344E0000145C1A058542A
:101960006DDF03A904009396370123A0040063DE12
:10197000060668488357C400918B99C75C401D8D4B
:101980005C5899C33C401D8D5C540C502A8681469E
:1019900026858297FD570357C400631DF5009440C8
:1019A000F54763E4D708B70740208507B3D7D700CA
:1019B000858BA5CF1C48232204001CC09317370138
:1019C00063D80700FD576314F5009C4091E368C895
:1019D0004C5823A02401D1D1930744046384F5001B
:1019E00026859124232A04028DBF0C50854601468A
:1019F00026850297FD57E31FF5F69C40A5DF754746
:101A00006385E70059476395E70023A02401B1B738
:101A10008357C40093E707042316F400F24062449E
:101A2000D2444249B24905618280136707042316F4
:101A3000E400EDB783A90501E38109F203A90500DC
:101A40008D8B23A0350133093941014791E3D849F2
:101A500018C4E35420F11C540C50CA864E862685C7
:101A60008297634AA0008357C4007D5593E707041B
:101A70002316F40065B7AA993309A940D9BF9C4938
:101A8000A5C3011122CC06CE2A8419C51C4D89E7B5
:101A90002EC6EFF02FACB245970700009387874A18
:101AA000639BF5004C408397C50095C7228562442F
:101AB000F240056141B5970700009387A74A6394F8
:101AC000F5000C44CDB7970700009387A745E39C2A
:101AD000F5FC4C44C9BFF240624401450561828077
:101AE00001458280411122C42A842E85B285368622
:101AF00023A0018E06C6EFE05FD6FD576317F50001
:101B00009387018E9C4391C31CC0B2402244410183
:101B100082801971A6DAAE848395E500A2DC86DEA8
:101B2000328463DC050083D7C40023A0060093F74A
:101B300007089DE39307004015A0300836C66D2ABC
:101B4000B246E34205FE7247BD67F98F7977BA97CF
:101B500093B717009CC2F9BF930700041CC0F6504E
:101B60006654D65401450961828083D7C5000111AE
:101B700022CC06CE26CA4AC8898B2E8489CF9307E9
:101B800074041CC01CC885475CC8F2406244D2443F
:101B900042490561828074003000AA849D3FA245BD
:101BA0002A892685EFF04FB201ED8317C40013F7A1
:101BB000072061FFF19B93E727002316F400C1B7CC
:101BC00097F7FFFF938767149CD48357C40008C01E
:101BD00008C893E707082316F400A2475CC8B24779
:101BE00089CF8315E4002685352A01C98357C400AF
:101BF000F19B93E717002316F4008357C400336961
:101C0000F9002316240151B793F5F50F2A966314B2
:101C1000C5000145828083470500E38DB7FE0505B9
:101C2000FDB782808280CDC183A7C5FF411122C448
:101C300006C626C21384C5FF63D307003E94AA8458
:101C4000CD37938781889C4399EB2322040023A4FA
:101C500081882244B240268592444101E1B7637EE7
:101C6000F40014403307D4006396E7009843DC4344
:101C7000369718C05CC0E1BFBA87D84319C3E37D6B
:101C8000E4FE94433386D700631F86001040B2966B
:101C900094C33386D700E31EC7FA10435843B29665
:101CA00094C3D8C37DB76375C400B1479CC055B712
:101CB0001040B306C4006316D70014435843B296CD
:101CC00014C058C0C0C371B78280411122C42A8495
:101CD0002E85B285368623A0018E06C6EFE07FB83A
:101CE000FD576317F5009387018E9C4391C31CC079
:101CF000B240224441018280411122C42A842E85AF
:101D0000B28523A0018E06C6EFE07FB3FD576317AF
:101D1000F5009387018E9C4391C31CC0B2402244BE
:101D200041018280411122C42A842E8523A0018E84
:101D300006C6EFE03FB0FD576317F5009387018EAD
:101D40009C4391C31CC0B2402244410182800000E8
:101D5000EE070080EC070080F0070080FE0700809F
:101D6000FE070080FE070080FE070080F20700806B
:101D7000F4070080F6070080F8070080FA0700806B
:101D8000FC07008004080080000800800208008032
:101D90000D0A496E7465726E616C205379737465B7
:101DA0006D2054696D657220496E7465727275702C
:101DB000740000000D0A2A2A2A2A2A2A2A2A2A2AF4
:101DC0002A2A2A2A2A2A2A2A2A2A2A2A2A2A2A2A73
:101DD0002A2A2A2A2A2A2A2A2A2A2A2A2A2A2A2A63
:101DE0002A2A2A2A2A2A2A2A2A2A2A2A2A2A2A2A53
:101DF0002A2A2A2A2A2A2A2A2A2A2A2A2A2A2A2A43
:101E00002A2A2A2A0D0A0A2A2A2A2A2A2A2A2A2A8F
:101E10002A2A2A2A2A2A2A2A2A2A2A202020204D27
:101E2000692D562053797374656D2054696D657200
:101E300020426C696E6B79204578616D706C65200D
:101E40002020202A2A2A2A2A2A2A2A2A2A2A2A2A10
:101E50002A2A2A2A2A2A2A2A2A2A0D0A0A2A2A2A3F
:101E60002A2A2A2A2A2A2A2A2A2A2A2A2A2A2A2AD2
:101E70002A2A2A2A2A2A2A2A2A2A2A2A2A2A2A2AC2
:101E80002A2A2A2A2A2A2A2A2A2A2A2A2A2A2A2AB2
:101E90002A2A2A2A2A2A2A2A2A2A2A2A2A2A2A2AA2
:101EA0002A2A2A2A2A2A2A2A2A2A2A0D0A0D0A4FE7
:101EB00062736572766520746865204C45447320B2
:101EC000626C696E6B696E67206F6E207468652046
:101ED000626F6172642E20546865204C4544207006
:101EE00061747465726E206368616E6765732065E6
:101EF000766572792074696D6520612073797374D9
:101F0000656D2074696D657220696E746572727595
:101F10007074206F63637572732E0D0A00000000E9
:101F200000000000000000000000000000000000B1
:101F300000000000000000000000000000000000A1
:101F40000000000000000000000000000000000091
:101F50000000000000000000000000000000000081
:101F60000000000000000000000000000000000071
:101F70000000000000000000000000000000000061
:101F8000232D302B20000000686C4C0065666745EF
:101F90004647000030313233343536373839414224
:101FA0004344454600000000303132333435363783
:101FB000383961626364656600000000000000005B
:041FC000104000804D
:101FD000F0400080B41D0080104000800000000030
:101FE00000000000401F0080601F0080201F008054
:101FF00000000000000000000000000000000000E1
:1020000000000000000000000000000000000000D0
:1020100000000000000000000000000000000000C0
:1020200000000000000000000000000000000000B0
:1020300000000000000000000000000000000000A0
:040000058000000077
:00000001FF
