:100000006F0010016F00C00700000000000000003A
:100010006F00C010000000000000000000000000A1
:100020006F00401800000000000000000000000009
:100030006F00C01F00000000000000000000000072
:10004000000000006F0000276F00402F000000003C
:1000500000000000000000000000000000000000A0
:10006000000000006F0000366F00403E6F008046C9
:100070006F00C04E6F0000576F00405F6F008067D9
:10008000130101F81300000013000000130000002A
:1000900023201100232221002324310023264100A4
:1000A00023285100232A6100232C7100232E810074
:1000B000232091022322A1022324B1022326C1027C
:1000C0002328D102232AE102232CF102232E01034B
:1000D0002320110523222105232431052326410550
:1000E00023285105232A6105232C7105232E810520
:1000F000232091072322A1072324B1072326C10728
:100100002328D107232AE107232CF1077325203464
:10011000F3251034EF00900B6F004066130101F8D7
:100120002320110023222100232431002326410013
:1001300023285100232A6100232C7100232E8100E3
:10014000232091022322A1022324B1022326C102EB
:100150002328D102232AE102232CF102232E0103BA
:1001600023201105232221052324310523264105BF
:1001700023285105232A6105232C7105232E81058F
:10018000232091072322A1072324B1072326C10797
:100190002328D107232AE107232CF107EF00900041
:1001A0006F00C05D130101F82320110023222100FC
:1001B000232431002326410023285100232A6100F3
:1001C000232C7100232E8100232091022322A102DF
:1001D0002324B1022326C1022328D102232AE102CB
:1001E000232CF102232E01032320110523222105B4
:1001F000232431052326410523285105232A61059F
:10020000232C7105232E8105232091072322A1078A
:100210002324B1072326C1072328D107232AE10776
:10022000232CF107EF0000726F004055130101F815
:100230002320110023222100232431002326410002
:1002400023285100232A6100232C7100232E8100D2
:10025000232091022322A1022324B1022326C102DA
:100260002328D102232AE102232CF102232E0103A9
:1002700023201105232221052324310523264105AE
:1002800023285105232A6105232C7105232E81057E
:10029000232091072322A1072324B1072326C10786
:1002A0002328D107232AE107232CF107EF00807FC1
:1002B0006F00C04C130101F82320110023222100FC
:1002C000232431002326410023285100232A6100E2
:1002D000232C7100232E8100232091022322A102CE
:1002E0002324B1022326C1022328D102232AE102BA
:1002F000232CF102232E01032320110523222105A3
:10030000232431052326410523285105232A61058D
:10031000232C7105232E8105232091072322A10779
:100320002324B1072326C1072328D107232AE10765
:10033000232CF107EF0080776F004044130101F890
:1003400023201100232221002324310023264100F1
:1003500023285100232A6100232C7100232E8100C1
:10036000232091022322A1022324B1022326C102C9
:100370002328D102232AE102232CF102232E010398
:10038000232011052322210523243105232641059D
:1003900023285105232A6105232C7105232E81056D
:1003A000232091072322A1072324B1072326C10775
:1003B0002328D107232AE107232CF107EF00C06E81
:1003C0006F00C03B130101F82320110023222100FC
:1003D000232431002326410023285100232A6100D1
:1003E000232C7100232E8100232091022322A102BD
:1003F0002324B1022326C1022328D102232AE102A9
:10040000232CF102232E0103232011052322210591
:10041000232431052326410523285105232A61057C
:10042000232C7105232E8105232091072322A10768
:100430002324B1072326C1072328D107232AE10754
:10044000232CF107EF0040686F004033130101F8DF
:1004500023201100232221002324310023264100E0
:1004600023285100232A6100232C7100232E8100B0
:10047000232091022322A1022324B1022326C102B8
:100480002328D102232AE102232CF102232E010387
:10049000232011052322210523243105232641058C
:1004A00023285105232A6105232C7105232E81055C
:1004B000232091072322A1072324B1072326C10764
:1004C0002328D107232AE107232CF107EF00805FBF
:1004D0006F00C02A130101F82320110023222100FC
:1004E000232431002326410023285100232A6100C0
:1004F000232C7100232E8100232091022322A102AC
:100500002324B1022326C1022328D102232AE10297
:10051000232CF102232E0103232011052322210580
:10052000232431052326410523285105232A61056B
:10053000232C7105232E8105232091072322A10757
:100540002324B1072326C1072328D107232AE10743
:10055000232CF107EF00C0566F004022130101F871
:1005600023201100232221002324310023264100CF
:1005700023285100232A6100232C7100232E81009F
:10058000232091022322A1022324B1022326C102A7
:100590002328D102232AE102232CF102232E010376
:1005A000232011052322210523243105232641057B
:1005B00023285105232A6105232C7105232E81054B
:1005C000232091072322A1072324B1072326C10753
:1005D0002328D107232AE107232CF107EF00004E3F
:1005E0006F00C019130101F82320110023222100FC
:1005F000232431002326410023285100232A6100AF
:10060000232C7100232E8100232091022322A1029A
:100610002324B1022326C1022328D102232AE10286
:10062000232CF102232E010323201105232221056F
:10063000232431052326410523285105232A61055A
:10064000232C7105232E8105232091072322A10746
:100650002324B1072326C1072328D107232AE10732
:10066000232CF107EF0040456F004011130101F802
:1006700023201100232221002324310023264100BE
:1006800023285100232A6100232C7100232E81008E
:10069000232091022322A1022324B1022326C10296
:1006A0002328D102232AE102232CF102232E010365
:1006B000232011052322210523243105232641056A
:1006C00023285105232A6105232C7105232E81053A
:1006D000232091072322A1072324B1072326C10742
:1006E0002328D107232AE107232CF107EF00803CC0
:1006F0006F00C008130101F82320110023222100FC
:10070000232431002326410023285100232A61009D
:10071000232C7100232E8100232091022322A10289
:100720002324B1022326C1022328D102232AE10275
:10073000232CF102232E010323201105232221055E
:10074000232431052326410523285105232A610549
:10075000232C7105232E8105232091072322A10735
:100760002324B1072326C1072328D107232AE10721
:10077000232CF107EF00C0336F00400083200100FD
:1007800003214100832181000322C1008322010152
:1007900003234101832381010324C1018324010236
:1007A00003254102832581020326C102832601031A
:1007B00003274103832781030328C10383280104FE
:1007C0000329410483298104032AC104832A0105E2
:1007D000032B4105832B8105032CC105832C0106C6
:1007E000032D4106832D8106032EC106832E0107AA
:1007F000032F4107832F8107130101087300203065
:1008000000000000000000000000000000000000E8
:10081000735000307350403097F0FFFF9380807E1C
:10082000F322103093F2120063960202F32250304A
:1008300093F2320013031000639E6200F3225030E3
:1008400093F2C2FF17F3FFFF1303037C6398620464
:100850006F00000197F2FFFF9382027B739052308A
:1008600017270000130707F297270000938787F1E7
:1008700017280000130808F26308F70063860701D1
:1008800097000000E7804009972100009381816F65
:10089000EF000001138101136F00001F73001000AF
:1008A0009382000093870184138801936384070176
:1008B000EF0040049387018113880184638C070152
:1008C000EF0040039387019313880193638407012A
:1008D000EF00400213870181938701811388018112
:1008E0006306F70063840701EF00C00293800200F3
:1008F000678000006364F804B368F80093F8380078
:10090000634E100323A0070093874700E3CC07FF43
:10091000678000006364F802B368F80093F8380059
:10092000634E10018328070023A017019387470017
:1009300013074700E3C807FF6F0080006F00000047
:1009400067800000130101FF23248100232611008A
:1009500013040008F3374430EF00801437C7000257
:1009600093850181832787FF8326C7FF03A705009F
:1009700083A54500374600023387E700B337F70009
:10098000B386B600B387D7002320E6002322F60003
:10099000732444308320C10003248100130101012A
:1009A00067800000130101FF23261100EF00400EB5
:1009B00037670000832707028320C10093F7D7FF22
:1009C0002320F7021301010167800000635E050820
:1009D00013151500135515009307B0006314F500A7
:1009E0006F00400C930730006314F5006FF09FFB1D
:1009F000930770006314F5006FF0DFF49307800134
:100A00006314F5006F00400C930790016314F50028
:100A10006F00400B9307A0016314F5006F00400ABC
:100A20009307B0016314F5006F0040099307C001FC
:100A30006314F5006F0040089307D0016314F500BC
:100A40006F0040079307E0016314F5006F00400654
:100A5000930700016314F5006F0040059307100130
:100A60006314F5006F004004F3274034F32730345B
:100A7000F3275030F3270034F3270030F3271034E6
:100A800073001000678000006F00D00967800000CD
:100A9000130101FF1305A00023261100EF0000033E
:100AA00067800000678000006780000067800000AA
:100AB000678000006780000067800000678000009A
:100AC0006780000067800000678000006F00000002
:100AD0002320B50067800000032505006780000023
:100AE000138E0600331EBE00337ECE0003230500A6
:100AF0009303060093C3F3FF337373003363C3019F
:100B00002320650067800000032505003375C500BC
:100B10003355B500678000002310B50067800000E2
:100B20000315050067800000138E0600331EBE000B
:100B3000337ECE00031305009303060093C3F3FF37
:100B4000337373003363C3012310650067800000B3
:100B5000031505003375C5003355B50067800000E7
:100B60002300B500678000000305050067800000D2
:100B7000138E0600331EBE00337ECE000303050035
:100B80009303060093C3F3FF337373003363C3010E
:100B90002300650067800000030505003375C5006C
:100BA0003355B50067800000130101FD23202103A8
:100BB0002324810137A90000138C81812324810221
:100BC00023229102232E3101232C4101232A51019A
:100BD000232861012326710123229101232611027A
:100BE000930C0500138B050093090600138A060079
:100BF00093040700938A0700930B0800130909C4A4
:100C000013040C0003250C001306100093050000CC
:100C100013050503EFF05FEF93071000630AF50A71
:100C200093957A0093FCFC0703250C00B3E595012E
:100C30009395050193D5050113054500EFF05FE994
:100C40006386090263140B0073001000032504007F
:100C500093D5290013054501EFF09FE70325040014
:100C600093850A001305C501EFF09FE6638C04022B
:100C700063140A007300100093F7340063840700C4
:100C8000730010000325040093D52400130585018B
:100C9000EFF01FE403250400B3855B011305050293
:100CA000EFF01FE303250400930610001306100065
:100CB000930500001305C500EFF09FE2639609025B
:100CC000639E0404B7A40000938404C46F00C00FA3
:100CD0001309F9FF1319090113590901E31409F262
:100CE0001305A00F6F00000A93D929001309000013
:100CF0009317090193D7070103250400E3F237FD99
:100D000093172900B307FB0083A50700130585028D
:100D100013091900EFF0DFDB6FF09FFD37A900002A
:100D200093D4240093090000130909C4939709017F
:100D300093D70701E3F897F8032504001306200072
:100D40009305100013050503EFF01FDC6302050295
:100D5000032504001305C502EFF01FD8939729005F
:100D6000B307FA0023A0A700938919006FF01FFCB6
:100D70001309F9FF1319090113590901E31E09FAAF
:100D80001305B00F8320C102032481028324410292
:100D9000032901028329C101032A8101832A410118
:100DA000032B0101832BC100032C8100832C410004
:100DB00013010103678000009384F4FF93940401FE
:100DC00093D40401E38E04FA0325040013061000F3
:100DD0009305000013050503EFF01FD393071000E0
:100DE000E30CF5FC0325040013058500EFF0DFCECE
:100DF0001375F50F6FF01FF923ACA1806780000019
:100E00009306050093870500630E05001308000094
:100E100013070002130600009305000013051002DB
:100E20006FF09FD81305F00F678000006314050072
:100E3000730010009307700063F4D7007300100074
:100E4000B72700006364F600730010006308050E06
:100E50009307700063E4D70EB72700006370F60EA7
:100E6000130101FE23244101138A8500232C8100F4
:100E700023263101130405009389050013050A0098
:100E80009375F60F232E1100232A910023282101A8
:100E90009304060013890600EFF09FCC93D55440CD
:100EA00093F5857FB3E525011385C900EFF05FCB8E
:100EB00013050A0023203401EFF01FCB931905011D
:100EC0000325040093D909011305C500EFF0DFC91C
:100ED00093777500137585FF1375F50F131555007E
:100EE00033E5A9006384A400730010006304F900D3
:100EF000730010000325040013050501EFF0DFC6A1
:100F00001375250063140502230204008320C10128
:100F10000324810183244101032901018329C100A4
:100F2000032A8100130101026780000003250400E9
:100F300013054500EFF05FC36FF0DFFB6780000033
:100F40006314050073001000639405007300100023
:100F50006314060073001000630805066386050627
:100F600063040606130101FF23248100232291005C
:100F700023202101232611001309050013840500F5
:100F8000B384C500631E94008320C1000324810044
:100F9000832441000329010013010101678000003F
:100FA0000325090013050501EFF01FBC137515009B
:100FB000E30805FE8345040003250900130414001B
:100FC000EFF01FBA6FF01FFC67800000130101FEF5
:100FD000232C8100232A910023263101232E110086
:100FE00023282101130405009389050093040600BA
:100FF000631405007300100063940900730010006F
:1010000063940400730010006306040863840908F5
:10101000638604020325040013090000130505017B
:10102000EFF09FB483474400B367F5002302F40058
:101030001375250063040506631299028320C1011C
:101040000324810113850400032901018324410144
:101050008329C100130101026780000003250400F9
:1010600013054500EFF05FB0B38729012380A70087
:10107000032504001309190013050501EFF0DFAE85
:1010800083474400B367F5002302F400137525007D
:101090006FF05FFA930400006FF05FFA93040900A9
:1010A0006FF0DFF9130101FD232C4101232A5101C7
:1010B000138A0500930A0500130620009715000007
:1010C000938545161385018E232481022320210355
:1010D000232E3101232861012326710123261102C9
:1010E0002322910213040000EFF09FE5130B100080
:1010F000971B0000938B4B131389018E97190000E7
:101100009389C912631844038320C1020324810216
:1011100083244102032901028329C101032A810199
:10112000832A4101032B0101832BC1001301010319
:1011300067800000637E8B009377F400639A07005A
:101140001306400093850B0013050900EFF05FDFE5
:10115000B3878A0083C40700130610001305090033
:1011600093D54400B385B900EFF09FDD93F5F4000B
:1011700013061000B385B90013050900EFF05FDC1A
:10118000130414006FF01FF81306C00D971500002C
:101190009385852F1385018E6FF09FDA930760008A
:1011A0006302F50663ECA700930710006302F502E3
:1011B000930720006308F502678000009307900101
:1011C000630AF502930720026306F50467800000B6
:1011D0001306200497150000938545061385018E9C
:1011E0006FF01FD61306200297150000938545095E
:1011F0006FF0DFFE1306C003971500009385850A84
:101200006FF0DFFD1306E002971500009385450D92
:101210006FF0DFFC13062003971500009385450F40
:101220006FF0DFFB130101FF37350070232611003B
:1012300023248100EFF05FBC930500001385018C2F
:10124000EFF01FBC131405011354040163120404CE
:10125000930800001308A00093072000130700085C
:101260009306000013060000930580001385018C8F
:10127000EF00804913040500631605021306F00110
:1012800097150000938545461385018EEFF05FCBDF
:101290001375F40F8320C1000324810013010101A1
:1012A0006780000013069001971500009385C545DF
:1012B0001385018EEFF0DFC81375F40FEFF01FEE0A
:1012C0006FF01FFD130101FF23261100232481006D
:1012D000EF00004E63120502032481008320C10049
:1012E00013061002971500009385C5431385018EE0
:1012F000130101016FF0DFC4130405001306E001C0
:101300001385018E9715000093850544EFF05FC3A8
:101310001375F40F032481008320C1001301010120
:101320006FF0DFE7130101F4930610001306C0020B
:10133000B70500701385018E232E110A232A910A06
:101340002328210B232C810A2326310B2324410B34
:10135000EFF0DFADEF000021130620149715000019
:10136000938545FE1385018EEFF09FBD9384018424
:10137000EFF09FE113099000130610009305810020
:101380001385018EEFF09FC4E30805FE83478100BB
:10139000130770066382E706130790066384E7026B
:1013A00013074006E39AE7FC1306D00297150000E6
:1013B000938585271385018EEFF09FB8EFF09FF09E
:1013C0006F00C0011306B002971500009385C51E7B
:1013D0001385018EEFF0DFB6EFF0DFE413061005A2
:1013E00097150000938505181385018EEFF05FB502
:1013F000EFF09FD96FF05FF81306E0029715000039
:101400009385451E1385018EEFF09FB31306B0033D
:10141000971500009385452413054106EF00105EE3
:1014200013065003971500009385C5261305C102C6
:10143000EF00D05C1306A0019715000093850529E5
:1014400013050101EF00905B9307000013070008EC
:10145000B386F4002380060093871700E39AE7FE23
:101460001306B003930541061385018EEFF05FADBF
:10147000130400009389018E130AD0001306100094
:101480009305C10013850900EFF05FB4E30805FE82
:10149000130610009305C10013850900EFF05FAA41
:1014A0008347C100638C4703938707FD13F7F70F4A
:1014B000636CE9001317240033048700131414002D
:1014C0003304F4006FF09FFB130610009305C10076
:1014D0001385018EEFF0DFA61304F0FF9307F4FFEE
:1014E000130770006364F706130704009386040073
:1014F000130600009305000013050000EF00C0274D
:10150000930905006316050213051000EF009018FB
:101510009305C102130650031385018EEFF05FA2FD
:101520009315440013850400EFF0DFB76FF01FEB55
:101530001306A001930501011385018EEFF05FA052
:1015400013F5F90FEFF09FC56FF05FE91306400147
:10155000971500009385050C1385018EEFF05F9EB3
:101560006FF0DFE7130101FE23263101B729008068
:1015700003A70978B7870000938707F8232E110087
:10158000232C8100232A9100232821013307F7000F
:101590008327070093F70702E39C07FE93071000D9
:1015A0002320F70003A70978B7870000938707F87F
:1015B0003307F7008327070093F71700E38C07FE34
:1015C0002320070083A7097837870000130707F84F
:1015D000B387E70003A4070013748400E31C04FE30
:1015E0001307200023A0E700B727008003A987770F
:1015F00003A50978B7440000B72500801306090049
:10160000938505773385A400EF00D02D630209028E
:1016100083A7097813070000B387F40083A60700A7
:1016200013071700938747003304D400E318E9FE3B
:10163000B727008083A74777130510006300F402E3
:101640008320C10103248101832441010329010175
:101650008329C1001301010267800000EF00903967
:10166000EF00000AEF008056EF00100383A709780F
:1016700037870000130707F8B387E70037670800CC
:10168000130707A123A0E700B7170000938747823D
:101690001305100023A4F18EEF0090011305E5FD62
:1016A0001338150093070000370730009306000039
:1016B00013060000930500001305800023800193AA
:1016C000EF0080519307000013070000930600000D
:1016D000130600009305500013051000EF00C04FE3
:1016E0008320C101032481018324410103290101D5
:1016F0008329C10013050000130101026780000067
:10170000238E018067800000638207061303900127
:1017100063000806130101FF232481001384C181A3
:10172000034E04002326110013031000630C0E0067
:101730008320C1000324810013050300130101016C
:1017400067800000EF00800813030500E31205FE28
:10175000930710002300F4008320C10003248100BC
:1017600013050300130101016780000013039001BA
:10177000130503006780000083C7C18113080700B9
:10178000638007026382060263080700138706006E
:10179000930608006F00C0221305900167800000C7
:1017A000130510006780000013052000678000000B
:1017B0009387C18103C70700631607001305100054
:1017C00067800000238007006F00C03B1301018188
:1017D0002322917E232E317D2326117E2324817E98
:1017E0002320217F232C417D232A517D2328617DC5
:1017F0002326717DB389B6001303A039130101FCC0
:1018000093049001636E3301130707F89374F7F79D
:101810009394040193D40401638E04029304200082
:10182000130101048320C17E138504000324817EFB
:101830008324417E0329017E8329C17D032A817D82
:10184000832A417D032B017D832BC17C1301017F02
:101850006780000037240080032E04781353F7417B
:101860001373F3032324FE00832704783303E30078
:101870001353634023A667008327047813072006C9
:1018800023A807018327047823AEE7008327047881
:101890001307400923A0E70283C701926398070258
:1018A00003270478B7370000138887293307070117
:1018B0001308000223200701032704789387C72910
:1018C000B307F7001307400023A0E70093071000B9
:1018D000130A0600930A0500138B060013890500FE
:1018E000032704786386F804232A070083270478F3
:1018F00023AC37016316090803250478631E0B0423
:10190000B7870000938707F83305F500B73708005D
:10191000938707C12320F500371700009387818E36
:101920001307C78223A0E70023A207006FF05FEF31
:10193000232A1701EF00C029930B0500930505002A
:101940001306100013050100EF00C04A630A0504E6
:10195000930405006FF0DFECB787000093878718CA
:101960003305F500131929003305A90013060B00F0
:1019700093050A00EF000077032504786FF05FF805
:1019800003250478B787000093878718130609009A
:1019900093850A003305F500EF00C0746FF0DFF5A2
:1019A00003250478B7A700009387070213860B006E
:1019B000930501003305F500EF00C0726FF01FF3CF
:1019C0009307A03963ECB71A130101812324817EA8
:1019D0003724008083280478B7370000138847260F
:1019E0002326117E2322917E2320217F232E317DE9
:1019F000232C417D232A517D3388080103230800CD
:101A000023A4D8000328047893082006130101FDBD
:101A1000232E180103280478930840092320180373
:101A200003C801926306080A130A0700130710008F
:101A30009389060013090500938405008327047821
:101A4000630AE60C23A807008327047823AC9700D9
:101A50006396041003260478B7870000138707F8FD
:101A6000B73508003306E600938505012320B6004C
:101A700083250478138607093386C500B71500004F
:101A80009387818E93962900938505831307100011
:101A900023A0B70023A4D70023A6C70023A847018B
:101AA00023A2E70013050000130101038320C17E78
:101AB0000324817E8324417E0329017E8329C17D05
:101AC000032A817D832A417D1301017F6780000005
:101AD00003280478938887299387C7293308180136
:101AE000930800022320180103280478130A070032
:101AF00013071000B307F8001308400023A00701E4
:101B00009389060013090500938405008327047850
:101B1000E31AE6F223A8C700E30803F2EF00400B44
:101B2000930A0500E30205F2930505001306100071
:101B300013050100EF00002CE31805F603250478D7
:101B4000B7A700009387070213860A0093050100D8
:101B50003305F500EF0000596FF01FEF03250478FF
:101B6000B787000093878718138604009305090040
:101B70003305F500EF0000576FF0DFED130590011E
:101B800067800000B727008003A707789306400905
:101B9000130500002320D70283A7077837870000AA
:101BA000130707F8B387E700373708001307072143
:101BB00023A0E700371700009387818E1307278340
:101BC00023A0E70023A20700678000006F00404BBE
:101BD00003A54182678000003728008083280878A9
:101BE00023AEA802032508782320B50483250878AE
:101BF00023A2C5048325087837860000130606F85B
:101C000023A4D5048326087823A6E60403270878AE
:101C1000B7460800938606A13307C7002320D700E4
:101C200083260878B386C60003A70600137747000B
:101C3000E30C07FE1307200023A0E60063880702D9
:101C400083250878130101FF138507001306500050
:101C50009385050423261100EF0040518320C10025
:101C60001305000013010101678000001305000047
:101C70006780000083C70192130101FF2326110032
:101C8000232481006396070C9387F5FF93F7C7FF22
:101C9000938707021307903E130490016360F70ACD
:101CA000372700808326077813064009B7370000DE
:101CB00023A8B604832607789388872923ACC60413
:101CC000032807781386C729B78600009307780191
:101CD000232AF80203280778938706F8B306180129
:101CE0001308000223A00601832607783386C60066
:101CF000930640002320D600832607783736080055
:101D000013060641B386F60023A0C6008326077893
:101D1000B386F60083A7060093F74700E38C07FE1F
:101D20009307200023A0F6008327077803A4070069
:101D30001314040113540401630E04081305040072
:101D40008320C1000324810013010101678000008A
:101D50009307D03F13049001E3E2B7FE37270080DA
:101D600003260778B7860000938706F82324B60079
:101D7000832607783736080013060641B386F60037
:101D800023A0C60083260778B386F60083A7060043
:101D900093F74700E38C07FE9307200023A0F6008B
:101DA0008327077803A407001314040113540401C4
:101DB000E31604F8138605009385C700EF00003B87
:101DC000130504008320C1000324810013010101D5
:101DD00067800000138605009385C705EF00003972
:101DE000130504008320C1000324810013010101B5
:101DF0006780000063840508630A05086306060817
:101E0000130101FE232A91009384418283A60400DA
:101E1000232C8100232E11002328210123263101A8
:101E2000138405001307900163EAB6021389018247
:101E3000832509009319240013860900EF0000256B
:101E400083A704000326090013070000B387874017
:101E50003306360123A0F4002320C9008320C101EA
:101E60000324810183244101032901018329C10045
:101E7000130507001301010267800000130790019A
:101E800013050700678000006FF0DFDE13072000F6
:101E90006FF01FFF6F00C001370701009387818E2D
:101EA0001307F77F23A0E70023A207006780000045
:101EB000B726008003A60678130101FE37870000CD
:101EC000130707F8232E1100232C8100232A9100E9
:101ED0002328210123263101232441013307E60071
:101EE000631C050A832707001309500093F7470076
:101EF000638207088327070093F70708639C070A94
:101F0000930720002320F7009389818E03A70900FF
:101F1000B70701009387F77F6300F71683A706785A
:101F200003A90700131909011359090163140904CE
:101F300083A749001384818E93040000130A400094
:101F40006382070203268400938414006316060C40
:101F50002324040083A749001304C40063F4F4009D
:101F6000E39244FFB70701009387F77F23A0F900AE
:101F700023A209008320C101032481011305090064
:101F800083244101032901018329C100032A81001F
:101F900013010102678000008327070093F74700C1
:101FA000E39A07F48327070093F74700E38607FEC9
:101FB0006FF05FF4B78700009385C7F8B305B600EC
:101FC00003A50500131865006350080603A7050064
:101FD000938707F813173701135737011317270093
:101FE0003306C700032706002320E60003A7067870
:101FF000130620003307F7002320C70003A7067845
:10200000B307F70083A7070093F70708E38E07EEEF
:10201000130930026FF01FF68325C4000325040165
:10202000EF00C0146FF0DFF223A6018E232007001B
:1020300003A70678938707F83307F70003260700FE
:1020400013761600E31606FC130620002320C700B3
:1020500003A70678B307F70083A7070093F70708DD
:10206000E39807FAEFF00FD013090500E31405F029
:10207000130970006FF01FF0130940026FF09FEF1B
:10208000238401821305000067800000B3E7C500C8
:10209000B367F50093F7370063840702B387C50081
:1020A00063F0F5043306C50083C70500130515006A
:1020B00093851500A30FF5FEE318C5FE67800000A9
:1020C0001376C6FF3386C50063FCC50083A70500F1
:1020D0001305450093854500232EF5FEE3E8C5FE74
:1020E0006780000093F73500638A07041316260003
:1020F0003388C50063FA050713864500130101FF05
:10210000930606009307C10003C7050093871700D5
:1021100093851500A38FE7FEE398D5FE8327C100C2
:102120001305450093050600232EF5FE9386460011
:1021300063780603130646006FF0DFFC9317260052
:10214000B387F50063F2F50203A705001305450008
:1021500093854500232EE5FEE3E8F5FE6780000049
:10216000130101016780000067800000937735004C
:10217000638A0704131626003308C500637A05072F
:1021800013064500130101FF9306060003A705008F
:102190009307C1002326E10003C7070013051500BC
:1021A00093871700A30FE5FEE318D5FE130506007D
:1021B0009385450093864600637806031306460020
:1021C0006FF0DFFC93172600B307F5006372F5028A
:1021D00003A705001305450093854500232EE5FE62
:1021E000E368F5FE678000001301010167800000CD
:1021F0006780000023A801826780000013030500A8
:10220000630E060083830500230073001306F6FFA8
:102210001303130093851500E31606FE6780000084
:10222000200000000D0A20003031323334353637BB
:1022300038394142434445460D0A204572726F7257
:10224000202D204F7065726174696F6E2066616920
:102250006C656420626563617573652074686520D0
:1022600044524247206973206E6F7420696E737404
:10227000616E7469617465642E0000000D0A20456A
:1022800072726F72202D20506172616D657465727B
:10229000206973205341545F4E554C4C2E00000072
:1022A0000D0A204572726F72202D20506172616D8F
:1022B0006574657220657863656564732063617019
:1022C0006162696C697479206F6620696D706C65F4
:1022D0006D656E746174696F6E2E2E000D0A204557
:1022E00072726F72202D204E5242472066617461D7
:1022F0006C206572726F7220647572696E67206FF0
:102300007065726174696F6E2E0000000D0A2045C1
:1023100072726F72202D2046756E6374696F6E2025
:10232000696D706C656D656E746174696F6E206E39
:102330006F7420706F70756C617465642E0000009E
:102340000D0A0D0A2A2A2A2A2A2A2A2A2A2A2A2A67
:102350002A2A2A2A2A2A2A2A2A2A2A2A2A2A2A2ADD
:102360002A2A2A2A2A2A2A2A2A2A2A2A2A2A2A2ACD
:102370002A2A2A2A2A2A2A2A2A2A2A2A2A2A2A2ABD
:102380002A2A2A2A2A2A2A2A2A2A2A2A2A2A2A2AAD
:102390002A2A0D0A2A2A2A2A2A20506F6C6172469C
:1023A00069726520557365722043727970746F206D
:1023B00052616E646F6D204269742047656E65726C
:1023C00061746F722053797374656D2053657276F2
:1023D00069636573204578616D706C65202A2A2ACF
:1023E0002A2A0D0A2A2A2A2A2A2A2A2A2A2A2A2A8A
:1023F0002A2A2A2A2A2A2A2A2A2A2A2A2A2A2A2A3D
:102400002A2A2A2A2A2A2A2A2A2A2A2A2A2A2A2A2C
:102410002A2A2A2A2A2A2A2A2A2A2A2A2A2A2A2A1C
:102420002A2A2A2A2A2A2A2A2A2A2A2A2A2A2A2A0C
:102430002A2A0D0A2054686973206578616D706CD2
:10244000652070726F6A6563742065786572636970
:10245000736573207468652072616E646F6D2062AD
:1024600069742067656E657261746F722073797329
:1024700074656D0D0A2073657276696365732E0D40
:102480000A0000000D0A0D0A202D2050726573739A
:102490002022692220746F20696E7374616E7469E2
:1024A0006174652072616E646F6D206E756D62651A
:1024B00072732E0D0A20202D205072657373202216
:1024C000672220746F2067656E6572617465207283
:1024D000616E646F6D206E756D626572732E0D0A8C
:1024E00020202D2050726573732022642220746F87
:1024F00020756E696E7374616E74696174656420B1
:1025000072616E646F6D206E756D626572732E0DF3
:102510000A2D2D2D2D2D2D2D2D2D2D2D2D2D2D2D0E
:102520002D2D2D2D2D2D2D2D2D2D2D2D2D2D2D2DDB
:102530002D2D2D2D2D2D2D2D2D2D2D2D2D2D2D2DCB
:102540002D2D2D2D2D2D2D2D2D2D2D2D2D2D2D2DBB
:102550002D2D2D2D2D2D2D2D2D2D2D2D2D2D2D00D8
:102560000D0A2D2D2D2D2D2D2D2D2D2D2D2D2D2DDE
:102570002D2D2D2D2D2D2D2D2D2D2D2D2D2D2D2D8B
:102580002D2D2D2D2D2D2D2D2D2D2D2D2D2D2D2D7B
:102590002D2D2D2D2D2D2D2D2D2D2D2D2D2D2D2D6B
:1025A0002D2D2D2D2D2D2D2D2D2D2D2D2D2D2D2D5B
:1025B000000000000D0A2053656C65637465643A81
:1025C000204452424720696E7374616E746961746D
:1025D000657320736572766963652E200D0A0000AD
:1025E0000D0A2053656C65637465643A2052616E10
:1025F000646F6D20646174612067656E65726174DB
:102600006520736572766963652E200D0A000000EF
:102610000D0A0D0A20496E76616C696420656E743E
:1026200072792E000D0A2053656C65637465643AF7
:1026300020556E696E7374616E746961746564208F
:102640004452424720736572766963652E200D0AF5
:102650000000000020456E746572206E756D626525
:1026600072206F662072616E646F6D20626C6F63A2
:102670006B20746F2067656E657261746528206DCC
:102680006178203820626C6F636B73293A200000F8
:102690000D0A20445242472067656E657261746579
:1026A000207375636365737366756C2E200D0A2045
:1026B00047656E657261746564204E756D62657202
:1026C0003A200D0A000000000D0A20445242472023
:1026D00067656E6572617465206661696C757265A7
:1026E0002E000000204452424720696E7374616ED0
:1026F000746961746573207375636365737366755C
:102700006C2E0000204452424720696E7374616E43
:10271000746961746573206661696C2E0000000045
:10272000204452424720756E696E7374616E7469FD
:1027300061746564207375636365737366756C2E6D
:1027400000000000204452424720756E696E737489
:10275000616E746961746564206661696C75726527
:102760002E0000000000000000000000000000003B
:042770000000000065
:042774000000000061
:04277800000000005D
:1027800000000062000000000000000000000000E7
:040000058000000077
:00000001FF
