:100000006F0000566F00C0080000000000000000F4
:10001000C1A8000000000000000000000000000077
:1000200021A200000000000000000000000000000D
:1000300081A200000000000000000000000000009D
:100040000000000095AA000065AA00000000000062
:1000500000000000000000000000000095A9000062
:1000600061AE0000D5A2000025A40000B5A40000E8
:1000700045AC0000D5AC000025AE0000D1A60000C4
:1000800021A1000013000000130000001300000075
:10009000197106C006C00AC20EC412C616C81ACA12
:1000A0001ECC22CE26D02AD22ED432D636D83ADA58
:1000B0003EDC42DEC6C0CAC2CEC4D2C6D6C8DACA88
:1000C000DECCE2CEE6D0EAD2EED4F2D6F6D8FADA38
:1000D000FEDC73252034F3251034EF00A0682DA931
:1000E000197106C006C00AC20EC412C616C81ACAC2
:1000F0001ECC22CE26D02AD22ED432D636D83ADA08
:100100003EDC42DEC6C0CAC2CEC4D2C6D6C8DACA37
:10011000DECCE2CEE6D0EAD2EED4F2D6F6D8FADAE7
:10012000FEDCEF002060CDAE197106C006C00AC229
:100130000EC412C616C81ACA1ECC22CE26D02AD287
:100140002ED432D636D83ADA3EDC42DEC6C0CAC237
:10015000CEC4D2C6D6C8DACADECCE2CEE6D0EAD267
:10016000EED4F2D6F6D8FADAFEDCEF00C0536DA674
:10017000197106C006C00AC20EC412C616C81ACA31
:100180001ECC22CE26D02AD22ED432D636D83ADA77
:100190003EDC42DEC6C0CAC2CEC4D2C6D6C8DACAA7
:1001A000DECCE2CEE6D0EAD2EED4F2D6F6D8FADA57
:1001B000FEDCEF0060618DA6197106C006C00AC2A0
:1001C0000EC412C616C81ACA1ECC22CE26D02AD2F7
:1001D0002ED432D636D83ADA3EDC42DEC6C0CAC2A7
:1001E000CEC4D2C6D6C8DACADECCE2CEE6D0EAD2D7
:1001F000EED4F2D6F6D8FADAFEDCEF00205D29AEB6
:10020000197106C006C00AC20EC412C616C81ACAA0
:100210001ECC22CE26D02AD22ED432D636D83ADAE6
:100220003EDC42DEC6C0CAC2CEC4D2C6D6C8DACA16
:10023000DECCE2CEE6D0EAD2EED4F2D6F6D8FADAC6
:10024000FEDCEF008058C9AC197106C006C00AC2B6
:100250000EC412C616C81ACA1ECC22CE26D02AD266
:100260002ED432D636D83ADA3EDC42DEC6C0CAC216
:10027000CEC4D2C6D6C8DACADECCE2CEE6D0EAD246
:10028000EED4F2D6F6D8FADAFEDCEF00605469A4B8
:10029000197106C006C00AC20EC412C616C81ACA10
:1002A0001ECC22CE26D02AD22ED432D636D83ADA56
:1002B0003EDC42DEC6C0CAC2CEC4D2C6D6C8DACA86
:1002C000DECCE2CEE6D0EAD2EED4F2D6F6D8FADA36
:1002D000FEDCEF00005089A4197106C006C00AC2F6
:1002E0000EC412C616C81ACA1ECC22CE26D02AD2D6
:1002F0002ED432D636D83ADA3EDC42DEC6C0CAC286
:10030000CEC4D2C6D6C8DACADECCE2CEE6D0EAD2B5
:10031000EED4F2D6F6D8FADAFEDCEF00A04BEDAA66
:10032000197106C006C00AC20EC412C616C81ACA7F
:100330001ECC22CE26D02AD22ED432D636D83ADAC5
:100340003EDC42DEC6C0CAC2CEC4D2C6D6C8DACAF5
:10035000DECCE2CEE6D0EAD2EED4F2D6F6D8FADAA5
:10036000FEDCEF0040474DAA197106C006C00AC264
:100370000EC412C616C81ACA1ECC22CE26D02AD245
:100380002ED432D636D83ADA3EDC42DEC6C0CAC2F5
:10039000CEC4D2C6D6C8DACADECCE2CEE6D0EAD225
:1003A000EED4F2D6F6D8FADAFEDCEF00E042ADA2E7
:1003B000197106C006C00AC20EC412C616C81ACAEF
:1003C0001ECC22CE26D02AD22ED432D636D83ADA35
:1003D0003EDC42DEC6C0CAC2CEC4D2C6D6C8DACA65
:1003E000DECCE2CEE6D0EAD2EED4F2D6F6D8FADA15
:1003F000FEDCEF00803E0DA2197106C006C00AC2E5
:100400000EC412C616C81ACA1ECC22CE26D02AD2B4
:100410002ED432D636D83ADA3EDC42DEC6C0CAC264
:10042000CEC4D2C6D6C8DACADECCE2CEE6D0EAD294
:10043000EED4F2D6F6D8FADAFEDCEF004039E9A8BD
:10044000197106C006C00AC20EC412C616C81ACA5E
:100450001ECC22CE26D02AD22ED432D636D83ADAA4
:100460003EDC42DEC6C0CAC2CEC4D2C6D6C8DACAD4
:10047000DECCE2CEE6D0EAD2EED4F2D6F6D8FADA84
:10048000FEDCEF00C03549A8197106C006C00AC2DB
:100490000EC412C616C81ACA1ECC22CE26D02AD224
:1004A0002ED432D636D83ADA3EDC42DEC6C0CAC2D4
:1004B000CEC4D2C6D6C8DACADECCE2CEE6D0EAD204
:1004C000EED4F2D6F6D8FADAFEDCEF006031A9A05D
:1004D000197106C006C00AC20EC412C616C81ACACE
:1004E0001ECC22CE26D02AD22ED432D636D83ADA14
:1004F0003EDC42DEC6C0CAC2CEC4D2C6D6C8DACA44
:10050000DECCE2CEE6D0EAD2EED4F2D6F6D8FADAF3
:10051000FEDCEF00002D09A082401241A2413242D0
:10052000C2425243E243724482541255A25532569B
:10053000C2565257E257725886481649A649364A5B
:10054000C64A564BE64B764C865C165DA65D365E1B
:10055000C65E565FE65F0961730020300000000050
:10056000735000307350403097000000938080A992
:10057000B7C200029382C2FF23A00200F322103010
:1005800093F2120063940202F322503093F232008D
:100590000543639D6200F322503093F2C2FF1703BC
:1005A0000000130363A66396620439A0970200005B
:1005B000938282A573905230171700001307877833
:1005C000971700009387077817180000130888789A
:1005D0006308F7006386070197000000E780E007E3
:1005E00097210000938101F63120138101146F00DF
:1005F000C01C0290868293870185138801946383CF
:10060000070125289387018113880185638A0701E3
:100610002D20938701941388019463830701312867
:100620001387018193870181138801816305F70096
:10063000638307010D2096808280636FF802B368A0
:10064000F80093F838006349100323A007009107CE
:10065000E3CD07FF82806361F802B368F80093F886
:100660003800634B10018328070023A0170191076E
:100670001107E3CA07FF11A001A08280411102C443
:1006800002C6B7C7000283A6C7FF36C483A687FF8A
:1006900036C603A6C7FFA246E317D6FE83A5C7FF4B
:1006A000324541018280411106C693070008F3B725
:1006B0004730E93793878181984313065500DC431F
:1006C000938601823335A60003A8060083A846005E
:1006D000AA9581461385018163E9B7026394F50009
:1006E0006365C70289C623ACE18023AEF180B746BB
:1006F00000027D56D0C298C2DCC2F12093070008E8
:10070000F3A74730B24041018280B306070133B3FB
:10071000E60036871441C6979A97850623A8D180AC
:1007200085465DBF411106C6592819671C53B24062
:10073000F59B1CD341018280F32740F1FD4763F410
:10074000A700029021A0BD47E3FDA7FE4115137548
:10075000F50F0A05971700009387C7043E950323FA
:1007600005000283635D0502B707008013C707FF1A
:10077000698F01CB93C707FEE98F81E71375F50FEA
:1007800065BF06050581AD476313F50035A88D47A4
:100790006313F50041BF9D476310F50229B7F327A6
:1007A0004034F3273034F3275030F3270034F32755
:1007B0000030F32710340290828065A382804111BB
:1007C000294506C6052082808280828082808280C0
:1007D000828082808280828082808280CDB7828087
:1007E0008280828001A00CC1828008418280368E86
:1007F000331EBE00337ECE0003230500B28393C3B5
:10080000F3FF337373003363C301232065008280D9
:100810000841718D3355B50082802310B500828068
:10082000031505008280368E331EBE00337ECE0057
:1008300003130500B28393C3F3FF33737300336371
:10084000C30123106500828003150500718D3355A7
:10085000B50082802300B5008280030505008280F8
:10086000368E331EBE00337ECE0003030500B283F6
:1008700093C3F3FF337373003363C3012300650035
:10088000828003050500718D3355B500828011E12A
:1008900002909D4763F3D700029089676363F60077
:1008A000029049CD9D4763EBD70889676378F608C6
:1008B000011152C4138A850022CC4EC62A84AE8907
:1008C00052859375F60F06CE26CA4AC8B284368979
:1008D000513793D5544093F5857FB3E525011385B2
:1008E000C9008D3F528523203401853F93190501AE
:1008F000084093D9090131058D37937775006199C7
:100900001375F50F160533E5A9006383A400029063
:100910006303F9000290084041058137098919E90C
:1009200023020400F2406244D2444249B249224ABE
:1009300005618280084011050D37F1BF828011E109
:10094000029091E1029011E2029029C1A1C11DCE55
:10095000411122C426C24AC006C62A892E84B38405
:10096000C50063189400B2402244924402494101F8
:100970008280032509004105CD3505897DD9834550
:100980000400032509000504F135E1BF828001114F
:1009900022CC26CA4EC606CE4AC82A84AE89B28464
:1009A00011E1029063930900029091E0029039C82E
:1009B000638A090491CC084001494105793D834788
:1009C0004400C98F2302F40009891DCD631A9900E0
:1009D000F240624426854249D244B2490561828090
:1009E000084011059D3DB38729012380A7000840D9
:1009F000050941059D3583474400C98F2302F40052
:100A00000989E1B78144E9B7CA84D9B779714AD075
:100A100062C42969138C818222D426D24ECE52CC54
:100A200056CA5AC85EC666C206D6AA8C2E8BB28932
:100A3000368ABA84BE8AC28B130909C4628403252C
:100A40000C000546814513050503D9338547630C22
:100A5000F50693957A0093FCFC0703250C00B3E59B
:100A60009501C205C1811105BD3B638E0900631369
:100A70000B000290084093D529005105AD33084082
:100A8000D68571058D339DC063130A00029093F7DC
:100A9000340091C30290084093D524006105A1332E
:100AA0000840B3855B0113050502353B08408546C8
:100AB000054681453105253B63900902A1E0A96403
:100AC000938404C445A07D19420913590901E31810
:100AD00009F61305A00FB5A093D929000149931772
:100AE0000901C1830840E3FB37FD93172900DA971A
:100AF0008C43130585020509FD31D5B72969898025
:100B00008149130909C493970901C183E3F997FA4D
:100B100008400946854513050503DD3919C9084014
:100B20001305C502D93193972900D29788C3850947
:100B3000D9BF7D19420913590901E31B09FC1305AB
:100B4000B00FB250225492540259F249624AD24A2A
:100B5000424BB24B224C924C45618280FD14C20440
:100B6000C180F1DC084005468145130505034D3180
:100B70008547E305F5FE0840210585391375F50F16
:100B8000C9B723A4A1828280AA86AE8709C9014879
:100B900013070002014681451305100285BD1305A8
:100BA000F00F8280797152CC56CA2E8AAA8A0946E1
:100BB00097150000938505C31385018F22D44AD071
:100BC0004ECE5AC85EC606D626D201448D3B054B92
:100BD000971B0000938B4BC11389018F971900005D
:100BE0009389C9C0631D4401B250225492540259E2
:100BF000F249624AD24A424BB24B456182806379E4
:100C00008B009377F40089E71146DE854A85053B22
:100C1000B3878A0083C4070005464A8593D54400FC
:100C2000CE95313B93F5F4000546CE954A85013BC0
:100C300005044DBF1306C00D971500009385C5E050
:100C40001385018FEDB99947630AF50463E9A7009D
:100C50008547630EF50089476304F5028280E54706
:100C60006307F502930720026301F50482801306EF
:100C7000200497150000938565B81385018FC1B1D5
:100C80001306200297150000938585BBFDB7130658
:100C9000C003971500009385E5BCC5B71306E002B5
:100CA000971500009385C5BFC9BF1306200397158C
:100CB00000009385E5C1D1B741113735007006C6F4
:100CC00022C4C13581451385018D7D3D1314050175
:100CD000418015E481482948894713070008814667
:100CE0000146A1451385018D152E2A8419ED7D46F7
:100CF00097150000938545FB1385018F8931137586
:100D0000F40FB240224441018280654697150000ED
:100D1000938585FB1385018F1D311375F40F2537DE
:100D2000F9BF411106C622C4912E09ED2244B240FA
:100D300013061002971500009385C5FA1385018FDD
:100D40004101F5BE2A8479461385018F971500006D
:100D5000938585FBED361375F40F2244B2404101B3
:100D6000DDB53171854613064002B7050070138565
:100D7000018F06DF26DB4ED722DD4AD952D556D366
:100D8000393659221306201497150000938585B72C
:100D90001385018F6D3693840185693DA54905460C
:100DA0002C001385018FE5367DD983478100130719
:100DB0007006638AE704130790066381E70213074E
:100DC0004006E39EE7FC1306D002971500009385CA
:100DD000A5E11385018FA536A93719A81306B0021E
:100DE00097150000938545D91385018F893EE93514
:100DF00013061005971500009385C5D21385018F42
:100E00003D3E0D3D69BF1306E00297150000938536
:100E100065D91385018F25361306B0039715000099
:100E2000938585DFC810EF00F01513065003971562
:100E30000000938525E26810EF00D01469469715ED
:100E400000009385A5E40808EF00D013814713073D
:100E50000008B386F400238006008507E39BE7FEC5
:100E60001306B003CC101385018FD13C01441389C4
:100E7000018F354AA94A05466C004A85093E65DD61
:100E800005466C004A85653C8347C1006382470381
:100E9000938707FD13F7F70F63E6E9003304540364
:100EA0003E94D1BF05466C001385018F493C7D54AB
:100EB0009307F4FF1D476360F7042287A686014667
:100EC00081450145692A2A8911ED0545B5256C1032
:100ED000130650031385018F9D3493154400268516
:100EE000D13139B769460C081385018F893C1375D8
:100EF000F90F913BF5BD514697150000938585CDBF
:100F00001385018F2D3CEDB501114EC6B729008028
:100F100003A709D4A167938707F806CE22CC26CA77
:100F20004AC83E971C4393F70702EDFF85471CC351
:100F300003A709D4A167938707F83E971C43858BC5
:100F4000F5DF2320070083A709D42167130707F8DB
:100F5000BA978043218875FC094798C3B72700805A
:100F600003A987D303A509D49164B72500804A86D5
:100F7000938505D32695EF00E074630C090083A7E1
:100F800009D40147A6979443050791073694E31CBB
:100F9000E9FEB727008083A747D305456309F4001E
:100FA000F2406244D2444249B24905618280EF0076
:100FB000007D95206D26512383A709D4216713074F
:100FC00007F8BA9737670800130707A198C3856722
:100FD00093874782054523ACF18E8D2B1305E5FDE4
:100FE0001338150081473707300081460146814597
:100FF000214523880193852E81470147814601467B
:10100000954505458D26F2406244D2444249B24995
:1010100001450561828023860182828095CF6543E8
:10102000630D0802411122C41384C182034E0400DF
:1010300006C6054363070E00B24022441A854101EB
:101040008280B9202A836DF985472300F400B240DD
:1010500022441A854101828065431A85828083C7B4
:10106000C1823A8881CB89CA01C73687C286BDAAA8
:101070006545828005458280094582809387C182CB
:1010800003C7070019E3054582802380070061AC90
:10109000397126DA4ED606DE22DC4AD852D456D230
:1010A0005AD05ECEB389B6001303A0391301018173
:1010B000E544636A3301130707F89374F7F7C20432
:1010C000C18085C089441301017FF2502685625496
:1010D000D2544259B259225A925A025BF24B2161C0
:1010E000828037240080032E04D41353F7411373F6
:1010F000F3032324FE00832704D43A93135363405D
:1011000023A66700832704D41307200623A807011A
:10111000832704D4D8CF832704D41307400998D356
:1011200083C7019395E3032704D48D671388872928
:1011300042971308000223200701032704D4938752
:10114000C729BA97114798C38547328AAA8A368B2E
:101150002E89032704D46380F804232A07008327F9
:1011600004D423AC3701631F0904032504D4631F8F
:101170000B02A167938707F83E95B737080093875E
:1011800007C11CC105679387818F1307C78298C366
:1011900023A207000DBF232A1701D922AA8BAA85F3
:1011A00005460A851D2E0DC9AA8431BFA167938704
:1011B00087183E950A094A955A86D2852123032528
:1011C00004D445BF032504D4A167938787184A86B2
:1011D000D6853E95C52951BF032504D4A9679387B9
:1011E00007025E868A853E95F12995BF9307A0394F
:1011F00063E9B712797122D437240080832804D49C
:101200008D671388472606D626D24AD04ECE52CCBA
:1012100056CA46980323080023A4D800032804D400
:101220009308200613010181232E1801032804D4FA
:10123000930840092320180303C80193630A080692
:101240003A8A0547B6892A89AE84832704D4630B7A
:10125000E60823A80700832704D484CFCDE803261B
:1012600004D4A167138707F8B73508003A96C1057B
:101270000CC2832504D4138607092E9685659387AF
:10128000818F939629009385058305478CC394C766
:10129000D0C723A84701D8C301451301017FB2502D
:1012A000225492540259F249624AD24A45618280DC
:1012B000032804D4938887299387C72946989308DD
:1012C000000223201801032804D43A8A0547C29754
:1012D000114823A00701B6892A89AE84832704D444
:1012E000E319E6F690CBE30803F69D28AA8A25D5F4
:1012F000AA8505460A85D5224DF1032504D4A967A0
:101300009387070256868A853E956D2EA9B70325D9
:1013100004D4A167938787182686CA853E955D26E3
:101320003DBF65458280B727008003A707D4930699
:101330004009014514D383A707D42167130707F891
:10134000BA97373708001307072198C305679387B3
:10135000818F1307278398C323A20700828005A6E5
:1013600003A54183828037280080832808D423AED8
:10137000A802032508D42CC1832508D4F0C18325F5
:1013800008D42166130606F8B4C5832608D4F8C627
:10139000032708D4B7460800938606A1329714C3E2
:1013A000832608D4B2969842118B75DF094798C2FC
:1013B00091CF832508D441113E85154693850504B8
:1013C00006C68526B24001454101828001458280E2
:1013D00083C70193411106C622C4D9EB9387F5FF59
:1013E000F19B938707021307903E6544636DF706F0
:1013F00037270080832607D4130640098D67ACCABF
:10140000832607D493888729B0CE032807D4138670
:10141000C729A16693077801232AF802032807D475
:10142000938706F8B30618011308000223A00601EB
:10143000832607D43696914614C2832607D43736BE
:10144000080013060641BE9690C2832607D4BE96B6
:101450009C42918BF5DF89479CC2832707D4804348
:101460004204418035C02285B2402244410182803D
:101470009307D03F6544E3E8B7FE37270080032693
:1014800007D4A166938706F80CC6832607D437369F
:10149000080013060641BE9690C2832607D4BE9666
:1014A0009C42918BF5DF89479CC2832707D48043F8
:1014B000420441804DF82E869385C7009D242285E5
:1014C000B2402244410182802E869385C705912C2B
:1014D0002285B240224441018280A9C921CD31CA6E
:1014E000011126CA93844183944022CC06CE4AC877
:1014F0004EC62E84654763E3B602138901838325B4
:101500000900931924004E86BD2A9C400326090039
:101510000147818F4E969CC02320C900F24062444F
:10152000D2444249B2493A850561828065473A858D
:10153000828079BD0947E5BF11A841679387818FF4
:101540001307F77F98C323A207008280B726008085
:1015500003A606D401112167130707F806CE22CC93
:1015600026CA4AC84EC652C4329741E11C431549A7
:10157000918BBDC31C4393F70708BDEF89471CC37C
:101580009389818F03A70900C1679387F77F63055C
:10159000F70E83A706D403A90700420913590901CE
:1015A000631C090283A749001384818F8144114A77
:1015B00089CF1044850451E22324040083A7490005
:1015C000310463F4F400E39644FFC1679387F77F27
:1015D00023A0F90023A20900F24062444A85D244C4
:1015E0004249B249224A056182801C43918BD9F35A
:1015F0001C43918BFDDBBDBFA1679385C7F8B295F6
:10160000884113146500635E04029841938707F8CC
:101610004E074D830A073A96184218C203A706D40C
:1016200009463E9710C303A706D4BA979C4393F785
:101630000708B9D71309300245B74C440848D520EC
:10164000A5BF23AE018E2320070003A706D49387EE
:1016500007F83E971043058A71FE094610C303A799
:1016600006D4BA979C4393F70708E9F7EFF0DF89B0
:101670002A893DF11D498DB713094002B1BF238C62
:10168000018201458280B3E7C500C98F8D8B99CF58
:10169000B387C50063F7F5022A9683C705000505E1
:1016A0008505A30FF5FEE31AC5FE8280719A2E967A
:1016B00063F9C5009C4111059105232EF5FEE3EB6E
:1016C000C5FE828093F735008DCF0A063388C500AA
:1016D00063F80505138645004111B2867C0003C7F7
:1016E000050085078505A38FE7FEE39AD5FEB2477F
:1016F0001105B285232EF5FE9106637106031106CE
:10170000F1BF93172600AE9763FCF50098411105D1
:101710009105232EE5FEE3EBF5FE828041018280F8
:1017200082809377350085CF0A063308C50063773A
:101730000505130645004111B28698417C003AC662
:1017400003C7070005058507A30FE5FEE31AD5FECD
:10175000328591059106637106031106F9BF93174F
:101760002600AA97637CF500984111059105232E68
:10177000E5FEE36BF5FE828041018280828023A03A
:10178000018482802A8309CA8383050023007300B1
:101790007D16050385056DFA8280000000000000BB
:1017A000CC070080CA070080CE070080E2070080D7
:1017B000DC070080DC070080DC070080DC0700809D
:1017C000D0070080D2070080D4070080D6070080B1
:1017D000D8070080DA070080DE070080E00700807D
:1017E000200000000D0A2000303132333435363706
:1017F00038394142434445460D0A204572726F72A2
:10180000202D204F7065726174696F6E206661696A
:101810006C6564206265636175736520746865201A
:1018200044524247206973206E6F7420696E73744E
:10183000616E7469617465642E0000000D0A2045B4
:1018400072726F72202D20506172616D65746572C5
:10185000206973205341545F4E554C4C2E000000BC
:101860000D0A204572726F72202D20506172616DD9
:101870006574657220657863656564732063617063
:101880006162696C697479206F6620696D706C653E
:101890006D656E746174696F6E2E2E000D0A2045A1
:1018A00072726F72202D204E524247206661746121
:1018B0006C206572726F7220647572696E67206F3A
:1018C0007065726174696F6E2E0000000D0A20450C
:1018D00072726F72202D2046756E6374696F6E2070
:1018E000696D706C656D656E746174696F6E206E84
:1018F0006F7420706F70756C617465642E000000E9
:101900000D0A0D0A2A2A2A2A2A2A2A2A2A2A2A2AB1
:101910002A2A2A2A2A2A2A2A2A2A2A2A2A2A2A2A27
:101920002A2A2A2A2A2A2A2A2A2A2A2A2A2A2A2A17
:101930002A2A2A2A2A2A2A2A2A2A2A2A2A2A2A2A07
:101940002A2A2A2A2A2A2A2A2A2A2A2A2A2A2A2AF7
:101950002A2A0D0A2A2A2A2A2A20506F6C617246E6
:1019600069726520557365722043727970746F20B7
:1019700052616E646F6D204269742047656E6572B6
:1019800061746F722053797374656D20536572763C
:1019900069636573204578616D706C65202A2A2A19
:1019A0002A2A0D0A2A2A2A2A2A2A2A2A2A2A2A2AD4
:1019B0002A2A2A2A2A2A2A2A2A2A2A2A2A2A2A2A87
:1019C0002A2A2A2A2A2A2A2A2A2A2A2A2A2A2A2A77
:1019D0002A2A2A2A2A2A2A2A2A2A2A2A2A2A2A2A67
:1019E0002A2A2A2A2A2A2A2A2A2A2A2A2A2A2A2A57
:1019F0002A2A0D0A2054686973206578616D706C1D
:101A0000652070726F6A65637420657865726369BA
:101A1000736573207468652072616E646F6D2062F7
:101A200069742067656E657261746F722073797373
:101A300074656D0D0A2073657276696365732E0D8A
:101A40000A0000000D0A0D0A202D205072657373E4
:101A50002022692220746F20696E7374616E74692C
:101A60006174652072616E646F6D206E756D626564
:101A700072732E0D0A20202D205072657373202260
:101A8000672220746F2067656E65726174652072CD
:101A9000616E646F6D206E756D626572732E0D0AD6
:101AA00020202D2050726573732022642220746FD1
:101AB00020756E696E7374616E74696174656420FB
:101AC00072616E646F6D206E756D626572732E0D3E
:101AD0000A2D2D2D2D2D2D2D2D2D2D2D2D2D2D2D59
:101AE0002D2D2D2D2D2D2D2D2D2D2D2D2D2D2D2D26
:101AF0002D2D2D2D2D2D2D2D2D2D2D2D2D2D2D2D16
:101B00002D2D2D2D2D2D2D2D2D2D2D2D2D2D2D2D05
:101B10002D2D2D2D2D2D2D2D2D2D2D2D2D2D2D0022
:101B20000D0A2D2D2D2D2D2D2D2D2D2D2D2D2D2D28
:101B30002D2D2D2D2D2D2D2D2D2D2D2D2D2D2D2DD5
:101B40002D2D2D2D2D2D2D2D2D2D2D2D2D2D2D2DC5
:101B50002D2D2D2D2D2D2D2D2D2D2D2D2D2D2D2DB5
:101B60002D2D2D2D2D2D2D2D2D2D2D2D2D2D2D2DA5
:101B7000000000000D0A2053656C65637465643ACB
:101B8000204452424720696E7374616E74696174B7
:101B9000657320736572766963652E200D0A0000F7
:101BA0000D0A2053656C65637465643A2052616E5A
:101BB000646F6D20646174612067656E6572617425
:101BC0006520736572766963652E200D0A0000003A
:101BD0000D0A0D0A20496E76616C696420656E7489
:101BE00072792E000D0A2053656C65637465643A42
:101BF00020556E696E7374616E74696174656420DA
:101C00004452424720736572766963652E200D0A3F
:101C10000000000020456E746572206E756D62656F
:101C200072206F662072616E646F6D20626C6F63EC
:101C30006B20746F2067656E657261746528206D16
:101C40006178203820626C6F636B73293A20000042
:101C50000D0A20445242472067656E6572617465C3
:101C6000207375636365737366756C2E200D0A208F
:101C700047656E657261746564204E756D6265724C
:101C80003A200D0A000000000D0A2044524247206D
:101C900067656E6572617465206661696C757265F1
:101CA0002E000000204452424720696E7374616E1A
:101CB00074696174657320737563636573736675A6
:101CC0006C2E0000204452424720696E7374616E8E
:101CD000746961746573206661696C2E0000000090
:101CE000204452424720756E696E7374616E746948
:101CF00061746564207375636365737366756C2EB8
:101D000000000000204452424720756E696E7374D3
:101D1000616E746961746564206661696C75726571
:101D20002E00000000000000000000000000000085
:041D300000000000AF
:041D340000000000AB
:041D380000000000A7
:101D40000000006200000000000000000000000031
:040000058000000077
:00000001FF
